{
  "transactions": [
    {
      "hash": "0x95c84f00735f9ac3a6798265b114b39faa3fb187c6aebb5315689ef4d262dad5",
      "transactionType": "CALL",
      "contractName": null,
      "contractAddress": "0x6f2997d9929c1b4eaf49f7fe4f4dc12a5588d6d6",
      "function": "setRelayer(address)",
      "arguments": [
        "0xc4660f40BA6Fe89b3BA7Ded44Cf1DB73D731c95e"
      ],
      "transaction": {
        "from": "0x2ccb42b46e63bda5eecc216bfdfc7a4a26a2e841",
        "to": "0x6f2997d9929c1b4eaf49f7fe4f4dc12a5588d6d6",
        "gas": "0xa2ff",
        "value": "0x0",
        "input": "0x6548e9bc000000000000000000000000c4660f40ba6fe89b3ba7ded44cf1db73d731c95e",
        "nonce": "0x4",
        "chainId": "0xa4b1"
      },
      "additionalContracts": [],
      "isFixedGasLimit": false
    }
  ],
  "receipts": [
    {
      "status": "0x1",
      "cumulativeGasUsed": "0x51161",
      "logs": [
        {
          "address": "0x6f2997d9929c1b4eaf49f7fe4f4dc12a5588d6d6",
          "topics": [
            "0x18f08848c5694a025f9966c34ff2367f32a1a8275663b282ee01f4338b045490",
            "0x0000000000000000000000004aa5d60cb4d5c02c8ae0e83fc0ec8e30e4a76a7d",
            "0x000000000000000000000000c4660f40ba6fe89b3ba7ded44cf1db73d731c95e"
          ],
          "data": "0x",
          "blockHash": "0x0d6c2aaf08705e7c195393800bdc33a7ba74ad1d207eca897c0d57a2e94b1575",
          "blockNumber": "0x176733ad",
          "blockTimestamp": "0x68fa7303",
          "transactionHash": "0x95c84f00735f9ac3a6798265b114b39faa3fb187c6aebb5315689ef4d262dad5",
          "transactionIndex": "0x3",
          "logIndex": "0xe",
          "removed": false
        }
      ],
      "logsBloom": "0x00000000000000000000000004000000000000000002000000000010000000000000000000000000000000000000000000000000000000000000000000000000000000000000000000000000000000000000000000000800000000000000000000000000000000000000000000000000000000000000000000001000000000000000000000000000000000000000000000000000000000000000000000000000000000000000000000000000000000020000001000000000000000000000000000000000100400000000000000000000000000000000000000000000000000000000000000000000002100000040000000000000000000000000000000000000",
      "type": "0x2",
      "transactionHash": "0x95c84f00735f9ac3a6798265b114b39faa3fb187c6aebb5315689ef4d262dad5",
      "transactionIndex": "0x3",
      "blockHash": "0x0d6c2aaf08705e7c195393800bdc33a7ba74ad1d207eca897c0d57a2e94b1575",
      "blockNumber": "0x176733ad",
      "gasUsed": "0x7b5d",
      "effectiveGasPrice": "0x989680",
      "from": "0x2ccb42b46e63bda5eecc216bfdfc7a4a26a2e841",
      "to": "0x6f2997d9929c1b4eaf49f7fe4f4dc12a5588d6d6",
      "contractAddress": null,
      "gasUsedForL1": "0x23d",
      "l1BlockNumber": "0x168bf6f",
      "timeboosted": false
    }
  ],
  "libraries": [],
  "pending": [],
  "returns": {},
  "timestamp": 1761243910787,
  "chain": 42161,
  "commit": "250dbf9"
}