{
  "transactions": [
    {
      "hash": "0x6471fe46dc1b76e35d058c390486d247b8e54effd3531351d2df6bf9588b75f1",
      "transactionType": "CALL",
      "contractName": null,
      "contractAddress": "0xa957487eab18ef4dc03188ecaf6d7d3695b993ab",
      "function": "setRelayer(address)",
      "arguments": [
        "0x4aA5d60cb4d5C02C8ae0e83fc0Ec8e30e4a76a7d"
      ],
      "transaction": {
        "from": "0x2ccb42b46e63bda5eecc216bfdfc7a4a26a2e841",
        "to": "0xa957487eab18ef4dc03188ecaf6d7d3695b993ab",
        "gas": "0x9615",
        "value": "0x0",
        "input": "0x6548e9bc0000000000000000000000004aa5d60cb4d5c02c8ae0e83fc0ec8e30e4a76a7d",
        "nonce": "0x2",
        "chainId": "0xa4b1"
      },
      "additionalContracts": [],
      "isFixedGasLimit": false
    }
  ],
  "receipts": [
    {
      "status": "0x1",
      "cumulativeGasUsed": "0x65b9f",
      "logs": [
        {
          "address": "0xa957487eab18ef4dc03188ecaf6d7d3695b993ab",
          "topics": [
            "0x18f08848c5694a025f9966c34ff2367f32a1a8275663b282ee01f4338b045490",
            "0x0000000000000000000000004aa5d60cb4d5c02c8ae0e83fc0ec8e30e4a76a7d",
            "0x0000000000000000000000004aa5d60cb4d5c02c8ae0e83fc0ec8e30e4a76a7d"
          ],
          "data": "0x",
          "blockHash": "0x7df5e9aac87acfbad32399a84e07d4b837288aeb3d67449e4a99246a35a34733",
          "blockNumber": "0x1766cee4",
          "blockTimestamp": "0x68fa59e3",
          "transactionHash": "0x6471fe46dc1b76e35d058c390486d247b8e54effd3531351d2df6bf9588b75f1",
          "transactionIndex": "0x7",
          "logIndex": "0x1a",
          "removed": false
        }
      ],
      "logsBloom": "0x00000000000000000000000000000000000000000002000000000010000000000004000000000000000000000000000000000000000000000000000000000000000000000000000000000000000040000000000000000000000000000000000000000000000000000000000000000000000000000000000000000000000000000000000000000000000000000000000000000000000000000000000000000000000000000000000000000000000000000000001000000000000400000000000000000000000400000000000000000000000000000000000000000000000000000000000000000000002000000040000000000000000000000000000000000000",
      "type": "0x2",
      "transactionHash": "0x6471fe46dc1b76e35d058c390486d247b8e54effd3531351d2df6bf9588b75f1",
      "transactionIndex": "0x7",
      "blockHash": "0x7df5e9aac87acfbad32399a84e07d4b837288aeb3d67449e4a99246a35a34733",
      "blockNumber": "0x1766cee4",
      "gasUsed": "0x702a",
      "effectiveGasPrice": "0x989680",
      "from": "0x2ccb42b46e63bda5eecc216bfdfc7a4a26a2e841",
      "to": "0xa957487eab18ef4dc03188ecaf6d7d3695b993ab",
      "contractAddress": null,
      "gasUsedForL1": "0x1fa",
      "l1BlockNumber": "0x168bd5a",
      "timeboosted": false
    }
  ],
  "libraries": [],
  "pending": [],
  "returns": {},
  "timestamp": 1761237476386,
  "chain": 42161,
  "commit": "77f39a4"
}