{
  "transactions": [
    {
      "hash": "0x3c9d597a21fa38d01f726c654ebd19f204098d7f527333916a9ae653055a7c6a",
      "transactionType": "CALL",
      "contractName": null,
      "contractAddress": "0x98519ccdb35c9ed521bbcd00435fe2ab2d1305f7",
      "function": "depositWithSig((uint256,uint256,(address,address,uint256,uint256,uint8,bytes32,bytes32),uint256,uint256),bytes)",
      "arguments": [
        "(1, 500000, (0x2ccb42B46e63BdA5eecc216bFDFC7a4a26A2e841, 0x98519ccdb35C9ed521bbcd00435fE2ab2D1305f7, 500000, 1761379144, 27, 0x2b67caaccccf113f556351db77ca721882ab4205a7d887f0ddd155e7a3b08755, 0x2b11d82c9dc6f1bdd02244a2c39f81edb45798f77ba3aea1dfbae1ba678bfbc1), 1, 1761379144)",
        "0x305d3c1284b06193962ede4eacffe17786c2f9111c904fb66e98bca2e1c52b522a4edff8e7bdc053b3a22030595682dca798e49cd92e9dc628c3973bf82bc8391c"
      ],
      "transaction": {
        "from": "0x4aa5d60cb4d5c02c8ae0e83fc0ec8e30e4a76a7d",
        "to": "0x98519ccdb35c9ed521bbcd00435fe2ab2d1305f7",
        "gas": "0x35896",
        "value": "0x0",
        "input": "0xb180c9370000000000000000000000000000000000000000000000000000000000000001000000000000000000000000000000000000000000000000000000000007a1200000000000000000000000002ccb42b46e63bda5eecc216bfdfc7a4a26a2e84100000000000000000000000098519ccdb35c9ed521bbcd00435fe2ab2d1305f7000000000000000000000000000000000000000000000000000000000007a1200000000000000000000000000000000000000000000000000000000068fc8348000000000000000000000000000000000000000000000000000000000000001b2b67caaccccf113f556351db77ca721882ab4205a7d887f0ddd155e7a3b087552b11d82c9dc6f1bdd02244a2c39f81edb45798f77ba3aea1dfbae1ba678bfbc100000000000000000000000000000000000000000000000000000000000000010000000000000000000000000000000000000000000000000000000068fc834800000000000000000000000000000000000000000000000000000000000001800000000000000000000000000000000000000000000000000000000000000041305d3c1284b06193962ede4eacffe17786c2f9111c904fb66e98bca2e1c52b522a4edff8e7bdc053b3a22030595682dca798e49cd92e9dc628c3973bf82bc8391c00000000000000000000000000000000000000000000000000000000000000",
        "nonce": "0x2",
        "chainId": "0xa4b1"
      },
      "additionalContracts": [],
      "isFixedGasLimit": false
    }
  ],
  "receipts": [
    {
      "status": "0x1",
      "cumulativeGasUsed": "0x69b7f",
      "logs": [
        {
          "address": "0xaf88d065e77c8cc2239327c5edb3a432268e5831",
          "topics": [
            "0x8c5be1e5ebec7d5bd14f71427d1e84f3dd0314c0f7b2291e5b200ac8c7c3b925",
            "0x0000000000000000000000002ccb42b46e63bda5eecc216bfdfc7a4a26a2e841",
            "0x00000000000000000000000098519ccdb35c9ed521bbcd00435fe2ab2d1305f7"
          ],
          "data": "0x000000000000000000000000000000000000000000000000000000000007a120",
          "blockHash": "0x7e5436f5b1b6a56d1de8ac07e7b35f117762c1f22d8be3c4c57f7bf1cd2fb152",
          "blockNumber": "0x176f3f56",
          "transactionHash": "0x3c9d597a21fa38d01f726c654ebd19f204098d7f527333916a9ae653055a7c6a",
          "transactionIndex": "0x3",
          "logIndex": "0x2",
          "removed": false
        },
        {
          "address": "0xaf88d065e77c8cc2239327c5edb3a432268e5831",
          "topics": [
            "0xddf252ad1be2c89b69c2b068fc378daa952ba7f163c4a11628f55a4df523b3ef",
            "0x0000000000000000000000002ccb42b46e63bda5eecc216bfdfc7a4a26a2e841",
            "0x00000000000000000000000098519ccdb35c9ed521bbcd00435fe2ab2d1305f7"
          ],
          "data": "0x000000000000000000000000000000000000000000000000000000000007a120",
          "blockHash": "0x7e5436f5b1b6a56d1de8ac07e7b35f117762c1f22d8be3c4c57f7bf1cd2fb152",
          "blockNumber": "0x176f3f56",
          "transactionHash": "0x3c9d597a21fa38d01f726c654ebd19f204098d7f527333916a9ae653055a7c6a",
          "transactionIndex": "0x3",
          "logIndex": "0x3",
          "removed": false
        },
        {
          "address": "0x98519ccdb35c9ed521bbcd00435fe2ab2d1305f7",
          "topics": [
            "0x0b2aac84f3ec956911fd78eae5311062972ff949f38412e8da39069d9f068cc6",
            "0x0000000000000000000000000000000000000000000000000000000000000000",
            "0x0000000000000000000000000000000000000000000000000000000000000001"
          ],
          "data": "0x000000000000000000000000000000000000000000000000000000000007a120",
          "blockHash": "0x7e5436f5b1b6a56d1de8ac07e7b35f117762c1f22d8be3c4c57f7bf1cd2fb152",
          "blockNumber": "0x176f3f56",
          "transactionHash": "0x3c9d597a21fa38d01f726c654ebd19f204098d7f527333916a9ae653055a7c6a",
          "transactionIndex": "0x3",
          "logIndex": "0x4",
          "removed": false
        }
      ],
      "logsBloom": "0x00000000000000000000000000000000000000000000001000000000000000000000000000000000000000000100000000000001000000000000000000240000000000000000004000000008000000000000000040140000000004000000000000000000020800000000000000000800000000000000001000000010000000000000000000000000000000000000000000000000000000000000000000000000020000000000000008000000000000000000000000000000000000000000000000002002000000000000000000000000000800000000000000000000000060000010000000000000000000000000200200000000000001000000000000000000",
      "type": "0x2",
      "transactionHash": "0x3c9d597a21fa38d01f726c654ebd19f204098d7f527333916a9ae653055a7c6a",
      "transactionIndex": "0x3",
      "blockHash": "0x7e5436f5b1b6a56d1de8ac07e7b35f117762c1f22d8be3c4c57f7bf1cd2fb152",
      "blockNumber": "0x176f3f56",
      "gasUsed": "0x24314",
      "effectiveGasPrice": "0x989680",
      "from": "0x4aa5d60cb4d5c02c8ae0e83fc0ec8e30e4a76a7d",
      "to": "0x98519ccdb35c9ed521bbcd00435fe2ab2d1305f7",
      "contractAddress": null,
      "gasUsedForL1": "0x4a1",
      "l1BlockNumber": "0x168e9e5",
      "timeboosted": false
    }
  ],
  "libraries": [],
  "pending": [],
  "returns": {},
  "timestamp": 1761375561581,
  "chain": 42161,
  "commit": "5d21f7e"
}