{
  "transactions": [
    {
      "hash": "0xdd800f832d692a77b1a152c93bd1d5ca4bd0113a2552068d6e209c0d78dae830",
      "transactionType": "CALL",
      "contractName": null,
      "contractAddress": "0xdb140b58d6e3988f5c453e192295748c1438d8d4",
      "function": "mintWithSig((address,uint256,(address,address,uint256,uint256,uint8,bytes32,bytes32),address,uint256,uint256),bytes)",
      "arguments": [
        "(0xc4660f40BA6Fe89b3BA7Ded44Cf1DB73D731c95e, 2000000, (0xc4660f40BA6Fe89b3BA7Ded44Cf1DB73D731c95e, 0xdB140B58D6E3988F5C453E192295748c1438d8D4, 2000000, 1761338757, 28, 0xf072aecd57063aae4d7ce3dc932762a27d05109029a67a409f618500d8e685e6, 0x18f8b3759d88431f0caaedcf520144162d4f57541f0991d21a821eba7b3a4915), 0xc4660f40BA6Fe89b3BA7Ded44Cf1DB73D731c95e, 0, 1761338757)",
        "0xf6a07cd83c66e26beb1ee1e5fba28abc9add3ec6ecbddc4bb6f8fd9fb8edc18c651adae667950ad06cef39b962577de68cedeb69800620f60200df04caee477d1c"
      ],
      "transaction": {
        "from": "0xc4660f40ba6fe89b3ba7ded44cf1db73d731c95e",
        "to": "0xdb140b58d6e3988f5c453e192295748c1438d8d4",
        "gas": "0x68457",
        "value": "0x0",
        "input": "0x2b8eeba5000000000000000000000000c4660f40ba6fe89b3ba7ded44cf1db73d731c95e00000000000000000000000000000000000000000000000000000000001e8480000000000000000000000000c4660f40ba6fe89b3ba7ded44cf1db73d731c95e000000000000000000000000db140b58d6e3988f5c453e192295748c1438d8d400000000000000000000000000000000000000000000000000000000001e84800000000000000000000000000000000000000000000000000000000068fbe585000000000000000000000000000000000000000000000000000000000000001cf072aecd57063aae4d7ce3dc932762a27d05109029a67a409f618500d8e685e618f8b3759d88431f0caaedcf520144162d4f57541f0991d21a821eba7b3a4915000000000000000000000000c4660f40ba6fe89b3ba7ded44cf1db73d731c95e00000000000000000000000000000000000000000000000000000000000000000000000000000000000000000000000000000000000000000000000068fbe58500000000000000000000000000000000000000000000000000000000000001a00000000000000000000000000000000000000000000000000000000000000041f6a07cd83c66e26beb1ee1e5fba28abc9add3ec6ecbddc4bb6f8fd9fb8edc18c651adae667950ad06cef39b962577de68cedeb69800620f60200df04caee477d1c00000000000000000000000000000000000000000000000000000000000000",
        "nonce": "0x26",
        "chainId": "0xa4b1"
      },
      "additionalContracts": [],
      "isFixedGasLimit": false
    }
  ],
  "receipts": [
    {
      "status": "0x1",
      "cumulativeGasUsed": "0x17b841",
      "logs": [
        {
          "address": "0xaf88d065e77c8cc2239327c5edb3a432268e5831",
          "topics": [
            "0x8c5be1e5ebec7d5bd14f71427d1e84f3dd0314c0f7b2291e5b200ac8c7c3b925",
            "0x000000000000000000000000c4660f40ba6fe89b3ba7ded44cf1db73d731c95e",
            "0x000000000000000000000000db140b58d6e3988f5c453e192295748c1438d8d4"
          ],
          "data": "0x00000000000000000000000000000000000000000000000000000000001e8480",
          "blockHash": "0x2b1b3f2a0bd90764e6de0d89283698960ed0666afb8b592ec4a6e65865af0e35",
          "blockNumber": "0x176cc801",
          "transactionHash": "0xdd800f832d692a77b1a152c93bd1d5ca4bd0113a2552068d6e209c0d78dae830",
          "transactionIndex": "0x4",
          "logIndex": "0x25",
          "removed": false
        },
        {
          "address": "0xaf88d065e77c8cc2239327c5edb3a432268e5831",
          "topics": [
            "0xddf252ad1be2c89b69c2b068fc378daa952ba7f163c4a11628f55a4df523b3ef",
            "0x000000000000000000000000c4660f40ba6fe89b3ba7ded44cf1db73d731c95e",
            "0x000000000000000000000000db140b58d6e3988f5c453e192295748c1438d8d4"
          ],
          "data": "0x00000000000000000000000000000000000000000000000000000000001e8480",
          "blockHash": "0x2b1b3f2a0bd90764e6de0d89283698960ed0666afb8b592ec4a6e65865af0e35",
          "blockNumber": "0x176cc801",
          "transactionHash": "0xdd800f832d692a77b1a152c93bd1d5ca4bd0113a2552068d6e209c0d78dae830",
          "transactionIndex": "0x4",
          "logIndex": "0x26",
          "removed": false
        },
        {
          "address": "0xdb140b58d6e3988f5c453e192295748c1438d8d4",
          "topics": [
            "0xddf252ad1be2c89b69c2b068fc378daa952ba7f163c4a11628f55a4df523b3ef",
            "0x0000000000000000000000000000000000000000000000000000000000000000",
            "0x000000000000000000000000c4660f40ba6fe89b3ba7ded44cf1db73d731c95e",
            "0x0000000000000000000000000000000000000000000000000000000000000001"
          ],
          "data": "0x",
          "blockHash": "0x2b1b3f2a0bd90764e6de0d89283698960ed0666afb8b592ec4a6e65865af0e35",
          "blockNumber": "0x176cc801",
          "transactionHash": "0xdd800f832d692a77b1a152c93bd1d5ca4bd0113a2552068d6e209c0d78dae830",
          "transactionIndex": "0x4",
          "logIndex": "0x27",
          "removed": false
        },
        {
          "address": "0xdb140b58d6e3988f5c453e192295748c1438d8d4",
          "topics": [
            "0xe4f48c240d3b994948aa54f3e2f5fca59263dfe1d52b6e4cf39a5d249b5ccb65",
            "0x0000000000000000000000000000000000000000000000000000000000000001",
            "0x0000000000000000000000000000000000000000000000000000000000000000",
            "0x0000000000000000000000000000000000000000000000000000000000000000"
          ],
          "data": "0x",
          "blockHash": "0x2b1b3f2a0bd90764e6de0d89283698960ed0666afb8b592ec4a6e65865af0e35",
          "blockNumber": "0x176cc801",
          "transactionHash": "0xdd800f832d692a77b1a152c93bd1d5ca4bd0113a2552068d6e209c0d78dae830",
          "transactionIndex": "0x4",
          "logIndex": "0x28",
          "removed": false
        },
        {
          "address": "0xdb140b58d6e3988f5c453e192295748c1438d8d4",
          "topics": [
            "0x0b2aac84f3ec956911fd78eae5311062972ff949f38412e8da39069d9f068cc6",
            "0x0000000000000000000000000000000000000000000000000000000000000000",
            "0x0000000000000000000000000000000000000000000000000000000000000001"
          ],
          "data": "0x00000000000000000000000000000000000000000000000000000000001e8480",
          "blockHash": "0x2b1b3f2a0bd90764e6de0d89283698960ed0666afb8b592ec4a6e65865af0e35",
          "blockNumber": "0x176cc801",
          "transactionHash": "0xdd800f832d692a77b1a152c93bd1d5ca4bd0113a2552068d6e209c0d78dae830",
          "transactionIndex": "0x4",
          "logIndex": "0x29",
          "removed": false
        },
        {
          "address": "0xdb140b58d6e3988f5c453e192295748c1438d8d4",
          "topics": [
            "0xfd1ba5519feb014ad2f631cbd516bd3cec96be935749391554d122972593e7bf",
            "0x000000000000000000000000c4660f40ba6fe89b3ba7ded44cf1db73d731c95e",
            "0x000000000000000000000000c4660f40ba6fe89b3ba7ded44cf1db73d731c95e"
          ],
          "data": "0x00000000000000000000000000000000000000000000000000000000001e8480",
          "blockHash": "0x2b1b3f2a0bd90764e6de0d89283698960ed0666afb8b592ec4a6e65865af0e35",
          "blockNumber": "0x176cc801",
          "transactionHash": "0xdd800f832d692a77b1a152c93bd1d5ca4bd0113a2552068d6e209c0d78dae830",
          "transactionIndex": "0x4",
          "logIndex": "0x2a",
          "removed": false
        }
      ],
      "logsBloom": "0x00000000000000000000000000000000000000000000001000000000000000000000000000000000000000000000000020000001000000000000000000240000000000000000000000000008000000000000000100040000000000000000000000000000020000000000000000000800000000000000000000001010000000000000000000000010400000000000000000008000000000000000040000000000020000000000000000000000200002000000000000000000000000000000000000002002100000000002000004000000000000000040008000000000000060000010000000000000000100000000200200000000000001000000000000000000",
      "type": "0x2",
      "transactionHash": "0xdd800f832d692a77b1a152c93bd1d5ca4bd0113a2552068d6e209c0d78dae830",
      "transactionIndex": "0x4",
      "blockHash": "0x2b1b3f2a0bd90764e6de0d89283698960ed0666afb8b592ec4a6e65865af0e35",
      "blockNumber": "0x176cc801",
      "gasUsed": "0x4b276",
      "effectiveGasPrice": "0x989680",
      "from": "0xc4660f40ba6fe89b3ba7ded44cf1db73d731c95e",
      "to": "0xdb140b58d6e3988f5c453e192295748c1438d8d4",
      "contractAddress": null,
      "gasUsedForL1": "0x300",
      "l1BlockNumber": "0x168dcd9",
      "timeboosted": false
    }
  ],
  "libraries": [],
  "pending": [],
  "returns": {},
  "timestamp": 1761335172,
  "chain": 42161,
  "commit": "27e81f6"
}