{
  "transactions": [
    {
      "hash": "0xd0306fe9c554f1c5160862be030988e1fc2ba76ef14b67f9c686abcd969a8dc9",
      "transactionType": "CALL",
      "contractName": null,
      "contractAddress": "0xdb140b58d6e3988f5c453e192295748c1438d8d4",
      "function": "setRefuelPolicy(uint256,uint256,uint128,uint128,address)",
      "arguments": [
        "4",
        "56",
        "2000000",
        "2000000",
        "0xC753b713A574bBeFDC496DBD6959c217F49D4bf8"
      ],
      "transaction": {
        "from": "0xc4660f40ba6fe89b3ba7ded44cf1db73d731c95e",
        "to": "0xdb140b58d6e3988f5c453e192295748c1438d8d4",
        "gas": "0x1ac37",
        "value": "0x0",
        "input": "0x5a2419f80000000000000000000000000000000000000000000000000000000000000004000000000000000000000000000000000000000000000000000000000000003800000000000000000000000000000000000000000000000000000000001e848000000000000000000000000000000000000000000000000000000000001e8480000000000000000000000000c753b713a574bbefdc496dbd6959c217f49d4bf8",
        "nonce": "0x33",
        "chainId": "0xa4b1"
      },
      "additionalContracts": [],
      "isFixedGasLimit": false
    }
  ],
  "receipts": [
    {
      "status": "0x1",
      "cumulativeGasUsed": "0x1454e",
      "logs": [],
      "logsBloom": "0x00000000000000000000000000000000000000000000000000000000000000000000000000000000000000000000000000000000000000000000000000000000000000000000000000000000000000000000000000000000000000000000000000000000000000000000000000000000000000000000000000000000000000000000000000000000000000000000000000000000000000000000000000000000000000000000000000000000000000000000000000000000000000000000000000000000000000000000000000000000000000000000000000000000000000000000000000000000000000000000000000000000000000000000000000000000",
      "type": "0x2",
      "transactionHash": "0xd0306fe9c554f1c5160862be030988e1fc2ba76ef14b67f9c686abcd969a8dc9",
      "transactionIndex": "0x1",
      "blockHash": "0xcfa56f1e93296a2cb6f3e764238c2391cd2631ecfa8f0dace851c989be55e426",
      "blockNumber": "0x17705d71",
      "gasUsed": "0x1454e",
      "effectiveGasPrice": "0x989680",
      "from": "0xc4660f40ba6fe89b3ba7ded44cf1db73d731c95e",
      "to": "0xdb140b58d6e3988f5c453e192295748c1438d8d4",
      "contractAddress": null,
      "gasUsedForL1": "0x257",
      "l1BlockNumber": "0x168efd2",
      "timeboosted": false
    }
  ],
  "libraries": [],
  "pending": [],
  "returns": {},
  "timestamp": 1761393860,
  "chain": 42161,
  "commit": "8a6c67b"
}