{
  "transactions": [
    {
      "hash": "0x271a78a0fa8f0d173fd2e6ffa255b5e0cf990f9846df6b487b3a675e7f629675",
      "transactionType": "CALL",
      "contractName": null,
      "contractAddress": "0x98519ccdb35c9ed521bbcd00435fe2ab2d1305f7",
      "function": "withdrawAllUSDC(uint256,address)",
      "arguments": [
        "3",
        "0xfc18e6D7b66d3fDB7250eD5b48eB0bEEc6d5B82D"
      ],
      "transaction": {
        "from": "0xfc18e6d7b66d3fdb7250ed5b48eb0beec6d5b82d",
        "to": "0x98519ccdb35c9ed521bbcd00435fe2ab2d1305f7",
        "gas": "0x168c2",
        "value": "0x0",
        "input": "0xd2e17dd20000000000000000000000000000000000000000000000000000000000000003000000000000000000000000fc18e6d7b66d3fdb7250ed5b48eb0beec6d5b82d",
        "nonce": "0x0",
        "chainId": "0xa4b1"
      },
      "additionalContracts": [],
      "isFixedGasLimit": false
    }
  ],
  "receipts": [
    {
      "status": "0x1",
      "cumulativeGasUsed": "0x22d6a3",
      "logs": [
        {
          "address": "0x98519ccdb35c9ed521bbcd00435fe2ab2d1305f7",
          "topics": [
            "0x0b2aac84f3ec956911fd78eae5311062972ff949f38412e8da39069d9f068cc6",
            "0x0000000000000000000000000000000000000000000000000000000000000003",
            "0x0000000000000000000000000000000000000000000000000000000000000000"
          ],
          "data": "0x000000000000000000000000000000000000000000000000000000000010c8e0",
          "blockHash": "0xc6dc2e4e237ef2c7c73f8e3f6aa28e4249cc4a33736015e81a6ca6e4cc5bf72d",
          "blockNumber": "0x17715c12",
          "transactionHash": "0x271a78a0fa8f0d173fd2e6ffa255b5e0cf990f9846df6b487b3a675e7f629675",
          "transactionIndex": "0x4",
          "logIndex": "0x12",
          "removed": false
        },
        {
          "address": "0xaf88d065e77c8cc2239327c5edb3a432268e5831",
          "topics": [
            "0xddf252ad1be2c89b69c2b068fc378daa952ba7f163c4a11628f55a4df523b3ef",
            "0x00000000000000000000000098519ccdb35c9ed521bbcd00435fe2ab2d1305f7",
            "0x000000000000000000000000fc18e6d7b66d3fdb7250ed5b48eb0beec6d5b82d"
          ],
          "data": "0x000000000000000000000000000000000000000000000000000000000010c8e0",
          "blockHash": "0xc6dc2e4e237ef2c7c73f8e3f6aa28e4249cc4a33736015e81a6ca6e4cc5bf72d",
          "blockNumber": "0x17715c12",
          "transactionHash": "0x271a78a0fa8f0d173fd2e6ffa255b5e0cf990f9846df6b487b3a675e7f629675",
          "transactionIndex": "0x4",
          "logIndex": "0x13",
          "removed": false
        },
        {
          "address": "0x98519ccdb35c9ed521bbcd00435fe2ab2d1305f7",
          "topics": [
            "0x82f65e414029cb5d9668f192f37ffff1e78b03d5e84dd0f121786ac6601472a9",
            "0x000000000000000000000000fc18e6d7b66d3fdb7250ed5b48eb0beec6d5b82d",
            "0x0000000000000000000000000000000000000000000000000000000000000003",
            "0x000000000000000000000000fc18e6d7b66d3fdb7250ed5b48eb0beec6d5b82d"
          ],
          "data": "0x000000000000000000000000000000000000000000000000000000000010c8e0",
          "blockHash": "0xc6dc2e4e237ef2c7c73f8e3f6aa28e4249cc4a33736015e81a6ca6e4cc5bf72d",
          "blockNumber": "0x17715c12",
          "transactionHash": "0x271a78a0fa8f0d173fd2e6ffa255b5e0cf990f9846df6b487b3a675e7f629675",
          "transactionIndex": "0x4",
          "logIndex": "0x14",
          "removed": false
        }
      ],
      "logsBloom": "0x00000000000000000020000000000000000000000000001000000000000000000000000000000000000000000100400000000001020080000000000000000000000000000000004000000008000000000000000000100000000000000000000000000000020000000000000000000800000000000000001000000010000000000000000000010000000000000000000000000000000000000000000000000000000000000000000008000000000000200000000000800000000000000000400000002002000000000000000000000000040800000000000000000000000020000000000000000000000000000000200200000000000001000000000000000000",
      "type": "0x2",
      "transactionHash": "0x271a78a0fa8f0d173fd2e6ffa255b5e0cf990f9846df6b487b3a675e7f629675",
      "transactionIndex": "0x4",
      "blockHash": "0xc6dc2e4e237ef2c7c73f8e3f6aa28e4249cc4a33736015e81a6ca6e4cc5bf72d",
      "blockNumber": "0x17715c12",
      "gasUsed": "0x100e5",
      "effectiveGasPrice": "0x989680",
      "from": "0xfc18e6d7b66d3fdb7250ed5b48eb0beec6d5b82d",
      "to": "0x98519ccdb35c9ed521bbcd00435fe2ab2d1305f7",
      "contractAddress": null,
      "gasUsedForL1": "0x18f",
      "l1BlockNumber": "0x168f515",
      "timeboosted": false
    }
  ],
  "libraries": [],
  "pending": [],
  "returns": {},
  "timestamp": 1761410138745,
  "chain": 42161,
  "commit": "2047033"
}