{
  "transactions": [
    {
      "hash": "0x71b290be8e62c91678471d87d75af361a2e7ce81227a5791d51d769c03471751",
      "transactionType": "CALL",
      "contractName": null,
      "contractAddress": "0xdb140b58d6e3988f5c453e192295748c1438d8d4",
      "function": "mintWithSig((address,uint256,(address,address,uint256,uint256,uint8,bytes32,bytes32),address,uint256,uint256),bytes)",
      "arguments": [
        "(0xc4660f40BA6Fe89b3BA7Ded44Cf1DB73D731c95e, 2000000, (0xc4660f40BA6Fe89b3BA7Ded44Cf1DB73D731c95e, 0xdB140B58D6E3988F5C453E192295748c1438d8D4, 2000000, 1761393982, 28, 0xac8e5156d3f73b5f491edde63827063a31963118e7239dbe0d2cf69ddf597b95, 0x0c78addb1bc1cc52c61673f07cf86b6f6ffcad6e629c6f8af209cff3357b4547), 0xc4660f40BA6Fe89b3BA7Ded44Cf1DB73D731c95e, 2, 1761393982)",
        "0x9d27c3722539db92051ddcb9bf6a65b4756601e741cc9804918540aafc79ef6801a1f69ac95a7ab0666e5a9b215ffae1e484407170c0590cdc43575dbe2953ec1b"
      ],
      "transaction": {
        "from": "0xc4660f40ba6fe89b3ba7ded44cf1db73d731c95e",
        "to": "0xdb140b58d6e3988f5c453e192295748c1438d8d4",
        "gas": "0x5ee88",
        "value": "0x0",
        "input": "0x2b8eeba5000000000000000000000000c4660f40ba6fe89b3ba7ded44cf1db73d731c95e00000000000000000000000000000000000000000000000000000000001e8480000000000000000000000000c4660f40ba6fe89b3ba7ded44cf1db73d731c95e000000000000000000000000db140b58d6e3988f5c453e192295748c1438d8d400000000000000000000000000000000000000000000000000000000001e84800000000000000000000000000000000000000000000000000000000068fcbd3e000000000000000000000000000000000000000000000000000000000000001cac8e5156d3f73b5f491edde63827063a31963118e7239dbe0d2cf69ddf597b950c78addb1bc1cc52c61673f07cf86b6f6ffcad6e629c6f8af209cff3357b4547000000000000000000000000c4660f40ba6fe89b3ba7ded44cf1db73d731c95e00000000000000000000000000000000000000000000000000000000000000020000000000000000000000000000000000000000000000000000000068fcbd3e00000000000000000000000000000000000000000000000000000000000001a000000000000000000000000000000000000000000000000000000000000000419d27c3722539db92051ddcb9bf6a65b4756601e741cc9804918540aafc79ef6801a1f69ac95a7ab0666e5a9b215ffae1e484407170c0590cdc43575dbe2953ec1b00000000000000000000000000000000000000000000000000000000000000",
        "nonce": "0x2d",
        "chainId": "0xa4b1"
      },
      "additionalContracts": [],
      "isFixedGasLimit": false
    }
  ],
  "receipts": [
    {
      "status": "0x1",
      "cumulativeGasUsed": "0x44057",
      "logs": [
        {
          "address": "0xaf88d065e77c8cc2239327c5edb3a432268e5831",
          "topics": [
            "0x8c5be1e5ebec7d5bd14f71427d1e84f3dd0314c0f7b2291e5b200ac8c7c3b925",
            "0x000000000000000000000000c4660f40ba6fe89b3ba7ded44cf1db73d731c95e",
            "0x000000000000000000000000db140b58d6e3988f5c453e192295748c1438d8d4"
          ],
          "data": "0x00000000000000000000000000000000000000000000000000000000001e8480",
          "blockHash": "0xe223530592ef5b7c720a09ba322342cb8cd6b9ef8f2aa593ede2fd956997cac8",
          "blockNumber": "0x1770274c",
          "blockTimestamp": "0x68fcaf3a",
          "transactionHash": "0x71b290be8e62c91678471d87d75af361a2e7ce81227a5791d51d769c03471751",
          "transactionIndex": "0x1",
          "logIndex": "0x0",
          "removed": false
        },
        {
          "address": "0xaf88d065e77c8cc2239327c5edb3a432268e5831",
          "topics": [
            "0xddf252ad1be2c89b69c2b068fc378daa952ba7f163c4a11628f55a4df523b3ef",
            "0x000000000000000000000000c4660f40ba6fe89b3ba7ded44cf1db73d731c95e",
            "0x000000000000000000000000db140b58d6e3988f5c453e192295748c1438d8d4"
          ],
          "data": "0x00000000000000000000000000000000000000000000000000000000001e8480",
          "blockHash": "0xe223530592ef5b7c720a09ba322342cb8cd6b9ef8f2aa593ede2fd956997cac8",
          "blockNumber": "0x1770274c",
          "blockTimestamp": "0x68fcaf3a",
          "transactionHash": "0x71b290be8e62c91678471d87d75af361a2e7ce81227a5791d51d769c03471751",
          "transactionIndex": "0x1",
          "logIndex": "0x1",
          "removed": false
        },
        {
          "address": "0xdb140b58d6e3988f5c453e192295748c1438d8d4",
          "topics": [
            "0xddf252ad1be2c89b69c2b068fc378daa952ba7f163c4a11628f55a4df523b3ef",
            "0x0000000000000000000000000000000000000000000000000000000000000000",
            "0x000000000000000000000000c4660f40ba6fe89b3ba7ded44cf1db73d731c95e",
            "0x0000000000000000000000000000000000000000000000000000000000000003"
          ],
          "data": "0x",
          "blockHash": "0xe223530592ef5b7c720a09ba322342cb8cd6b9ef8f2aa593ede2fd956997cac8",
          "blockNumber": "0x1770274c",
          "blockTimestamp": "0x68fcaf3a",
          "transactionHash": "0x71b290be8e62c91678471d87d75af361a2e7ce81227a5791d51d769c03471751",
          "transactionIndex": "0x1",
          "logIndex": "0x2",
          "removed": false
        },
        {
          "address": "0xdb140b58d6e3988f5c453e192295748c1438d8d4",
          "topics": [
            "0xe4f48c240d3b994948aa54f3e2f5fca59263dfe1d52b6e4cf39a5d249b5ccb65",
            "0x0000000000000000000000000000000000000000000000000000000000000003",
            "0x0000000000000000000000000000000000000000000000000000000000000000",
            "0x0000000000000000000000000000000000000000000000000000000000000000"
          ],
          "data": "0x",
          "blockHash": "0xe223530592ef5b7c720a09ba322342cb8cd6b9ef8f2aa593ede2fd956997cac8",
          "blockNumber": "0x1770274c",
          "blockTimestamp": "0x68fcaf3a",
          "transactionHash": "0x71b290be8e62c91678471d87d75af361a2e7ce81227a5791d51d769c03471751",
          "transactionIndex": "0x1",
          "logIndex": "0x3",
          "removed": false
        },
        {
          "address": "0xdb140b58d6e3988f5c453e192295748c1438d8d4",
          "topics": [
            "0x0b2aac84f3ec956911fd78eae5311062972ff949f38412e8da39069d9f068cc6",
            "0x0000000000000000000000000000000000000000000000000000000000000000",
            "0x0000000000000000000000000000000000000000000000000000000000000003"
          ],
          "data": "0x00000000000000000000000000000000000000000000000000000000001e8480",
          "blockHash": "0xe223530592ef5b7c720a09ba322342cb8cd6b9ef8f2aa593ede2fd956997cac8",
          "blockNumber": "0x1770274c",
          "blockTimestamp": "0x68fcaf3a",
          "transactionHash": "0x71b290be8e62c91678471d87d75af361a2e7ce81227a5791d51d769c03471751",
          "transactionIndex": "0x1",
          "logIndex": "0x4",
          "removed": false
        },
        {
          "address": "0xdb140b58d6e3988f5c453e192295748c1438d8d4",
          "topics": [
            "0xfd1ba5519feb014ad2f631cbd516bd3cec96be935749391554d122972593e7bf",
            "0x000000000000000000000000c4660f40ba6fe89b3ba7ded44cf1db73d731c95e",
            "0x000000000000000000000000c4660f40ba6fe89b3ba7ded44cf1db73d731c95e"
          ],
          "data": "0x00000000000000000000000000000000000000000000000000000000001e8480",
          "blockHash": "0xe223530592ef5b7c720a09ba322342cb8cd6b9ef8f2aa593ede2fd956997cac8",
          "blockNumber": "0x1770274c",
          "blockTimestamp": "0x68fcaf3a",
          "transactionHash": "0x71b290be8e62c91678471d87d75af361a2e7ce81227a5791d51d769c03471751",
          "transactionIndex": "0x1",
          "logIndex": "0x5",
          "removed": false
        }
      ],
      "logsBloom": "0x00000000000000000000000000000000000000000000001000000000000000000000000000000000000000000000000020000001020000000000000000200000000000000000000000000008000000000000000100000000000000000000000000000000020000000000000000000800000000000000000000001010000000000000000000000010400000000000000000008000000000000000040000000000020000000000000000000000200002000000000000800000000000000000400000002002100000000002000004000000000000000040008000000000000020000010000000000000000100000000200200000000000001000000000000000000",
      "type": "0x2",
      "transactionHash": "0x71b290be8e62c91678471d87d75af361a2e7ce81227a5791d51d769c03471751",
      "transactionIndex": "0x1",
      "blockHash": "0xe223530592ef5b7c720a09ba322342cb8cd6b9ef8f2aa593ede2fd956997cac8",
      "blockNumber": "0x1770274c",
      "gasUsed": "0x44057",
      "effectiveGasPrice": "0x989680",
      "from": "0xc4660f40ba6fe89b3ba7ded44cf1db73d731c95e",
      "to": "0xdb140b58d6e3988f5c453e192295748c1438d8d4",
      "contractAddress": null,
      "gasUsedForL1": "0x47a",
      "l1BlockNumber": "0x168eeb1",
      "timeboosted": false
    }
  ],
  "libraries": [],
  "pending": [],
  "returns": {},
  "timestamp": 1761390396,
  "chain": 42161,
  "commit": "8a6c67b"
}