{
  "transactions": [
    {
      "hash": "0xadda64c9945e3cf5070a01a047107fac201e8ec198fb16762e26d00b3e18f276",
      "transactionType": "CALL",
      "contractName": null,
      "contractAddress": "0x93d68b4c0793ff1d4d11f049f8682a1e256ac59d",
      "function": "mintWithSig((address,uint256,(address,address,uint256,uint256,uint8,bytes32,bytes32),address,uint256,uint256),bytes)",
      "arguments": [
        "(0xc4660f40BA6Fe89b3BA7Ded44Cf1DB73D731c95e, 1000000, (0xc4660f40BA6Fe89b3BA7Ded44Cf1DB73D731c95e, 0x93D68B4C0793fF1D4D11f049F8682a1e256aC59d, 1000000, 1761320985, 28, 0x0e03fb5dad08f07c37277809cb5517b52b0db0aeeafec2afbb06203c2ac59738, 0x2dfeafdf3c83eca155c6636acc42096c9a68ff930de0a971cee35f238e50bb0b), 0xc4660f40BA6Fe89b3BA7Ded44Cf1DB73D731c95e, 0, 1761320985)",
        "0xb40f938d7c504a435810312c08c212c03f251a7a5c7b2da1e59b6a47d92fc0854c464f2303bf1723e0aa6cf05bd1b98faa66515306a2c79de3b5c08f460c3e4f1b"
      ],
      "transaction": {
        "from": "0xc4660f40ba6fe89b3ba7ded44cf1db73d731c95e",
        "to": "0x93d68b4c0793ff1d4d11f049f8682a1e256ac59d",
        "gas": "0x7a315",
        "value": "0x0",
        "input": "0x2b8eeba5000000000000000000000000c4660f40ba6fe89b3ba7ded44cf1db73d731c95e00000000000000000000000000000000000000000000000000000000000f4240000000000000000000000000c4660f40ba6fe89b3ba7ded44cf1db73d731c95e00000000000000000000000093d68b4c0793ff1d4d11f049f8682a1e256ac59d00000000000000000000000000000000000000000000000000000000000f42400000000000000000000000000000000000000000000000000000000068fba019000000000000000000000000000000000000000000000000000000000000001c0e03fb5dad08f07c37277809cb5517b52b0db0aeeafec2afbb06203c2ac597382dfeafdf3c83eca155c6636acc42096c9a68ff930de0a971cee35f238e50bb0b000000000000000000000000c4660f40ba6fe89b3ba7ded44cf1db73d731c95e00000000000000000000000000000000000000000000000000000000000000000000000000000000000000000000000000000000000000000000000068fba01900000000000000000000000000000000000000000000000000000000000001a00000000000000000000000000000000000000000000000000000000000000041b40f938d7c504a435810312c08c212c03f251a7a5c7b2da1e59b6a47d92fc0854c464f2303bf1723e0aa6cf05bd1b98faa66515306a2c79de3b5c08f460c3e4f1b00000000000000000000000000000000000000000000000000000000000000",
        "nonce": "0x2",
        "chainId": "0xa4b1"
      },
      "additionalContracts": [],
      "isFixedGasLimit": false
    }
  ],
  "receipts": [
    {
      "status": "0x1",
      "cumulativeGasUsed": "0x3b2370",
      "logs": [
        {
          "address": "0xaf88d065e77c8cc2239327c5edb3a432268e5831",
          "topics": [
            "0x8c5be1e5ebec7d5bd14f71427d1e84f3dd0314c0f7b2291e5b200ac8c7c3b925",
            "0x000000000000000000000000c4660f40ba6fe89b3ba7ded44cf1db73d731c95e",
            "0x00000000000000000000000093d68b4c0793ff1d4d11f049f8682a1e256ac59d"
          ],
          "data": "0x00000000000000000000000000000000000000000000000000000000000f4240",
          "blockHash": "0x34035e93a55c2f83d15927033545bf400262a84f55d3fb3af5c6a394117bed71",
          "blockNumber": "0x176bb1ff",
          "transactionHash": "0xadda64c9945e3cf5070a01a047107fac201e8ec198fb16762e26d00b3e18f276",
          "transactionIndex": "0xa",
          "logIndex": "0x21",
          "removed": false
        },
        {
          "address": "0xaf88d065e77c8cc2239327c5edb3a432268e5831",
          "topics": [
            "0xddf252ad1be2c89b69c2b068fc378daa952ba7f163c4a11628f55a4df523b3ef",
            "0x000000000000000000000000c4660f40ba6fe89b3ba7ded44cf1db73d731c95e",
            "0x00000000000000000000000093d68b4c0793ff1d4d11f049f8682a1e256ac59d"
          ],
          "data": "0x00000000000000000000000000000000000000000000000000000000000f4240",
          "blockHash": "0x34035e93a55c2f83d15927033545bf400262a84f55d3fb3af5c6a394117bed71",
          "blockNumber": "0x176bb1ff",
          "transactionHash": "0xadda64c9945e3cf5070a01a047107fac201e8ec198fb16762e26d00b3e18f276",
          "transactionIndex": "0xa",
          "logIndex": "0x22",
          "removed": false
        },
        {
          "address": "0x93d68b4c0793ff1d4d11f049f8682a1e256ac59d",
          "topics": [
            "0xddf252ad1be2c89b69c2b068fc378daa952ba7f163c4a11628f55a4df523b3ef",
            "0x0000000000000000000000000000000000000000000000000000000000000000",
            "0x000000000000000000000000c4660f40ba6fe89b3ba7ded44cf1db73d731c95e",
            "0x0000000000000000000000000000000000000000000000000000000000000001"
          ],
          "data": "0x",
          "blockHash": "0x34035e93a55c2f83d15927033545bf400262a84f55d3fb3af5c6a394117bed71",
          "blockNumber": "0x176bb1ff",
          "transactionHash": "0xadda64c9945e3cf5070a01a047107fac201e8ec198fb16762e26d00b3e18f276",
          "transactionIndex": "0xa",
          "logIndex": "0x23",
          "removed": false
        },
        {
          "address": "0x93d68b4c0793ff1d4d11f049f8682a1e256ac59d",
          "topics": [
            "0xe4f48c240d3b994948aa54f3e2f5fca59263dfe1d52b6e4cf39a5d249b5ccb65",
            "0x0000000000000000000000000000000000000000000000000000000000000001",
            "0x0000000000000000000000000000000000000000000000000000000000000000",
            "0x0000000000000000000000000000000000000000000000000000000000000000"
          ],
          "data": "0x",
          "blockHash": "0x34035e93a55c2f83d15927033545bf400262a84f55d3fb3af5c6a394117bed71",
          "blockNumber": "0x176bb1ff",
          "transactionHash": "0xadda64c9945e3cf5070a01a047107fac201e8ec198fb16762e26d00b3e18f276",
          "transactionIndex": "0xa",
          "logIndex": "0x24",
          "removed": false
        },
        {
          "address": "0x93d68b4c0793ff1d4d11f049f8682a1e256ac59d",
          "topics": [
            "0x0b2aac84f3ec956911fd78eae5311062972ff949f38412e8da39069d9f068cc6",
            "0x0000000000000000000000000000000000000000000000000000000000000000",
            "0x0000000000000000000000000000000000000000000000000000000000000001"
          ],
          "data": "0x00000000000000000000000000000000000000000000000000000000000f4240",
          "blockHash": "0x34035e93a55c2f83d15927033545bf400262a84f55d3fb3af5c6a394117bed71",
          "blockNumber": "0x176bb1ff",
          "transactionHash": "0xadda64c9945e3cf5070a01a047107fac201e8ec198fb16762e26d00b3e18f276",
          "transactionIndex": "0xa",
          "logIndex": "0x25",
          "removed": false
        },
        {
          "address": "0x93d68b4c0793ff1d4d11f049f8682a1e256ac59d",
          "topics": [
            "0xfd1ba5519feb014ad2f631cbd516bd3cec96be935749391554d122972593e7bf",
            "0x000000000000000000000000c4660f40ba6fe89b3ba7ded44cf1db73d731c95e",
            "0x000000000000000000000000c4660f40ba6fe89b3ba7ded44cf1db73d731c95e"
          ],
          "data": "0x00000000000000000000000000000000000000000000000000000000000f4240",
          "blockHash": "0x34035e93a55c2f83d15927033545bf400262a84f55d3fb3af5c6a394117bed71",
          "blockNumber": "0x176bb1ff",
          "transactionHash": "0xadda64c9945e3cf5070a01a047107fac201e8ec198fb16762e26d00b3e18f276",
          "transactionIndex": "0xa",
          "logIndex": "0x26",
          "removed": false
        }
      ],
      "logsBloom": "0x00000000000000000000000000000000000000000000001000000000000000000000000000000000000000000040000020000001000000000000000000240000000000000000004000000008000000000000000000040000020000000000000000000000020000000000000000000800000000000000000000001010000000000000000000000000400000000000000000000000000000000000040000000000020000000000000000000000000002000000000000000000000000000000000000002002100000000002000000000000000000000000008000000000000060100010000000020000000100000000200200000000000001000000000000000000",
      "type": "0x2",
      "transactionHash": "0xadda64c9945e3cf5070a01a047107fac201e8ec198fb16762e26d00b3e18f276",
      "transactionIndex": "0xa",
      "blockHash": "0x34035e93a55c2f83d15927033545bf400262a84f55d3fb3af5c6a394117bed71",
      "blockNumber": "0x176bb1ff",
      "gasUsed": "0x575f8",
      "effectiveGasPrice": "0x989680",
      "from": "0xc4660f40ba6fe89b3ba7ded44cf1db73d731c95e",
      "to": "0x93d68b4c0793ff1d4d11f049f8682a1e256ac59d",
      "contractAddress": null,
      "gasUsedForL1": "0x839e",
      "l1BlockNumber": "0x168d71a",
      "timeboosted": false
    }
  ],
  "libraries": [],
  "pending": [],
  "returns": {},
  "timestamp": 1761317404,
  "chain": 42161,
  "commit": "5460833"
}