{
  "transactions": [
    {
      "hash": "0xb6e45ee2ebbbfc26b4a72e0dd1c40bceec02e27ddde7cb3f1bfcbd8d5f372a61",
      "transactionType": "CALL",
      "contractName": null,
      "contractAddress": "0x253e967e787d58e2dc76c5ff0db4ab0620664145",
      "function": "mintWithSig((address,uint256,(address,address,uint256,uint256,uint8,bytes32,bytes32),address,uint256,uint256),bytes)",
      "arguments": [
        "(0xc4660f40BA6Fe89b3BA7Ded44Cf1DB73D731c95e, 2000000, (0xc4660f40BA6Fe89b3BA7Ded44Cf1DB73D731c95e, 0x253e967e787D58E2Dc76C5FF0dB4ab0620664145, 2000000, 1761337850, 28, 0xa728e4ccef2a3660a248b09b34d4a0af961773c58ef7e4e57847e447af09b68a, 0x3973378d64783c5f50b6eac4111870d62650ece26517f753aea430a0ff5d0d06), 0xc4660f40BA6Fe89b3BA7Ded44Cf1DB73D731c95e, 0, 1761337850)",
        "0x6ed25c1552af6935913b892b911a73c9fbf4a9f630e812b098b2ca79908dabe52f1171bbee8fd67596d3245315c000ff721ed97f5fde3e459e7273b94e24c2271c"
      ],
      "transaction": {
        "from": "0xc4660f40ba6fe89b3ba7ded44cf1db73d731c95e",
        "to": "0x253e967e787d58e2dc76c5ff0db4ab0620664145",
        "gas": "0x683df",
        "value": "0x0",
        "input": "0x2b8eeba5000000000000000000000000c4660f40ba6fe89b3ba7ded44cf1db73d731c95e00000000000000000000000000000000000000000000000000000000001e8480000000000000000000000000c4660f40ba6fe89b3ba7ded44cf1db73d731c95e000000000000000000000000253e967e787d58e2dc76c5ff0db4ab062066414500000000000000000000000000000000000000000000000000000000001e84800000000000000000000000000000000000000000000000000000000068fbe1fa000000000000000000000000000000000000000000000000000000000000001ca728e4ccef2a3660a248b09b34d4a0af961773c58ef7e4e57847e447af09b68a3973378d64783c5f50b6eac4111870d62650ece26517f753aea430a0ff5d0d06000000000000000000000000c4660f40ba6fe89b3ba7ded44cf1db73d731c95e00000000000000000000000000000000000000000000000000000000000000000000000000000000000000000000000000000000000000000000000068fbe1fa00000000000000000000000000000000000000000000000000000000000001a000000000000000000000000000000000000000000000000000000000000000416ed25c1552af6935913b892b911a73c9fbf4a9f630e812b098b2ca79908dabe52f1171bbee8fd67596d3245315c000ff721ed97f5fde3e459e7273b94e24c2271c00000000000000000000000000000000000000000000000000000000000000",
        "nonce": "0x21",
        "chainId": "0xa4b1"
      },
      "additionalContracts": [],
      "isFixedGasLimit": false
    }
  ],
  "receipts": [
    {
      "status": "0x1",
      "cumulativeGasUsed": "0x56698",
      "logs": [
        {
          "address": "0xaf88d065e77c8cc2239327c5edb3a432268e5831",
          "topics": [
            "0x8c5be1e5ebec7d5bd14f71427d1e84f3dd0314c0f7b2291e5b200ac8c7c3b925",
            "0x000000000000000000000000c4660f40ba6fe89b3ba7ded44cf1db73d731c95e",
            "0x000000000000000000000000253e967e787d58e2dc76c5ff0db4ab0620664145"
          ],
          "data": "0x00000000000000000000000000000000000000000000000000000000001e8480",
          "blockHash": "0x9e08170da1a0a19525c61d185e852cbf49a83fcc7e671263c8133e20ecad0f12",
          "blockNumber": "0x176cb9d3",
          "transactionHash": "0xb6e45ee2ebbbfc26b4a72e0dd1c40bceec02e27ddde7cb3f1bfcbd8d5f372a61",
          "transactionIndex": "0x2",
          "logIndex": "0x0",
          "removed": false
        },
        {
          "address": "0xaf88d065e77c8cc2239327c5edb3a432268e5831",
          "topics": [
            "0xddf252ad1be2c89b69c2b068fc378daa952ba7f163c4a11628f55a4df523b3ef",
            "0x000000000000000000000000c4660f40ba6fe89b3ba7ded44cf1db73d731c95e",
            "0x000000000000000000000000253e967e787d58e2dc76c5ff0db4ab0620664145"
          ],
          "data": "0x00000000000000000000000000000000000000000000000000000000001e8480",
          "blockHash": "0x9e08170da1a0a19525c61d185e852cbf49a83fcc7e671263c8133e20ecad0f12",
          "blockNumber": "0x176cb9d3",
          "transactionHash": "0xb6e45ee2ebbbfc26b4a72e0dd1c40bceec02e27ddde7cb3f1bfcbd8d5f372a61",
          "transactionIndex": "0x2",
          "logIndex": "0x1",
          "removed": false
        },
        {
          "address": "0x253e967e787d58e2dc76c5ff0db4ab0620664145",
          "topics": [
            "0xddf252ad1be2c89b69c2b068fc378daa952ba7f163c4a11628f55a4df523b3ef",
            "0x0000000000000000000000000000000000000000000000000000000000000000",
            "0x000000000000000000000000c4660f40ba6fe89b3ba7ded44cf1db73d731c95e",
            "0x0000000000000000000000000000000000000000000000000000000000000001"
          ],
          "data": "0x",
          "blockHash": "0x9e08170da1a0a19525c61d185e852cbf49a83fcc7e671263c8133e20ecad0f12",
          "blockNumber": "0x176cb9d3",
          "transactionHash": "0xb6e45ee2ebbbfc26b4a72e0dd1c40bceec02e27ddde7cb3f1bfcbd8d5f372a61",
          "transactionIndex": "0x2",
          "logIndex": "0x2",
          "removed": false
        },
        {
          "address": "0x253e967e787d58e2dc76c5ff0db4ab0620664145",
          "topics": [
            "0xe4f48c240d3b994948aa54f3e2f5fca59263dfe1d52b6e4cf39a5d249b5ccb65",
            "0x0000000000000000000000000000000000000000000000000000000000000001",
            "0x0000000000000000000000000000000000000000000000000000000000000000",
            "0x0000000000000000000000000000000000000000000000000000000000000000"
          ],
          "data": "0x",
          "blockHash": "0x9e08170da1a0a19525c61d185e852cbf49a83fcc7e671263c8133e20ecad0f12",
          "blockNumber": "0x176cb9d3",
          "transactionHash": "0xb6e45ee2ebbbfc26b4a72e0dd1c40bceec02e27ddde7cb3f1bfcbd8d5f372a61",
          "transactionIndex": "0x2",
          "logIndex": "0x3",
          "removed": false
        },
        {
          "address": "0x253e967e787d58e2dc76c5ff0db4ab0620664145",
          "topics": [
            "0x0b2aac84f3ec956911fd78eae5311062972ff949f38412e8da39069d9f068cc6",
            "0x0000000000000000000000000000000000000000000000000000000000000000",
            "0x0000000000000000000000000000000000000000000000000000000000000001"
          ],
          "data": "0x00000000000000000000000000000000000000000000000000000000001e8480",
          "blockHash": "0x9e08170da1a0a19525c61d185e852cbf49a83fcc7e671263c8133e20ecad0f12",
          "blockNumber": "0x176cb9d3",
          "transactionHash": "0xb6e45ee2ebbbfc26b4a72e0dd1c40bceec02e27ddde7cb3f1bfcbd8d5f372a61",
          "transactionIndex": "0x2",
          "logIndex": "0x4",
          "removed": false
        },
        {
          "address": "0x253e967e787d58e2dc76c5ff0db4ab0620664145",
          "topics": [
            "0xfd1ba5519feb014ad2f631cbd516bd3cec96be935749391554d122972593e7bf",
            "0x000000000000000000000000c4660f40ba6fe89b3ba7ded44cf1db73d731c95e",
            "0x000000000000000000000000c4660f40ba6fe89b3ba7ded44cf1db73d731c95e"
          ],
          "data": "0x00000000000000000000000000000000000000000000000000000000001e8480",
          "blockHash": "0x9e08170da1a0a19525c61d185e852cbf49a83fcc7e671263c8133e20ecad0f12",
          "blockNumber": "0x176cb9d3",
          "transactionHash": "0xb6e45ee2ebbbfc26b4a72e0dd1c40bceec02e27ddde7cb3f1bfcbd8d5f372a61",
          "transactionIndex": "0x2",
          "logIndex": "0x5",
          "removed": false
        }
      ],
      "logsBloom": "0x00000002000000000000000000000000000000000000001000000000000000000000000000000000000000000000000020000001000000000000000000240000000000000000000000000008000000000000000000040000200000000000000000000000020000000000000000000800000000000000000000001010000000000000000000000000400000000000000000000000000000000000040000000000020400000000000000000000000002000000000000800000000000000000040000002002100000000002000000000000000000000000008000000000000060000010000000000000000100000000200208000000000001000000000000000000",
      "type": "0x2",
      "transactionHash": "0xb6e45ee2ebbbfc26b4a72e0dd1c40bceec02e27ddde7cb3f1bfcbd8d5f372a61",
      "transactionIndex": "0x2",
      "blockHash": "0x9e08170da1a0a19525c61d185e852cbf49a83fcc7e671263c8133e20ecad0f12",
      "blockNumber": "0x176cb9d3",
      "gasUsed": "0x4b223",
      "effectiveGasPrice": "0x989680",
      "from": "0xc4660f40ba6fe89b3ba7ded44cf1db73d731c95e",
      "to": "0x253e967e787d58e2dc76c5ff0db4ab0620664145",
      "contractAddress": null,
      "gasUsedForL1": "0x2a1",
      "l1BlockNumber": "0x168dc8d",
      "timeboosted": false
    }
  ],
  "libraries": [],
  "pending": [],
  "returns": {},
  "timestamp": 1761334264,
  "chain": 42161,
  "commit": "27e81f6"
}