{
  "transactions": [
    {
      "hash": "0xef155233196e1ca73e6435dc4cc6bf027d6e138f61bf11ae50750bf063fa4e4f",
      "transactionType": "CALL",
      "contractName": null,
      "contractAddress": "0xdb140b58d6e3988f5c453e192295748c1438d8d4",
      "function": "mintWithSig((address,uint256,(address,address,uint256,uint256,uint8,bytes32,bytes32),address,uint256,uint256),bytes)",
      "arguments": [
        "(0xc4660f40BA6Fe89b3BA7Ded44Cf1DB73D731c95e, 2000000, (0xc4660f40BA6Fe89b3BA7Ded44Cf1DB73D731c95e, 0xdB140B58D6E3988F5C453E192295748c1438d8D4, 2000000, 1761397409, 27, 0x1ae2e2365d434363b2d4be122dd6379580f215f527f45d1212978e4dea102250, 0x192c58e4be8ad0d469b65397ec04dcba3c79fdf51f12f750aa8a3d8d3692139d), 0xC753b713A574bBeFDC496DBD6959c217F49D4bf8, 3, 1761397409)",
        "0xc340a274e5d7640940db91d4fc8b049cf7b21ae55abda1147aaeea11f4b3b0eb28bbb78677dcbca6f77c95cad146bf595281fef4d0492b2ba780ff5620890ba41c"
      ],
      "transaction": {
        "from": "0xc4660f40ba6fe89b3ba7ded44cf1db73d731c95e",
        "to": "0xdb140b58d6e3988f5c453e192295748c1438d8d4",
        "gas": "0x657d6",
        "value": "0x0",
        "input": "0x2b8eeba5000000000000000000000000c4660f40ba6fe89b3ba7ded44cf1db73d731c95e00000000000000000000000000000000000000000000000000000000001e8480000000000000000000000000c4660f40ba6fe89b3ba7ded44cf1db73d731c95e000000000000000000000000db140b58d6e3988f5c453e192295748c1438d8d400000000000000000000000000000000000000000000000000000000001e84800000000000000000000000000000000000000000000000000000000068fccaa1000000000000000000000000000000000000000000000000000000000000001b1ae2e2365d434363b2d4be122dd6379580f215f527f45d1212978e4dea102250192c58e4be8ad0d469b65397ec04dcba3c79fdf51f12f750aa8a3d8d3692139d000000000000000000000000c753b713a574bbefdc496dbd6959c217f49d4bf800000000000000000000000000000000000000000000000000000000000000030000000000000000000000000000000000000000000000000000000068fccaa100000000000000000000000000000000000000000000000000000000000001a00000000000000000000000000000000000000000000000000000000000000041c340a274e5d7640940db91d4fc8b049cf7b21ae55abda1147aaeea11f4b3b0eb28bbb78677dcbca6f77c95cad146bf595281fef4d0492b2ba780ff5620890ba41c00000000000000000000000000000000000000000000000000000000000000",
        "nonce": "0x32",
        "chainId": "0xa4b1"
      },
      "additionalContracts": [],
      "isFixedGasLimit": false
    }
  ],
  "receipts": [
    {
      "status": "0x1",
      "cumulativeGasUsed": "0x75c90",
      "logs": [
        {
          "address": "0xaf88d065e77c8cc2239327c5edb3a432268e5831",
          "topics": [
            "0x8c5be1e5ebec7d5bd14f71427d1e84f3dd0314c0f7b2291e5b200ac8c7c3b925",
            "0x000000000000000000000000c4660f40ba6fe89b3ba7ded44cf1db73d731c95e",
            "0x000000000000000000000000db140b58d6e3988f5c453e192295748c1438d8d4"
          ],
          "data": "0x00000000000000000000000000000000000000000000000000000000001e8480",
          "blockHash": "0xb7db474ae3e6345a7f759ec741553c56d5f75bf6f595ddb498278a69bfbe0270",
          "blockNumber": "0x17705ce2",
          "transactionHash": "0xef155233196e1ca73e6435dc4cc6bf027d6e138f61bf11ae50750bf063fa4e4f",
          "transactionIndex": "0x4",
          "logIndex": "0x1",
          "removed": false
        },
        {
          "address": "0xaf88d065e77c8cc2239327c5edb3a432268e5831",
          "topics": [
            "0xddf252ad1be2c89b69c2b068fc378daa952ba7f163c4a11628f55a4df523b3ef",
            "0x000000000000000000000000c4660f40ba6fe89b3ba7ded44cf1db73d731c95e",
            "0x000000000000000000000000db140b58d6e3988f5c453e192295748c1438d8d4"
          ],
          "data": "0x00000000000000000000000000000000000000000000000000000000001e8480",
          "blockHash": "0xb7db474ae3e6345a7f759ec741553c56d5f75bf6f595ddb498278a69bfbe0270",
          "blockNumber": "0x17705ce2",
          "transactionHash": "0xef155233196e1ca73e6435dc4cc6bf027d6e138f61bf11ae50750bf063fa4e4f",
          "transactionIndex": "0x4",
          "logIndex": "0x2",
          "removed": false
        },
        {
          "address": "0xdb140b58d6e3988f5c453e192295748c1438d8d4",
          "topics": [
            "0xddf252ad1be2c89b69c2b068fc378daa952ba7f163c4a11628f55a4df523b3ef",
            "0x0000000000000000000000000000000000000000000000000000000000000000",
            "0x000000000000000000000000c4660f40ba6fe89b3ba7ded44cf1db73d731c95e",
            "0x0000000000000000000000000000000000000000000000000000000000000004"
          ],
          "data": "0x",
          "blockHash": "0xb7db474ae3e6345a7f759ec741553c56d5f75bf6f595ddb498278a69bfbe0270",
          "blockNumber": "0x17705ce2",
          "transactionHash": "0xef155233196e1ca73e6435dc4cc6bf027d6e138f61bf11ae50750bf063fa4e4f",
          "transactionIndex": "0x4",
          "logIndex": "0x3",
          "removed": false
        },
        {
          "address": "0xdb140b58d6e3988f5c453e192295748c1438d8d4",
          "topics": [
            "0xe4f48c240d3b994948aa54f3e2f5fca59263dfe1d52b6e4cf39a5d249b5ccb65",
            "0x0000000000000000000000000000000000000000000000000000000000000004",
            "0x0000000000000000000000000000000000000000000000000000000000000000",
            "0x0000000000000000000000000000000000000000000000000000000000000000"
          ],
          "data": "0x",
          "blockHash": "0xb7db474ae3e6345a7f759ec741553c56d5f75bf6f595ddb498278a69bfbe0270",
          "blockNumber": "0x17705ce2",
          "transactionHash": "0xef155233196e1ca73e6435dc4cc6bf027d6e138f61bf11ae50750bf063fa4e4f",
          "transactionIndex": "0x4",
          "logIndex": "0x4",
          "removed": false
        },
        {
          "address": "0xdb140b58d6e3988f5c453e192295748c1438d8d4",
          "topics": [
            "0x0b2aac84f3ec956911fd78eae5311062972ff949f38412e8da39069d9f068cc6",
            "0x0000000000000000000000000000000000000000000000000000000000000000",
            "0x0000000000000000000000000000000000000000000000000000000000000004"
          ],
          "data": "0x00000000000000000000000000000000000000000000000000000000001e8480",
          "blockHash": "0xb7db474ae3e6345a7f759ec741553c56d5f75bf6f595ddb498278a69bfbe0270",
          "blockNumber": "0x17705ce2",
          "transactionHash": "0xef155233196e1ca73e6435dc4cc6bf027d6e138f61bf11ae50750bf063fa4e4f",
          "transactionIndex": "0x4",
          "logIndex": "0x5",
          "removed": false
        },
        {
          "address": "0xdb140b58d6e3988f5c453e192295748c1438d8d4",
          "topics": [
            "0xfd1ba5519feb014ad2f631cbd516bd3cec96be935749391554d122972593e7bf",
            "0x000000000000000000000000c4660f40ba6fe89b3ba7ded44cf1db73d731c95e",
            "0x000000000000000000000000c753b713a574bbefdc496dbd6959c217f49d4bf8"
          ],
          "data": "0x00000000000000000000000000000000000000000000000000000000001e8480",
          "blockHash": "0xb7db474ae3e6345a7f759ec741553c56d5f75bf6f595ddb498278a69bfbe0270",
          "blockNumber": "0x17705ce2",
          "transactionHash": "0xef155233196e1ca73e6435dc4cc6bf027d6e138f61bf11ae50750bf063fa4e4f",
          "transactionIndex": "0x4",
          "logIndex": "0x6",
          "removed": false
        }
      ],
      "logsBloom": "0x00000000000000000000000000000000000000000000001000000000000000000000000000000000000000000000000020000001000000000000000000200000000000000000000000000008000000000000000100000000000000000000000008000000020000000000000000000800000000000000000000001010000000000000000000000010480000000000000000008000000000200000040000000000020000000000000000000000200002000000000000000000002000000000000000002002100000000002000004100000000000008040008000000000000020000010000000000000000100000000200200000000000001000000000000000000",
      "type": "0x2",
      "transactionHash": "0xef155233196e1ca73e6435dc4cc6bf027d6e138f61bf11ae50750bf063fa4e4f",
      "transactionIndex": "0x4",
      "blockHash": "0xb7db474ae3e6345a7f759ec741553c56d5f75bf6f595ddb498278a69bfbe0270",
      "blockNumber": "0x17705ce2",
      "gasUsed": "0x4906e",
      "effectiveGasPrice": "0x989680",
      "from": "0xc4660f40ba6fe89b3ba7ded44cf1db73d731c95e",
      "to": "0xdb140b58d6e3988f5c453e192295748c1438d8d4",
      "contractAddress": null,
      "gasUsedForL1": "0x47b",
      "l1BlockNumber": "0x168efce",
      "timeboosted": false
    }
  ],
  "libraries": [],
  "pending": [],
  "returns": {},
  "timestamp": 1761393826,
  "chain": 42161,
  "commit": "8a6c67b"
}