{
  "transactions": [
    {
      "hash": "0x984ee4c93826f7776ceb3347b149a72b969d99ba64b1fd11e0e8db05a101455f",
      "transactionType": "CALL",
      "contractName": null,
      "contractAddress": "0xfa3a7bc5804b11c6779d847fc3d2b8f10e7d464e",
      "function": "mintWithSig((address,uint256,(address,address,uint256,uint256,uint8,bytes32,bytes32),address,uint256,uint256),bytes)",
      "arguments": [
        "(0xc4660f40BA6Fe89b3BA7Ded44Cf1DB73D731c95e, 1000000, (0xc4660f40BA6Fe89b3BA7Ded44Cf1DB73D731c95e, 0xfa3A7Bc5804b11c6779d847Fc3D2b8f10e7d464e, 1000000, 1761327739, 27, 0x1b086f3208c6312f9ca7a86fe23608cbe1aa09d316262e60c2078f3a8a17be53, 0x3788a940d4e034faf3dde1cabda542404155b8e5a4e94d63fe4e89a584a9f0f7), 0xc4660f40BA6Fe89b3BA7Ded44Cf1DB73D731c95e, 0, 1761327739)",
        "0x9df2646585e4ef2a70e648fe2ac31c450bc7683690f63cf0bd2701e18903871171c3f370a4c164045fcef4ec768fc9c07dbe765a22b7d98b1ade65ed0dbec7391b"
      ],
      "transaction": {
        "from": "0xc4660f40ba6fe89b3ba7ded44cf1db73d731c95e",
        "to": "0xfa3a7bc5804b11c6779d847fc3d2b8f10e7d464e",
        "gas": "0x68e9c",
        "value": "0x0",
        "input": "0x2b8eeba5000000000000000000000000c4660f40ba6fe89b3ba7ded44cf1db73d731c95e00000000000000000000000000000000000000000000000000000000000f4240000000000000000000000000c4660f40ba6fe89b3ba7ded44cf1db73d731c95e000000000000000000000000fa3a7bc5804b11c6779d847fc3d2b8f10e7d464e00000000000000000000000000000000000000000000000000000000000f42400000000000000000000000000000000000000000000000000000000068fbba7b000000000000000000000000000000000000000000000000000000000000001b1b086f3208c6312f9ca7a86fe23608cbe1aa09d316262e60c2078f3a8a17be533788a940d4e034faf3dde1cabda542404155b8e5a4e94d63fe4e89a584a9f0f7000000000000000000000000c4660f40ba6fe89b3ba7ded44cf1db73d731c95e00000000000000000000000000000000000000000000000000000000000000000000000000000000000000000000000000000000000000000000000068fbba7b00000000000000000000000000000000000000000000000000000000000001a000000000000000000000000000000000000000000000000000000000000000419df2646585e4ef2a70e648fe2ac31c450bc7683690f63cf0bd2701e18903871171c3f370a4c164045fcef4ec768fc9c07dbe765a22b7d98b1ade65ed0dbec7391b00000000000000000000000000000000000000000000000000000000000000",
        "nonce": "0xf",
        "chainId": "0xa4b1"
      },
      "additionalContracts": [],
      "isFixedGasLimit": false
    }
  ],
  "receipts": [
    {
      "status": "0x1",
      "cumulativeGasUsed": "0x6586b",
      "logs": [
        {
          "address": "0xaf88d065e77c8cc2239327c5edb3a432268e5831",
          "topics": [
            "0x8c5be1e5ebec7d5bd14f71427d1e84f3dd0314c0f7b2291e5b200ac8c7c3b925",
            "0x000000000000000000000000c4660f40ba6fe89b3ba7ded44cf1db73d731c95e",
            "0x000000000000000000000000fa3a7bc5804b11c6779d847fc3d2b8f10e7d464e"
          ],
          "data": "0x00000000000000000000000000000000000000000000000000000000000f4240",
          "blockHash": "0x66a43c42763573f7e8a05bd80b76e41b7e17f15f56287fbdac7e1129b088b125",
          "blockNumber": "0x176c1bba",
          "transactionHash": "0x984ee4c93826f7776ceb3347b149a72b969d99ba64b1fd11e0e8db05a101455f",
          "transactionIndex": "0x2",
          "logIndex": "0x0",
          "removed": false
        },
        {
          "address": "0xaf88d065e77c8cc2239327c5edb3a432268e5831",
          "topics": [
            "0xddf252ad1be2c89b69c2b068fc378daa952ba7f163c4a11628f55a4df523b3ef",
            "0x000000000000000000000000c4660f40ba6fe89b3ba7ded44cf1db73d731c95e",
            "0x000000000000000000000000fa3a7bc5804b11c6779d847fc3d2b8f10e7d464e"
          ],
          "data": "0x00000000000000000000000000000000000000000000000000000000000f4240",
          "blockHash": "0x66a43c42763573f7e8a05bd80b76e41b7e17f15f56287fbdac7e1129b088b125",
          "blockNumber": "0x176c1bba",
          "transactionHash": "0x984ee4c93826f7776ceb3347b149a72b969d99ba64b1fd11e0e8db05a101455f",
          "transactionIndex": "0x2",
          "logIndex": "0x1",
          "removed": false
        },
        {
          "address": "0xfa3a7bc5804b11c6779d847fc3d2b8f10e7d464e",
          "topics": [
            "0xddf252ad1be2c89b69c2b068fc378daa952ba7f163c4a11628f55a4df523b3ef",
            "0x0000000000000000000000000000000000000000000000000000000000000000",
            "0x000000000000000000000000c4660f40ba6fe89b3ba7ded44cf1db73d731c95e",
            "0x0000000000000000000000000000000000000000000000000000000000000001"
          ],
          "data": "0x",
          "blockHash": "0x66a43c42763573f7e8a05bd80b76e41b7e17f15f56287fbdac7e1129b088b125",
          "blockNumber": "0x176c1bba",
          "transactionHash": "0x984ee4c93826f7776ceb3347b149a72b969d99ba64b1fd11e0e8db05a101455f",
          "transactionIndex": "0x2",
          "logIndex": "0x2",
          "removed": false
        },
        {
          "address": "0xfa3a7bc5804b11c6779d847fc3d2b8f10e7d464e",
          "topics": [
            "0xe4f48c240d3b994948aa54f3e2f5fca59263dfe1d52b6e4cf39a5d249b5ccb65",
            "0x0000000000000000000000000000000000000000000000000000000000000001",
            "0x0000000000000000000000000000000000000000000000000000000000000000",
            "0x0000000000000000000000000000000000000000000000000000000000000000"
          ],
          "data": "0x",
          "blockHash": "0x66a43c42763573f7e8a05bd80b76e41b7e17f15f56287fbdac7e1129b088b125",
          "blockNumber": "0x176c1bba",
          "transactionHash": "0x984ee4c93826f7776ceb3347b149a72b969d99ba64b1fd11e0e8db05a101455f",
          "transactionIndex": "0x2",
          "logIndex": "0x3",
          "removed": false
        },
        {
          "address": "0xfa3a7bc5804b11c6779d847fc3d2b8f10e7d464e",
          "topics": [
            "0x0b2aac84f3ec956911fd78eae5311062972ff949f38412e8da39069d9f068cc6",
            "0x0000000000000000000000000000000000000000000000000000000000000000",
            "0x0000000000000000000000000000000000000000000000000000000000000001"
          ],
          "data": "0x00000000000000000000000000000000000000000000000000000000000f4240",
          "blockHash": "0x66a43c42763573f7e8a05bd80b76e41b7e17f15f56287fbdac7e1129b088b125",
          "blockNumber": "0x176c1bba",
          "transactionHash": "0x984ee4c93826f7776ceb3347b149a72b969d99ba64b1fd11e0e8db05a101455f",
          "transactionIndex": "0x2",
          "logIndex": "0x4",
          "removed": false
        },
        {
          "address": "0xfa3a7bc5804b11c6779d847fc3d2b8f10e7d464e",
          "topics": [
            "0xfd1ba5519feb014ad2f631cbd516bd3cec96be935749391554d122972593e7bf",
            "0x000000000000000000000000c4660f40ba6fe89b3ba7ded44cf1db73d731c95e",
            "0x000000000000000000000000c4660f40ba6fe89b3ba7ded44cf1db73d731c95e"
          ],
          "data": "0x00000000000000000000000000000000000000000000000000000000000f4240",
          "blockHash": "0x66a43c42763573f7e8a05bd80b76e41b7e17f15f56287fbdac7e1129b088b125",
          "blockNumber": "0x176c1bba",
          "transactionHash": "0x984ee4c93826f7776ceb3347b149a72b969d99ba64b1fd11e0e8db05a101455f",
          "transactionIndex": "0x2",
          "logIndex": "0x5",
          "removed": false
        }
      ],
      "logsBloom": "0x00000020000000000000000000000000000000000000001000000000000000000000000000000000000000000000000020000001000000000000008000240000000000000000000000000008000000000000000000440000000000000000000000000000020000000000000000000800000000000000000000001010000000000000000000000000400000000000000000000000000000000000040000000000020000000000000000000000000002000000000000000000000000000000000000003002100000000002000000000000000000000000008000000000000060000010000000000000200100000000200200200000000001000000000000000000",
      "type": "0x2",
      "transactionHash": "0x984ee4c93826f7776ceb3347b149a72b969d99ba64b1fd11e0e8db05a101455f",
      "transactionIndex": "0x2",
      "blockHash": "0x66a43c42763573f7e8a05bd80b76e41b7e17f15f56287fbdac7e1129b088b125",
      "blockNumber": "0x176c1bba",
      "gasUsed": "0x4b93f",
      "effectiveGasPrice": "0x989680",
      "from": "0xc4660f40ba6fe89b3ba7ded44cf1db73d731c95e",
      "to": "0xfa3a7bc5804b11c6779d847fc3d2b8f10e7d464e",
      "contractAddress": null,
      "gasUsedForL1": "0x9c5",
      "l1BlockNumber": "0x168d948",
      "timeboosted": false
    }
  ],
  "libraries": [],
  "pending": [],
  "returns": {},
  "timestamp": 1761324155,
  "chain": 42161,
  "commit": "27e81f6"
}