{
  "transactions": [
    {
      "hash": "0xaaceb215e8197954038f61286de22f56f47c9c5af57fd53e90b48565e80f8243",
      "transactionType": "CALL",
      "contractName": null,
      "contractAddress": "0x93d68b4c0793ff1d4d11f049f8682a1e256ac59d",
      "function": "withdrawAllUSDC(uint256,address)",
      "arguments": [
        "2",
        "0xc4660f40BA6Fe89b3BA7Ded44Cf1DB73D731c95e"
      ],
      "transaction": {
        "from": "0xc4660f40ba6fe89b3ba7ded44cf1db73d731c95e",
        "to": "0x93d68b4c0793ff1d4d11f049f8682a1e256ac59d",
        "gas": "0x16f8a",
        "value": "0x0",
        "input": "0xd2e17dd20000000000000000000000000000000000000000000000000000000000000002000000000000000000000000c4660f40ba6fe89b3ba7ded44cf1db73d731c95e",
        "nonce": "0x8",
        "chainId": "0xa4b1"
      },
      "additionalContracts": [],
      "isFixedGasLimit": false
    }
  ],
  "receipts": [
    {
      "status": "0x1",
      "cumulativeGasUsed": "0x25b5c",
      "logs": [
        {
          "address": "0x93d68b4c0793ff1d4d11f049f8682a1e256ac59d",
          "topics": [
            "0x0b2aac84f3ec956911fd78eae5311062972ff949f38412e8da39069d9f068cc6",
            "0x0000000000000000000000000000000000000000000000000000000000000002",
            "0x0000000000000000000000000000000000000000000000000000000000000000"
          ],
          "data": "0x00000000000000000000000000000000000000000000000000000000000f4240",
          "blockHash": "0x5233c8ff0c9602b4ee9fdf83200c9e9d95ffb8470e178eb0d8094efeef3cbd29",
          "blockNumber": "0x176be0e2",
          "transactionHash": "0xaaceb215e8197954038f61286de22f56f47c9c5af57fd53e90b48565e80f8243",
          "transactionIndex": "0x3",
          "logIndex": "0x0",
          "removed": false
        },
        {
          "address": "0xaf88d065e77c8cc2239327c5edb3a432268e5831",
          "topics": [
            "0xddf252ad1be2c89b69c2b068fc378daa952ba7f163c4a11628f55a4df523b3ef",
            "0x00000000000000000000000093d68b4c0793ff1d4d11f049f8682a1e256ac59d",
            "0x000000000000000000000000c4660f40ba6fe89b3ba7ded44cf1db73d731c95e"
          ],
          "data": "0x00000000000000000000000000000000000000000000000000000000000f4240",
          "blockHash": "0x5233c8ff0c9602b4ee9fdf83200c9e9d95ffb8470e178eb0d8094efeef3cbd29",
          "blockNumber": "0x176be0e2",
          "transactionHash": "0xaaceb215e8197954038f61286de22f56f47c9c5af57fd53e90b48565e80f8243",
          "transactionIndex": "0x3",
          "logIndex": "0x1",
          "removed": false
        },
        {
          "address": "0x93d68b4c0793ff1d4d11f049f8682a1e256ac59d",
          "topics": [
            "0x82f65e414029cb5d9668f192f37ffff1e78b03d5e84dd0f121786ac6601472a9",
            "0x000000000000000000000000c4660f40ba6fe89b3ba7ded44cf1db73d731c95e",
            "0x0000000000000000000000000000000000000000000000000000000000000002",
            "0x000000000000000000000000c4660f40ba6fe89b3ba7ded44cf1db73d731c95e"
          ],
          "data": "0x00000000000000000000000000000000000000000000000000000000000f4240",
          "blockHash": "0x5233c8ff0c9602b4ee9fdf83200c9e9d95ffb8470e178eb0d8094efeef3cbd29",
          "blockNumber": "0x176be0e2",
          "transactionHash": "0xaaceb215e8197954038f61286de22f56f47c9c5af57fd53e90b48565e80f8243",
          "transactionIndex": "0x3",
          "logIndex": "0x2",
          "removed": false
        }
      ],
      "logsBloom": "0x04000000000000000000000000000000000000000000001000000000000000000000000000000000000000000040400000000001000080000000000000000000000000000000004000000008000000000000000000000000020000000000000000000000020000000000000000000800000000000000000000001010000000000000000000010000000000000000000000000000000000000000000000000000000000000000000000000100000000000000000000000000000000000000000000002002100000000000000000000000000000000000000000000000000020100000000000020000000100000000200200000000008001000000000000000000",
      "type": "0x2",
      "transactionHash": "0xaaceb215e8197954038f61286de22f56f47c9c5af57fd53e90b48565e80f8243",
      "transactionIndex": "0x3",
      "blockHash": "0x5233c8ff0c9602b4ee9fdf83200c9e9d95ffb8470e178eb0d8094efeef3cbd29",
      "blockNumber": "0x176be0e2",
      "gasUsed": "0xf2db",
      "effectiveGasPrice": "0x989680",
      "from": "0xc4660f40ba6fe89b3ba7ded44cf1db73d731c95e",
      "to": "0x93d68b4c0793ff1d4d11f049f8682a1e256ac59d",
      "contractAddress": null,
      "gasUsedForL1": "0x645",
      "l1BlockNumber": "0x168d811",
      "timeboosted": false
    }
  ],
  "libraries": [],
  "pending": [],
  "returns": {},
  "timestamp": 1761320395,
  "chain": 42161,
  "commit": "5460833"
}