{
  "transactions": [
    {
      "hash": "0xc89ecdc632fb624915f9f89513b728e5622983786b543470e968672b51df5e9e",
      "transactionType": "CALL",
      "contractName": null,
      "contractAddress": "0x1e479c2650a29354b290e12d20af94c3a4c6b4a2",
      "function": "mintWithSig((address,uint256,(address,address,uint256,uint256,uint8,bytes32,bytes32),address,uint256,uint256),bytes)",
      "arguments": [
        "(0xc4660f40BA6Fe89b3BA7Ded44Cf1DB73D731c95e, 1000000, (0xc4660f40BA6Fe89b3BA7Ded44Cf1DB73D731c95e, 0x1e479C2650a29354B290E12d20af94c3a4c6B4a2, 1000000, 1761330913, 28, 0xea351f748dfc449af3849ee58d4985afa35d28cacbb64ee95f45c48f5bbc45ed, 0x5a7c2e947f980b2eec77dd0ce33f667f0e351172cce65c59b96dae6fd5b9cbf4), 0xc4660f40BA6Fe89b3BA7Ded44Cf1DB73D731c95e, 1, 1761330913)",
        "0xffa823fb183730cb505ac375a2dc0d7a7375ed59ed17c1365d2fba2ec5eafa6a7a4d247ac04be6fe982b2da1ed165fce18328bbd7727da98eb877b1bc4ef04b41c"
      ],
      "transaction": {
        "from": "0xc4660f40ba6fe89b3ba7ded44cf1db73d731c95e",
        "to": "0x1e479c2650a29354b290e12d20af94c3a4c6b4a2",
        "gas": "0x5973d",
        "value": "0x0",
        "input": "0x2b8eeba5000000000000000000000000c4660f40ba6fe89b3ba7ded44cf1db73d731c95e00000000000000000000000000000000000000000000000000000000000f4240000000000000000000000000c4660f40ba6fe89b3ba7ded44cf1db73d731c95e0000000000000000000000001e479c2650a29354b290e12d20af94c3a4c6b4a200000000000000000000000000000000000000000000000000000000000f42400000000000000000000000000000000000000000000000000000000068fbc6e1000000000000000000000000000000000000000000000000000000000000001cea351f748dfc449af3849ee58d4985afa35d28cacbb64ee95f45c48f5bbc45ed5a7c2e947f980b2eec77dd0ce33f667f0e351172cce65c59b96dae6fd5b9cbf4000000000000000000000000c4660f40ba6fe89b3ba7ded44cf1db73d731c95e00000000000000000000000000000000000000000000000000000000000000010000000000000000000000000000000000000000000000000000000068fbc6e100000000000000000000000000000000000000000000000000000000000001a00000000000000000000000000000000000000000000000000000000000000041ffa823fb183730cb505ac375a2dc0d7a7375ed59ed17c1365d2fba2ec5eafa6a7a4d247ac04be6fe982b2da1ed165fce18328bbd7727da98eb877b1bc4ef04b41c00000000000000000000000000000000000000000000000000000000000000",
        "nonce": "0x16",
        "chainId": "0xa4b1"
      },
      "additionalContracts": [],
      "isFixedGasLimit": false
    }
  ],
  "receipts": [
    {
      "status": "0x1",
      "cumulativeGasUsed": "0x8f8ac",
      "logs": [
        {
          "address": "0xaf88d065e77c8cc2239327c5edb3a432268e5831",
          "topics": [
            "0x8c5be1e5ebec7d5bd14f71427d1e84f3dd0314c0f7b2291e5b200ac8c7c3b925",
            "0x000000000000000000000000c4660f40ba6fe89b3ba7ded44cf1db73d731c95e",
            "0x0000000000000000000000001e479c2650a29354b290e12d20af94c3a4c6b4a2"
          ],
          "data": "0x00000000000000000000000000000000000000000000000000000000000f4240",
          "blockHash": "0x28c6e174acc9a7e9c71d3278d10591b312fe2683e2bc53e23d7bc1cb6574d3a3",
          "blockNumber": "0x176c4d63",
          "transactionHash": "0xc89ecdc632fb624915f9f89513b728e5622983786b543470e968672b51df5e9e",
          "transactionIndex": "0x5",
          "logIndex": "0x4",
          "removed": false
        },
        {
          "address": "0xaf88d065e77c8cc2239327c5edb3a432268e5831",
          "topics": [
            "0xddf252ad1be2c89b69c2b068fc378daa952ba7f163c4a11628f55a4df523b3ef",
            "0x000000000000000000000000c4660f40ba6fe89b3ba7ded44cf1db73d731c95e",
            "0x0000000000000000000000001e479c2650a29354b290e12d20af94c3a4c6b4a2"
          ],
          "data": "0x00000000000000000000000000000000000000000000000000000000000f4240",
          "blockHash": "0x28c6e174acc9a7e9c71d3278d10591b312fe2683e2bc53e23d7bc1cb6574d3a3",
          "blockNumber": "0x176c4d63",
          "transactionHash": "0xc89ecdc632fb624915f9f89513b728e5622983786b543470e968672b51df5e9e",
          "transactionIndex": "0x5",
          "logIndex": "0x5",
          "removed": false
        },
        {
          "address": "0x1e479c2650a29354b290e12d20af94c3a4c6b4a2",
          "topics": [
            "0xddf252ad1be2c89b69c2b068fc378daa952ba7f163c4a11628f55a4df523b3ef",
            "0x0000000000000000000000000000000000000000000000000000000000000000",
            "0x000000000000000000000000c4660f40ba6fe89b3ba7ded44cf1db73d731c95e",
            "0x0000000000000000000000000000000000000000000000000000000000000002"
          ],
          "data": "0x",
          "blockHash": "0x28c6e174acc9a7e9c71d3278d10591b312fe2683e2bc53e23d7bc1cb6574d3a3",
          "blockNumber": "0x176c4d63",
          "transactionHash": "0xc89ecdc632fb624915f9f89513b728e5622983786b543470e968672b51df5e9e",
          "transactionIndex": "0x5",
          "logIndex": "0x6",
          "removed": false
        },
        {
          "address": "0x1e479c2650a29354b290e12d20af94c3a4c6b4a2",
          "topics": [
            "0xe4f48c240d3b994948aa54f3e2f5fca59263dfe1d52b6e4cf39a5d249b5ccb65",
            "0x0000000000000000000000000000000000000000000000000000000000000002",
            "0x0000000000000000000000000000000000000000000000000000000000000000",
            "0x0000000000000000000000000000000000000000000000000000000000000000"
          ],
          "data": "0x",
          "blockHash": "0x28c6e174acc9a7e9c71d3278d10591b312fe2683e2bc53e23d7bc1cb6574d3a3",
          "blockNumber": "0x176c4d63",
          "transactionHash": "0xc89ecdc632fb624915f9f89513b728e5622983786b543470e968672b51df5e9e",
          "transactionIndex": "0x5",
          "logIndex": "0x7",
          "removed": false
        },
        {
          "address": "0x1e479c2650a29354b290e12d20af94c3a4c6b4a2",
          "topics": [
            "0x0b2aac84f3ec956911fd78eae5311062972ff949f38412e8da39069d9f068cc6",
            "0x0000000000000000000000000000000000000000000000000000000000000000",
            "0x0000000000000000000000000000000000000000000000000000000000000002"
          ],
          "data": "0x00000000000000000000000000000000000000000000000000000000000f4240",
          "blockHash": "0x28c6e174acc9a7e9c71d3278d10591b312fe2683e2bc53e23d7bc1cb6574d3a3",
          "blockNumber": "0x176c4d63",
          "transactionHash": "0xc89ecdc632fb624915f9f89513b728e5622983786b543470e968672b51df5e9e",
          "transactionIndex": "0x5",
          "logIndex": "0x8",
          "removed": false
        },
        {
          "address": "0x1e479c2650a29354b290e12d20af94c3a4c6b4a2",
          "topics": [
            "0xfd1ba5519feb014ad2f631cbd516bd3cec96be935749391554d122972593e7bf",
            "0x000000000000000000000000c4660f40ba6fe89b3ba7ded44cf1db73d731c95e",
            "0x000000000000000000000000c4660f40ba6fe89b3ba7ded44cf1db73d731c95e"
          ],
          "data": "0x00000000000000000000000000000000000000000000000000000000000f4240",
          "blockHash": "0x28c6e174acc9a7e9c71d3278d10591b312fe2683e2bc53e23d7bc1cb6574d3a3",
          "blockNumber": "0x176c4d63",
          "transactionHash": "0xc89ecdc632fb624915f9f89513b728e5622983786b543470e968672b51df5e9e",
          "transactionIndex": "0x5",
          "logIndex": "0x9",
          "removed": false
        }
      ],
      "logsBloom": "0x04000000000000000000000000000000001000000000001000000000000000400000000000000000000000000000000020000001000000000000000000200000000000000000000000000008000000000000000000000000000000000000000000000000020000000000000000000800000000000000000000001010000000040000000000000000400000000000000000000000000000000000040000000000020000000000000000000100000002000000000000000000000000002000000000002002100000000002000000000000000000000000008000000000000020000010000000000000000100000000200600000000008001000000200000000000",
      "type": "0x2",
      "transactionHash": "0xc89ecdc632fb624915f9f89513b728e5622983786b543470e968672b51df5e9e",
      "transactionIndex": "0x5",
      "blockHash": "0x28c6e174acc9a7e9c71d3278d10591b312fe2683e2bc53e23d7bc1cb6574d3a3",
      "blockNumber": "0x176c4d63",
      "gasUsed": "0x3fddd",
      "effectiveGasPrice": "0x989680",
      "from": "0xc4660f40ba6fe89b3ba7ded44cf1db73d731c95e",
      "to": "0x1e479c2650a29354b290e12d20af94c3a4c6b4a2",
      "contractAddress": null,
      "gasUsedForL1": "0x4cc",
      "l1BlockNumber": "0x168da4e",
      "timeboosted": false
    }
  ],
  "libraries": [],
  "pending": [],
  "returns": {},
  "timestamp": 1761327329,
  "chain": 42161,
  "commit": "27e81f6"
}