{
  "transactions": [
    {
      "hash": "0xddb7ac1f98b6bcf800b6a6291aed3f3645915336f036833ccb18c5a3226b2db4",
      "transactionType": "CALL",
      "contractName": null,
      "contractAddress": "0x93d68b4c0793ff1d4d11f049f8682a1e256ac59d",
      "function": "setRefuelPolicy(uint256,uint256,uint128,uint128,address)",
      "arguments": [
        "1",
        "10",
        "1000000",
        "3000000",
        "0xc4660f40BA6Fe89b3BA7Ded44Cf1DB73D731c95e"
      ],
      "transaction": {
        "from": "0xc4660f40ba6fe89b3ba7ded44cf1db73d731c95e",
        "to": "0x93d68b4c0793ff1d4d11f049f8682a1e256ac59d",
        "gas": "0x1e2a9",
        "value": "0x0",
        "input": "0x5a2419f80000000000000000000000000000000000000000000000000000000000000001000000000000000000000000000000000000000000000000000000000000000a00000000000000000000000000000000000000000000000000000000000f424000000000000000000000000000000000000000000000000000000000002dc6c0000000000000000000000000c4660f40ba6fe89b3ba7ded44cf1db73d731c95e",
        "nonce": "0x3",
        "chainId": "0xa4b1"
      },
      "additionalContracts": [],
      "isFixedGasLimit": false
    }
  ],
  "receipts": [
    {
      "status": "0x1",
      "cumulativeGasUsed": "0x1661a",
      "logs": [],
      "logsBloom": "0x00000000000000000000000000000000000000000000000000000000000000000000000000000000000000000000000000000000000000000000000000000000000000000000000000000000000000000000000000000000000000000000000000000000000000000000000000000000000000000000000000000000000000000000000000000000000000000000000000000000000000000000000000000000000000000000000000000000000000000000000000000000000000000000000000000000000000000000000000000000000000000000000000000000000000000000000000000000000000000000000000000000000000000000000000000000",
      "type": "0x2",
      "transactionHash": "0xddb7ac1f98b6bcf800b6a6291aed3f3645915336f036833ccb18c5a3226b2db4",
      "transactionIndex": "0x1",
      "blockHash": "0x2e6f0b710d1f91b31e7c56a8c4b34c6e69852f875c3d4ebc689d0207e3e85008",
      "blockNumber": "0x176bc5f9",
      "gasUsed": "0x1661a",
      "effectiveGasPrice": "0xa06a68",
      "from": "0xc4660f40ba6fe89b3ba7ded44cf1db73d731c95e",
      "to": "0x93d68b4c0793ff1d4d11f049f8682a1e256ac59d",
      "contractAddress": null,
      "gasUsedForL1": "0x2323",
      "l1BlockNumber": "0x168d785",
      "timeboosted": false
    }
  ],
  "libraries": [],
  "pending": [],
  "returns": {},
  "timestamp": 1761318679,
  "chain": 42161,
  "commit": "5460833"
}