{
  "transactions": [
    {
      "hash": "0x163a7de18ae6b0ba5562115cde16912dae9f92f9c66f31b14fd549221ebfe50f",
      "transactionType": "CALL",
      "contractName": null,
      "contractAddress": "0x98519ccdb35c9ed521bbcd00435fe2ab2d1305f7",
      "function": "withdrawAllUSDC(uint256,address)",
      "arguments": [
        "2",
        "0x35FF33D3e9Bf9eFB8B77BDfeC18D480C189F8d74"
      ],
      "transaction": {
        "from": "0x35ff33d3e9bf9efb8b77bdfec18d480c189f8d74",
        "to": "0x98519ccdb35c9ed521bbcd00435fe2ab2d1305f7",
        "gas": "0x1c0b5",
        "value": "0x0",
        "input": "0xd2e17dd2000000000000000000000000000000000000000000000000000000000000000200000000000000000000000035ff33d3e9bf9efb8b77bdfec18d480c189f8d74",
        "nonce": "0x1",
        "chainId": "0xa4b1"
      },
      "additionalContracts": [],
      "isFixedGasLimit": false
    }
  ],
  "receipts": [
    {
      "status": "0x1",
      "cumulativeGasUsed": "0x4bd28",
      "logs": [
        {
          "address": "0x98519ccdb35c9ed521bbcd00435fe2ab2d1305f7",
          "topics": [
            "0x0b2aac84f3ec956911fd78eae5311062972ff949f38412e8da39069d9f068cc6",
            "0x0000000000000000000000000000000000000000000000000000000000000002",
            "0x0000000000000000000000000000000000000000000000000000000000000000"
          ],
          "data": "0x00000000000000000000000000000000000000000000000000000000000f4240",
          "blockHash": "0xb5f169090ca0c43e3b3ec2c56a31e9238377e0255ef7e570d5e87142f1ae762d",
          "blockNumber": "0x176f3136",
          "transactionHash": "0x163a7de18ae6b0ba5562115cde16912dae9f92f9c66f31b14fd549221ebfe50f",
          "transactionIndex": "0x3",
          "logIndex": "0x2",
          "removed": false
        },
        {
          "address": "0xaf88d065e77c8cc2239327c5edb3a432268e5831",
          "topics": [
            "0xddf252ad1be2c89b69c2b068fc378daa952ba7f163c4a11628f55a4df523b3ef",
            "0x00000000000000000000000098519ccdb35c9ed521bbcd00435fe2ab2d1305f7",
            "0x00000000000000000000000035ff33d3e9bf9efb8b77bdfec18d480c189f8d74"
          ],
          "data": "0x00000000000000000000000000000000000000000000000000000000000f4240",
          "blockHash": "0xb5f169090ca0c43e3b3ec2c56a31e9238377e0255ef7e570d5e87142f1ae762d",
          "blockNumber": "0x176f3136",
          "transactionHash": "0x163a7de18ae6b0ba5562115cde16912dae9f92f9c66f31b14fd549221ebfe50f",
          "transactionIndex": "0x3",
          "logIndex": "0x3",
          "removed": false
        },
        {
          "address": "0x98519ccdb35c9ed521bbcd00435fe2ab2d1305f7",
          "topics": [
            "0x82f65e414029cb5d9668f192f37ffff1e78b03d5e84dd0f121786ac6601472a9",
            "0x00000000000000000000000035ff33d3e9bf9efb8b77bdfec18d480c189f8d74",
            "0x0000000000000000000000000000000000000000000000000000000000000002",
            "0x00000000000000000000000035ff33d3e9bf9efb8b77bdfec18d480c189f8d74"
          ],
          "data": "0x00000000000000000000000000000000000000000000000000000000000f4240",
          "blockHash": "0xb5f169090ca0c43e3b3ec2c56a31e9238377e0255ef7e570d5e87142f1ae762d",
          "blockNumber": "0x176f3136",
          "transactionHash": "0x163a7de18ae6b0ba5562115cde16912dae9f92f9c66f31b14fd549221ebfe50f",
          "transactionIndex": "0x3",
          "logIndex": "0x4",
          "removed": false
        }
      ],
      "logsBloom": "0x04000000000000000000000000000000000000000000001000000000000000000000000000000000000000000100400000000001000080000000000000000000000000000000004000000008000000000000000040100000000000000000000000000000020000000000000000000800000000000000001000000010000000000000000000010000000000000000000000000000000000000000000000000000000000000000000008000100000000000000000000000000000000000000000000002002000000000020000000000000000800000000000000000000000020000000000000000000000000000000200200000000008001000000000400000000",
      "type": "0x2",
      "transactionHash": "0x163a7de18ae6b0ba5562115cde16912dae9f92f9c66f31b14fd549221ebfe50f",
      "transactionIndex": "0x3",
      "blockHash": "0xb5f169090ca0c43e3b3ec2c56a31e9238377e0255ef7e570d5e87142f1ae762d",
      "blockNumber": "0x176f3136",
      "gasUsed": "0x13191",
      "effectiveGasPrice": "0x989680",
      "from": "0x35ff33d3e9bf9efb8b77bdfec18d480c189f8d74",
      "to": "0x98519ccdb35c9ed521bbcd00435fe2ab2d1305f7",
      "contractAddress": null,
      "gasUsedForL1": "0x22f",
      "l1BlockNumber": "0x168e99a",
      "timeboosted": false
    }
  ],
  "libraries": [],
  "pending": [],
  "returns": {},
  "timestamp": 1761374659099,
  "chain": 42161,
  "commit": "5d21f7e"
}