{
  "transactions": [
    {
      "hash": "0xea479aa95539cc26f0229d73667e8b8010989173b3ac55d6953aa99c74a83e84",
      "transactionType": "CALL",
      "contractName": null,
      "contractAddress": "0x93d68b4c0793ff1d4d11f049f8682a1e256ac59d",
      "function": "setRelayer(address)",
      "arguments": [
        "0xc4660f40BA6Fe89b3BA7Ded44Cf1DB73D731c95e"
      ],
      "transaction": {
        "from": "0xc4660f40ba6fe89b3ba7ded44cf1db73d731c95e",
        "to": "0x93d68b4c0793ff1d4d11f049f8682a1e256ac59d",
        "gas": "0x14722",
        "value": "0x0",
        "input": "0x6548e9bc000000000000000000000000c4660f40ba6fe89b3ba7ded44cf1db73d731c95e",
        "nonce": "0x1",
        "chainId": "0xa4b1"
      },
      "additionalContracts": [],
      "isFixedGasLimit": false
    }
  ],
  "receipts": [
    {
      "status": "0x1",
      "cumulativeGasUsed": "0x1c3fe",
      "logs": [
        {
          "address": "0x93d68b4c0793ff1d4d11f049f8682a1e256ac59d",
          "topics": [
            "0x18f08848c5694a025f9966c34ff2367f32a1a8275663b282ee01f4338b045490",
            "0x0000000000000000000000000000000000000000000000000000000000000000",
            "0x000000000000000000000000c4660f40ba6fe89b3ba7ded44cf1db73d731c95e"
          ],
          "data": "0x",
          "blockHash": "0xc110fb4704b2256f6df99e3afd3a751324dda4682e86409510cf5c4bc9cde7ce",
          "blockNumber": "0x176baaad",
          "blockTimestamp": "0x68fb9043",
          "transactionHash": "0xea479aa95539cc26f0229d73667e8b8010989173b3ac55d6953aa99c74a83e84",
          "transactionIndex": "0x2",
          "logIndex": "0x0",
          "removed": false
        }
      ],
      "logsBloom": "0x00000000000000000000000000000000000000000000000000000010000000000000000000000000000000000040000000000000000000000000000000000000000000000000004000000000000000000000000000000000000000000000000000000000020000000000000000000800000000000000000000001000000000000000000000000000000000000000000000000000000000000000000000000000000000000000000000000000000000000000001000000000000000000000000000000000100400000000000000000000000000000000000000000000000020000000000000020000000100000000000000000000000000000000000000000000",
      "type": "0x2",
      "transactionHash": "0xea479aa95539cc26f0229d73667e8b8010989173b3ac55d6953aa99c74a83e84",
      "transactionIndex": "0x2",
      "blockHash": "0xc110fb4704b2256f6df99e3afd3a751324dda4682e86409510cf5c4bc9cde7ce",
      "blockNumber": "0x176baaad",
      "gasUsed": "0xe5b5",
      "effectiveGasPrice": "0xd68210",
      "from": "0xc4660f40ba6fe89b3ba7ded44cf1db73d731c95e",
      "to": "0x93d68b4c0793ff1d4d11f049f8682a1e256ac59d",
      "contractAddress": null,
      "gasUsedForL1": "0x299d",
      "l1BlockNumber": "0x168d6f4",
      "timeboosted": false
    }
  ],
  "libraries": [],
  "pending": [],
  "returns": {},
  "timestamp": 1761316935,
  "chain": 42161,
  "commit": "5460833"
}