{
  "transactions": [
    {
      "hash": "0xbfaf640c6688966491a1b28f09193792d2f2b929f5994c33888520f7e356ab61",
      "transactionType": "CALL",
      "contractName": null,
      "contractAddress": "0x86e8cc02f5ccd4dc84801e7546ad3731401e54ec",
      "function": "depositWithSig((uint256,uint256,(address,address,uint256,uint256,uint8,bytes32,bytes32),uint256,uint256),bytes)",
      "arguments": [
        "(1, 500000, (0xc4660f40BA6Fe89b3BA7Ded44Cf1DB73D731c95e, 0x86E8CC02f5cCD4dC84801e7546aD3731401E54EC, 500000, 1761325425, 28, 0xeb383fd1e2c772f7e0188a959af83634045006cc33c3f3b9f4f7d8b97a934406, 0x1f7c161d80bdf0927624bf48d4b3e66997b35dab9400f6e048088a35b9b80f88), 1, 1761325425)",
        "0xb7af198ca2bbf6e1abf674e0ff28b6f02a85bdb0c7c1d4e6287d38c07371d4ec76cfb28a75fb2c3a59e1d08c52b8d8185e317777c99bf6a5954dd2d0938d54a21b"
      ],
      "transaction": {
        "from": "0xc4660f40ba6fe89b3ba7ded44cf1db73d731c95e",
        "to": "0x86e8cc02f5ccd4dc84801e7546ad3731401e54ec",
        "gas": "0x2c87d",
        "value": "0x0",
        "input": "0xb180c9370000000000000000000000000000000000000000000000000000000000000001000000000000000000000000000000000000000000000000000000000007a120000000000000000000000000c4660f40ba6fe89b3ba7ded44cf1db73d731c95e00000000000000000000000086e8cc02f5ccd4dc84801e7546ad3731401e54ec000000000000000000000000000000000000000000000000000000000007a1200000000000000000000000000000000000000000000000000000000068fbb171000000000000000000000000000000000000000000000000000000000000001ceb383fd1e2c772f7e0188a959af83634045006cc33c3f3b9f4f7d8b97a9344061f7c161d80bdf0927624bf48d4b3e66997b35dab9400f6e048088a35b9b80f8800000000000000000000000000000000000000000000000000000000000000010000000000000000000000000000000000000000000000000000000068fbb17100000000000000000000000000000000000000000000000000000000000001800000000000000000000000000000000000000000000000000000000000000041b7af198ca2bbf6e1abf674e0ff28b6f02a85bdb0c7c1d4e6287d38c07371d4ec76cfb28a75fb2c3a59e1d08c52b8d8185e317777c99bf6a5954dd2d0938d54a21b00000000000000000000000000000000000000000000000000000000000000",
        "nonce": "0xc",
        "chainId": "0xa4b1"
      },
      "additionalContracts": [],
      "isFixedGasLimit": false
    }
  ],
  "receipts": [
    {
      "status": "0x1",
      "cumulativeGasUsed": "0x515380",
      "logs": [
        {
          "address": "0xaf88d065e77c8cc2239327c5edb3a432268e5831",
          "topics": [
            "0x8c5be1e5ebec7d5bd14f71427d1e84f3dd0314c0f7b2291e5b200ac8c7c3b925",
            "0x000000000000000000000000c4660f40ba6fe89b3ba7ded44cf1db73d731c95e",
            "0x00000000000000000000000086e8cc02f5ccd4dc84801e7546ad3731401e54ec"
          ],
          "data": "0x000000000000000000000000000000000000000000000000000000000007a120",
          "blockHash": "0xab3620cab5b6a01c54c13734dfb18b62b7ecda62d08b8183209f6e647b70e211",
          "blockNumber": "0x176bf776",
          "transactionHash": "0xbfaf640c6688966491a1b28f09193792d2f2b929f5994c33888520f7e356ab61",
          "transactionIndex": "0xb",
          "logIndex": "0xa",
          "removed": false
        },
        {
          "address": "0xaf88d065e77c8cc2239327c5edb3a432268e5831",
          "topics": [
            "0xddf252ad1be2c89b69c2b068fc378daa952ba7f163c4a11628f55a4df523b3ef",
            "0x000000000000000000000000c4660f40ba6fe89b3ba7ded44cf1db73d731c95e",
            "0x00000000000000000000000086e8cc02f5ccd4dc84801e7546ad3731401e54ec"
          ],
          "data": "0x000000000000000000000000000000000000000000000000000000000007a120",
          "blockHash": "0xab3620cab5b6a01c54c13734dfb18b62b7ecda62d08b8183209f6e647b70e211",
          "blockNumber": "0x176bf776",
          "transactionHash": "0xbfaf640c6688966491a1b28f09193792d2f2b929f5994c33888520f7e356ab61",
          "transactionIndex": "0xb",
          "logIndex": "0xb",
          "removed": false
        },
        {
          "address": "0x86e8cc02f5ccd4dc84801e7546ad3731401e54ec",
          "topics": [
            "0x0b2aac84f3ec956911fd78eae5311062972ff949f38412e8da39069d9f068cc6",
            "0x0000000000000000000000000000000000000000000000000000000000000000",
            "0x0000000000000000000000000000000000000000000000000000000000000001"
          ],
          "data": "0x000000000000000000000000000000000000000000000000000000000007a120",
          "blockHash": "0xab3620cab5b6a01c54c13734dfb18b62b7ecda62d08b8183209f6e647b70e211",
          "blockNumber": "0x176bf776",
          "transactionHash": "0xbfaf640c6688966491a1b28f09193792d2f2b929f5994c33888520f7e356ab61",
          "transactionIndex": "0xb",
          "logIndex": "0xc",
          "removed": false
        }
      ],
      "logsBloom": "0x02000000000000000000000000000000000000000000001000000000000000000000000000000000000000000000000000000001000000000000000000240000000000000000000000000008000000000000000020040000000000000000000000000000020000000000000000000800000000000000000000009010000000000000000000000000000000000000000000000004000000000000000000000000020000000000000000000000000000000000000000000000000000000000000000002002100000000000000000000001000000000000000000000000000060001010000000000000000100000000200200000000000001000000000000000000",
      "type": "0x2",
      "transactionHash": "0xbfaf640c6688966491a1b28f09193792d2f2b929f5994c33888520f7e356ab61",
      "transactionIndex": "0xb",
      "blockHash": "0xab3620cab5b6a01c54c13734dfb18b62b7ecda62d08b8183209f6e647b70e211",
      "blockNumber": "0x176bf776",
      "gasUsed": "0x1c84c",
      "effectiveGasPrice": "0xc7c4a0",
      "from": "0xc4660f40ba6fe89b3ba7ded44cf1db73d731c95e",
      "to": "0x86e8cc02f5ccd4dc84801e7546ad3731401e54ec",
      "contractAddress": null,
      "gasUsedForL1": "0x1921",
      "l1BlockNumber": "0x168d889",
      "timeboosted": false
    }
  ],
  "libraries": [],
  "pending": [],
  "returns": {},
  "timestamp": 1761321840,
  "chain": 42161,
  "commit": "5460833"
}