{
  "transactions": [
    {
      "hash": "0x7c6a7858c34e8b40add336d0f0daa9d8e41d37808361b4bdb2f0da8af4c18cde",
      "transactionType": "CALL",
      "contractName": null,
      "contractAddress": "0x1e479c2650a29354b290e12d20af94c3a4c6b4a2",
      "function": "mintWithSig((address,uint256,(address,address,uint256,uint256,uint8,bytes32,bytes32),address,uint256,uint256),bytes)",
      "arguments": [
        "(0xc4660f40BA6Fe89b3BA7Ded44Cf1DB73D731c95e, 1000000, (0xc4660f40BA6Fe89b3BA7Ded44Cf1DB73D731c95e, 0x1e479C2650a29354B290E12d20af94c3a4c6B4a2, 1000000, 1761332337, 28, 0x764315f73f2f23b39b341a288ffa08ae24124bf313ded0220dfd19b600c15351, 0x14bbee052a647e34c78c787f11f17d21e8cc6287e21bf571d29a0b353a70d9bb), 0xc4660f40BA6Fe89b3BA7Ded44Cf1DB73D731c95e, 2, 1761332337)",
        "0x2da19735c1e90564cd97f0984d27118cc8dc829a15703ab33a745287f4663cc67a3e921acc47c1a722d0b72f0a6e5303c42ca576eb60ddede8558335631ea91f1b"
      ],
      "transaction": {
        "from": "0xc4660f40ba6fe89b3ba7ded44cf1db73d731c95e",
        "to": "0x1e479c2650a29354b290e12d20af94c3a4c6b4a2",
        "gas": "0x59838",
        "value": "0x0",
        "input": "0x2b8eeba5000000000000000000000000c4660f40ba6fe89b3ba7ded44cf1db73d731c95e00000000000000000000000000000000000000000000000000000000000f4240000000000000000000000000c4660f40ba6fe89b3ba7ded44cf1db73d731c95e0000000000000000000000001e479c2650a29354b290e12d20af94c3a4c6b4a200000000000000000000000000000000000000000000000000000000000f42400000000000000000000000000000000000000000000000000000000068fbcc71000000000000000000000000000000000000000000000000000000000000001c764315f73f2f23b39b341a288ffa08ae24124bf313ded0220dfd19b600c1535114bbee052a647e34c78c787f11f17d21e8cc6287e21bf571d29a0b353a70d9bb000000000000000000000000c4660f40ba6fe89b3ba7ded44cf1db73d731c95e00000000000000000000000000000000000000000000000000000000000000020000000000000000000000000000000000000000000000000000000068fbcc7100000000000000000000000000000000000000000000000000000000000001a000000000000000000000000000000000000000000000000000000000000000412da19735c1e90564cd97f0984d27118cc8dc829a15703ab33a745287f4663cc67a3e921acc47c1a722d0b72f0a6e5303c42ca576eb60ddede8558335631ea91f1b00000000000000000000000000000000000000000000000000000000000000",
        "nonce": "0x19",
        "chainId": "0xa4b1"
      },
      "additionalContracts": [],
      "isFixedGasLimit": false
    }
  ],
  "receipts": [
    {
      "status": "0x1",
      "cumulativeGasUsed": "0x88bcb",
      "logs": [
        {
          "address": "0xaf88d065e77c8cc2239327c5edb3a432268e5831",
          "topics": [
            "0x8c5be1e5ebec7d5bd14f71427d1e84f3dd0314c0f7b2291e5b200ac8c7c3b925",
            "0x000000000000000000000000c4660f40ba6fe89b3ba7ded44cf1db73d731c95e",
            "0x0000000000000000000000001e479c2650a29354b290e12d20af94c3a4c6b4a2"
          ],
          "data": "0x00000000000000000000000000000000000000000000000000000000000f4240",
          "blockHash": "0x5d6b5d6ac397fb0a4779c96470ccd234b6ce6248a6b172f9fd4751188a3298e7",
          "blockNumber": "0x176c63a1",
          "transactionHash": "0x7c6a7858c34e8b40add336d0f0daa9d8e41d37808361b4bdb2f0da8af4c18cde",
          "transactionIndex": "0x4",
          "logIndex": "0x1",
          "removed": false
        },
        {
          "address": "0xaf88d065e77c8cc2239327c5edb3a432268e5831",
          "topics": [
            "0xddf252ad1be2c89b69c2b068fc378daa952ba7f163c4a11628f55a4df523b3ef",
            "0x000000000000000000000000c4660f40ba6fe89b3ba7ded44cf1db73d731c95e",
            "0x0000000000000000000000001e479c2650a29354b290e12d20af94c3a4c6b4a2"
          ],
          "data": "0x00000000000000000000000000000000000000000000000000000000000f4240",
          "blockHash": "0x5d6b5d6ac397fb0a4779c96470ccd234b6ce6248a6b172f9fd4751188a3298e7",
          "blockNumber": "0x176c63a1",
          "transactionHash": "0x7c6a7858c34e8b40add336d0f0daa9d8e41d37808361b4bdb2f0da8af4c18cde",
          "transactionIndex": "0x4",
          "logIndex": "0x2",
          "removed": false
        },
        {
          "address": "0x1e479c2650a29354b290e12d20af94c3a4c6b4a2",
          "topics": [
            "0xddf252ad1be2c89b69c2b068fc378daa952ba7f163c4a11628f55a4df523b3ef",
            "0x0000000000000000000000000000000000000000000000000000000000000000",
            "0x000000000000000000000000c4660f40ba6fe89b3ba7ded44cf1db73d731c95e",
            "0x0000000000000000000000000000000000000000000000000000000000000003"
          ],
          "data": "0x",
          "blockHash": "0x5d6b5d6ac397fb0a4779c96470ccd234b6ce6248a6b172f9fd4751188a3298e7",
          "blockNumber": "0x176c63a1",
          "transactionHash": "0x7c6a7858c34e8b40add336d0f0daa9d8e41d37808361b4bdb2f0da8af4c18cde",
          "transactionIndex": "0x4",
          "logIndex": "0x3",
          "removed": false
        },
        {
          "address": "0x1e479c2650a29354b290e12d20af94c3a4c6b4a2",
          "topics": [
            "0xe4f48c240d3b994948aa54f3e2f5fca59263dfe1d52b6e4cf39a5d249b5ccb65",
            "0x0000000000000000000000000000000000000000000000000000000000000003",
            "0x0000000000000000000000000000000000000000000000000000000000000000",
            "0x0000000000000000000000000000000000000000000000000000000000000000"
          ],
          "data": "0x",
          "blockHash": "0x5d6b5d6ac397fb0a4779c96470ccd234b6ce6248a6b172f9fd4751188a3298e7",
          "blockNumber": "0x176c63a1",
          "transactionHash": "0x7c6a7858c34e8b40add336d0f0daa9d8e41d37808361b4bdb2f0da8af4c18cde",
          "transactionIndex": "0x4",
          "logIndex": "0x4",
          "removed": false
        },
        {
          "address": "0x1e479c2650a29354b290e12d20af94c3a4c6b4a2",
          "topics": [
            "0x0b2aac84f3ec956911fd78eae5311062972ff949f38412e8da39069d9f068cc6",
            "0x0000000000000000000000000000000000000000000000000000000000000000",
            "0x0000000000000000000000000000000000000000000000000000000000000003"
          ],
          "data": "0x00000000000000000000000000000000000000000000000000000000000f4240",
          "blockHash": "0x5d6b5d6ac397fb0a4779c96470ccd234b6ce6248a6b172f9fd4751188a3298e7",
          "blockNumber": "0x176c63a1",
          "transactionHash": "0x7c6a7858c34e8b40add336d0f0daa9d8e41d37808361b4bdb2f0da8af4c18cde",
          "transactionIndex": "0x4",
          "logIndex": "0x5",
          "removed": false
        },
        {
          "address": "0x1e479c2650a29354b290e12d20af94c3a4c6b4a2",
          "topics": [
            "0xfd1ba5519feb014ad2f631cbd516bd3cec96be935749391554d122972593e7bf",
            "0x000000000000000000000000c4660f40ba6fe89b3ba7ded44cf1db73d731c95e",
            "0x000000000000000000000000c4660f40ba6fe89b3ba7ded44cf1db73d731c95e"
          ],
          "data": "0x00000000000000000000000000000000000000000000000000000000000f4240",
          "blockHash": "0x5d6b5d6ac397fb0a4779c96470ccd234b6ce6248a6b172f9fd4751188a3298e7",
          "blockNumber": "0x176c63a1",
          "transactionHash": "0x7c6a7858c34e8b40add336d0f0daa9d8e41d37808361b4bdb2f0da8af4c18cde",
          "transactionIndex": "0x4",
          "logIndex": "0x6",
          "removed": false
        }
      ],
      "logsBloom": "0x00000000000000000000000000000000001000000000001000000000000000400000000000000000000000000000000020000001020000000000000000200000000000000000000000000008000000000000000000000000000000000000000000000000020000000000000000000800000000000000000000001010000000040000000000000000400000000000000000000000000000000000040000000000020000000000000000000000000002000000000000800000000000002000400000002002100000000002000000000000000000000000008000000000000020000010000000000000000100000000200600000000000001000000200000000000",
      "type": "0x2",
      "transactionHash": "0x7c6a7858c34e8b40add336d0f0daa9d8e41d37808361b4bdb2f0da8af4c18cde",
      "transactionIndex": "0x4",
      "blockHash": "0x5d6b5d6ac397fb0a4779c96470ccd234b6ce6248a6b172f9fd4751188a3298e7",
      "blockNumber": "0x176c63a1",
      "gasUsed": "0x3fe80",
      "effectiveGasPrice": "0x989680",
      "from": "0xc4660f40ba6fe89b3ba7ded44cf1db73d731c95e",
      "to": "0x1e479c2650a29354b290e12d20af94c3a4c6b4a2",
      "contractAddress": null,
      "gasUsedForL1": "0x57b",
      "l1BlockNumber": "0x168dac3",
      "timeboosted": false
    }
  ],
  "libraries": [],
  "pending": [],
  "returns": {},
  "timestamp": 1761328752,
  "chain": 42161,
  "commit": "27e81f6"
}