{
  "transactions": [
    {
      "hash": "0x1c68d8bb07490be3aef99143b9e932bf81ac2cab9bea0cd5c4d8765cef083544",
      "transactionType": "CALL",
      "contractName": null,
      "contractAddress": "0xfa3a7bc5804b11c6779d847fc3d2b8f10e7d464e",
      "function": "setRefuelPolicy(uint256,uint256,uint128,uint128,address)",
      "arguments": [
        "1",
        "10",
        "1000000",
        "3000000",
        "0xc4660f40BA6Fe89b3BA7Ded44Cf1DB73D731c95e"
      ],
      "transaction": {
        "from": "0xc4660f40ba6fe89b3ba7ded44cf1db73d731c95e",
        "to": "0xfa3a7bc5804b11c6779d847fc3d2b8f10e7d464e",
        "gas": "0x1b182",
        "value": "0x0",
        "input": "0x5a2419f80000000000000000000000000000000000000000000000000000000000000001000000000000000000000000000000000000000000000000000000000000000a00000000000000000000000000000000000000000000000000000000000f424000000000000000000000000000000000000000000000000000000000002dc6c0000000000000000000000000c4660f40ba6fe89b3ba7ded44cf1db73d731c95e",
        "nonce": "0x10",
        "chainId": "0xa4b1"
      },
      "additionalContracts": [],
      "isFixedGasLimit": false
    }
  ],
  "receipts": [
    {
      "status": "0x1",
      "cumulativeGasUsed": "0x3238a",
      "logs": [],
      "logsBloom": "0x00000000000000000000000000000000000000000000000000000000000000000000000000000000000000000000000000000000000000000000000000000000000000000000000000000000000000000000000000000000000000000000000000000000000000000000000000000000000000000000000000000000000000000000000000000000000000000000000000000000000000000000000000000000000000000000000000000000000000000000000000000000000000000000000000000000000000000000000000000000000000000000000000000000000000000000000000000000000000000000000000000000000000000000000000000000",
      "type": "0x2",
      "transactionHash": "0x1c68d8bb07490be3aef99143b9e932bf81ac2cab9bea0cd5c4d8765cef083544",
      "transactionIndex": "0x2",
      "blockHash": "0x0d296516a10e6d96af5052ffc7a6c653e3bd1fc62eb2508be22ee27137ef7dba",
      "blockNumber": "0x176c1c20",
      "gasUsed": "0x1489b",
      "effectiveGasPrice": "0x989680",
      "from": "0xc4660f40ba6fe89b3ba7ded44cf1db73d731c95e",
      "to": "0xfa3a7bc5804b11c6779d847fc3d2b8f10e7d464e",
      "contractAddress": null,
      "gasUsedForL1": "0x5a4",
      "l1BlockNumber": "0x168d949",
      "timeboosted": false
    }
  ],
  "libraries": [],
  "pending": [],
  "returns": {},
  "timestamp": 1761324181,
  "chain": 42161,
  "commit": "27e81f6"
}