{
  "transactions": [
    {
      "hash": "0xa0f84d6e5461a339d551fe0864ad1def63180dbe042b0971f0240702bca66251",
      "transactionType": "CALL",
      "contractName": null,
      "contractAddress": "0x1e479c2650a29354b290e12d20af94c3a4c6b4a2",
      "function": "setRefuelPolicy(uint256,uint256,uint128,uint128,address)",
      "arguments": [
        "4",
        "10",
        "1500000",
        "3000000",
        "0xc4660f40BA6Fe89b3BA7Ded44Cf1DB73D731c95e"
      ],
      "transaction": {
        "from": "0xc4660f40ba6fe89b3ba7ded44cf1db73d731c95e",
        "to": "0x1e479c2650a29354b290e12d20af94c3a4c6b4a2",
        "gas": "0x1ad3e",
        "value": "0x0",
        "input": "0x5a2419f80000000000000000000000000000000000000000000000000000000000000004000000000000000000000000000000000000000000000000000000000000000a000000000000000000000000000000000000000000000000000000000016e36000000000000000000000000000000000000000000000000000000000002dc6c0000000000000000000000000c4660f40ba6fe89b3ba7ded44cf1db73d731c95e",
        "nonce": "0x1d",
        "chainId": "0xa4b1"
      },
      "additionalContracts": [],
      "isFixedGasLimit": false
    }
  ],
  "receipts": [
    {
      "status": "0x1",
      "cumulativeGasUsed": "0x3705a3",
      "logs": [],
      "logsBloom": "0x00000000000000000000000000000000000000000000000000000000000000000000000000000000000000000000000000000000000000000000000000000000000000000000000000000000000000000000000000000000000000000000000000000000000000000000000000000000000000000000000000000000000000000000000000000000000000000000000000000000000000000000000000000000000000000000000000000000000000000000000000000000000000000000000000000000000000000000000000000000000000000000000000000000000000000000000000000000000000000000000000000000000000000000000000000000",
      "type": "0x2",
      "transactionHash": "0xa0f84d6e5461a339d551fe0864ad1def63180dbe042b0971f0240702bca66251",
      "transactionIndex": "0x7",
      "blockHash": "0xc3706ebed295f3e7c529d80c78fd562e0a5a215587c6960bc9c80f5f1290aa87",
      "blockNumber": "0x176c93ac",
      "gasUsed": "0x145f8",
      "effectiveGasPrice": "0x989680",
      "from": "0xc4660f40ba6fe89b3ba7ded44cf1db73d731c95e",
      "to": "0x1e479c2650a29354b290e12d20af94c3a4c6b4a2",
      "contractAddress": null,
      "gasUsedForL1": "0x301",
      "l1BlockNumber": "0x168dbc3",
      "timeboosted": false
    }
  ],
  "libraries": [],
  "pending": [],
  "returns": {},
  "timestamp": 1761331824,
  "chain": 42161,
  "commit": "27e81f6"
}