{
  "transactions": [
    {
      "hash": "0x6b1413b94f0b664ebdc757f650bcd700b0b5aa344b66672f065bfb435e68419e",
      "transactionType": "CALL",
      "contractName": null,
      "contractAddress": "0x1e479c2650a29354b290e12d20af94c3a4c6b4a2",
      "function": "setRefuelPolicy(uint256,uint256,uint128,uint128,address)",
      "arguments": [
        "1",
        "10",
        "1000000",
        "3000000",
        "0xc4660f40BA6Fe89b3BA7Ded44Cf1DB73D731c95e"
      ],
      "transaction": {
        "from": "0xc4660f40ba6fe89b3ba7ded44cf1db73d731c95e",
        "to": "0x1e479c2650a29354b290e12d20af94c3a4c6b4a2",
        "gas": "0x1abc2",
        "value": "0x0",
        "input": "0x5a2419f80000000000000000000000000000000000000000000000000000000000000001000000000000000000000000000000000000000000000000000000000000000a00000000000000000000000000000000000000000000000000000000000f424000000000000000000000000000000000000000000000000000000000002dc6c0000000000000000000000000c4660f40ba6fe89b3ba7ded44cf1db73d731c95e",
        "nonce": "0x14",
        "chainId": "0xa4b1"
      },
      "additionalContracts": [],
      "isFixedGasLimit": false
    }
  ],
  "receipts": [
    {
      "status": "0x1",
      "cumulativeGasUsed": "0xaae33",
      "logs": [],
      "logsBloom": "0x00000000000000000000000000000000000000000000000000000000000000000000000000000000000000000000000000000000000000000000000000000000000000000000000000000000000000000000000000000000000000000000000000000000000000000000000000000000000000000000000000000000000000000000000000000000000000000000000000000000000000000000000000000000000000000000000000000000000000000000000000000000000000000000000000000000000000000000000000000000000000000000000000000000000000000000000000000000000000000000000000000000000000000000000000000000",
      "type": "0x2",
      "transactionHash": "0x6b1413b94f0b664ebdc757f650bcd700b0b5aa344b66672f065bfb435e68419e",
      "transactionIndex": "0x6",
      "blockHash": "0x2bb60e1a4f7d274684cf5fa369d895d392809ecab4dbff6924384fabeae67e9e",
      "blockNumber": "0x176c2653",
      "gasUsed": "0x144f4",
      "effectiveGasPrice": "0x989680",
      "from": "0xc4660f40ba6fe89b3ba7ded44cf1db73d731c95e",
      "to": "0x1e479c2650a29354b290e12d20af94c3a4c6b4a2",
      "contractAddress": null,
      "gasUsedForL1": "0x1fd",
      "l1BlockNumber": "0x168d980",
      "timeboosted": false
    }
  ],
  "libraries": [],
  "pending": [],
  "returns": {},
  "timestamp": 1761324833,
  "chain": 42161,
  "commit": "27e81f6"
}