{
  "transactions": [
    {
      "hash": "0xe0ef19d89ee8b9f058d1aa2db91c8be218e9b721aedae326011038f5278ce4bc",
      "transactionType": "CALL",
      "contractName": null,
      "contractAddress": "0xdb140b58d6e3988f5c453e192295748c1438d8d4",
      "function": "mintWithSig((address,uint256,(address,address,uint256,uint256,uint8,bytes32,bytes32),address,uint256,uint256),bytes)",
      "arguments": [
        "(0xc4660f40BA6Fe89b3BA7Ded44Cf1DB73D731c95e, 3000000, (0xc4660f40BA6Fe89b3BA7Ded44Cf1DB73D731c95e, 0xdB140B58D6E3988F5C453E192295748c1438d8D4, 3000000, 1761344397, 27, 0xff5eac63c9b98befd4ca833b161d8cbaf05c84173ab51a969bb3868102cf8ea8, 0x15dab71a5e9889fdf60feb6e38f7dd06f88c28e6774116014aaef42d51e42daf), 0xc4660f40BA6Fe89b3BA7Ded44Cf1DB73D731c95e, 1, 1761344397)",
        "0xe9bb957fe19f34f33e405d39e3a61279997eadf6db05c9a123fb1d02aa22b29a263d1be99afc1f84e791399f6d18306f6795ffda2a92e386636b8bf21e6fd71f1b"
      ],
      "transaction": {
        "from": "0xc4660f40ba6fe89b3ba7ded44cf1db73d731c95e",
        "to": "0xdb140b58d6e3988f5c453e192295748c1438d8d4",
        "gas": "0x5966b",
        "value": "0x0",
        "input": "0x2b8eeba5000000000000000000000000c4660f40ba6fe89b3ba7ded44cf1db73d731c95e00000000000000000000000000000000000000000000000000000000002dc6c0000000000000000000000000c4660f40ba6fe89b3ba7ded44cf1db73d731c95e000000000000000000000000db140b58d6e3988f5c453e192295748c1438d8d400000000000000000000000000000000000000000000000000000000002dc6c00000000000000000000000000000000000000000000000000000000068fbfb8d000000000000000000000000000000000000000000000000000000000000001bff5eac63c9b98befd4ca833b161d8cbaf05c84173ab51a969bb3868102cf8ea815dab71a5e9889fdf60feb6e38f7dd06f88c28e6774116014aaef42d51e42daf000000000000000000000000c4660f40ba6fe89b3ba7ded44cf1db73d731c95e00000000000000000000000000000000000000000000000000000000000000010000000000000000000000000000000000000000000000000000000068fbfb8d00000000000000000000000000000000000000000000000000000000000001a00000000000000000000000000000000000000000000000000000000000000041e9bb957fe19f34f33e405d39e3a61279997eadf6db05c9a123fb1d02aa22b29a263d1be99afc1f84e791399f6d18306f6795ffda2a92e386636b8bf21e6fd71f1b00000000000000000000000000000000000000000000000000000000000000",
        "nonce": "0x29",
        "chainId": "0xa4b1"
      },
      "additionalContracts": [],
      "isFixedGasLimit": false
    }
  ],
  "receipts": [
    {
      "status": "0x1",
      "cumulativeGasUsed": "0x620d3",
      "logs": [
        {
          "address": "0xaf88d065e77c8cc2239327c5edb3a432268e5831",
          "topics": [
            "0x8c5be1e5ebec7d5bd14f71427d1e84f3dd0314c0f7b2291e5b200ac8c7c3b925",
            "0x000000000000000000000000c4660f40ba6fe89b3ba7ded44cf1db73d731c95e",
            "0x000000000000000000000000db140b58d6e3988f5c453e192295748c1438d8d4"
          ],
          "data": "0x00000000000000000000000000000000000000000000000000000000002dc6c0",
          "blockHash": "0xf53b55c266826c59717381278e78f9e6aa105c35014d72b854b16c12712095c4",
          "blockNumber": "0x176d202c",
          "transactionHash": "0xe0ef19d89ee8b9f058d1aa2db91c8be218e9b721aedae326011038f5278ce4bc",
          "transactionIndex": "0x4",
          "logIndex": "0x0",
          "removed": false
        },
        {
          "address": "0xaf88d065e77c8cc2239327c5edb3a432268e5831",
          "topics": [
            "0xddf252ad1be2c89b69c2b068fc378daa952ba7f163c4a11628f55a4df523b3ef",
            "0x000000000000000000000000c4660f40ba6fe89b3ba7ded44cf1db73d731c95e",
            "0x000000000000000000000000db140b58d6e3988f5c453e192295748c1438d8d4"
          ],
          "data": "0x00000000000000000000000000000000000000000000000000000000002dc6c0",
          "blockHash": "0xf53b55c266826c59717381278e78f9e6aa105c35014d72b854b16c12712095c4",
          "blockNumber": "0x176d202c",
          "transactionHash": "0xe0ef19d89ee8b9f058d1aa2db91c8be218e9b721aedae326011038f5278ce4bc",
          "transactionIndex": "0x4",
          "logIndex": "0x1",
          "removed": false
        },
        {
          "address": "0xdb140b58d6e3988f5c453e192295748c1438d8d4",
          "topics": [
            "0xddf252ad1be2c89b69c2b068fc378daa952ba7f163c4a11628f55a4df523b3ef",
            "0x0000000000000000000000000000000000000000000000000000000000000000",
            "0x000000000000000000000000c4660f40ba6fe89b3ba7ded44cf1db73d731c95e",
            "0x0000000000000000000000000000000000000000000000000000000000000002"
          ],
          "data": "0x",
          "blockHash": "0xf53b55c266826c59717381278e78f9e6aa105c35014d72b854b16c12712095c4",
          "blockNumber": "0x176d202c",
          "transactionHash": "0xe0ef19d89ee8b9f058d1aa2db91c8be218e9b721aedae326011038f5278ce4bc",
          "transactionIndex": "0x4",
          "logIndex": "0x2",
          "removed": false
        },
        {
          "address": "0xdb140b58d6e3988f5c453e192295748c1438d8d4",
          "topics": [
            "0xe4f48c240d3b994948aa54f3e2f5fca59263dfe1d52b6e4cf39a5d249b5ccb65",
            "0x0000000000000000000000000000000000000000000000000000000000000002",
            "0x0000000000000000000000000000000000000000000000000000000000000000",
            "0x0000000000000000000000000000000000000000000000000000000000000000"
          ],
          "data": "0x",
          "blockHash": "0xf53b55c266826c59717381278e78f9e6aa105c35014d72b854b16c12712095c4",
          "blockNumber": "0x176d202c",
          "transactionHash": "0xe0ef19d89ee8b9f058d1aa2db91c8be218e9b721aedae326011038f5278ce4bc",
          "transactionIndex": "0x4",
          "logIndex": "0x3",
          "removed": false
        },
        {
          "address": "0xdb140b58d6e3988f5c453e192295748c1438d8d4",
          "topics": [
            "0x0b2aac84f3ec956911fd78eae5311062972ff949f38412e8da39069d9f068cc6",
            "0x0000000000000000000000000000000000000000000000000000000000000000",
            "0x0000000000000000000000000000000000000000000000000000000000000002"
          ],
          "data": "0x00000000000000000000000000000000000000000000000000000000002dc6c0",
          "blockHash": "0xf53b55c266826c59717381278e78f9e6aa105c35014d72b854b16c12712095c4",
          "blockNumber": "0x176d202c",
          "transactionHash": "0xe0ef19d89ee8b9f058d1aa2db91c8be218e9b721aedae326011038f5278ce4bc",
          "transactionIndex": "0x4",
          "logIndex": "0x4",
          "removed": false
        },
        {
          "address": "0xdb140b58d6e3988f5c453e192295748c1438d8d4",
          "topics": [
            "0xfd1ba5519feb014ad2f631cbd516bd3cec96be935749391554d122972593e7bf",
            "0x000000000000000000000000c4660f40ba6fe89b3ba7ded44cf1db73d731c95e",
            "0x000000000000000000000000c4660f40ba6fe89b3ba7ded44cf1db73d731c95e"
          ],
          "data": "0x00000000000000000000000000000000000000000000000000000000002dc6c0",
          "blockHash": "0xf53b55c266826c59717381278e78f9e6aa105c35014d72b854b16c12712095c4",
          "blockNumber": "0x176d202c",
          "transactionHash": "0xe0ef19d89ee8b9f058d1aa2db91c8be218e9b721aedae326011038f5278ce4bc",
          "transactionIndex": "0x4",
          "logIndex": "0x5",
          "removed": false
        }
      ],
      "logsBloom": "0x04000000000000000000000000000000000000000000001000000000000000000000000000000000000000000000000020000001000000000000000000200000000000000000000000000008000000000000000100000000000000000000000000000000020000000000000000000800000000000000000000001010000000000000000000000010400000000000000000008000000000000000040000000000020000000000000000000100200002000000000000000000000000000000000000002002100000000002000004000000000000000040008000000000000020000010000000000000000100000000200200000000008001000000000000000000",
      "type": "0x2",
      "transactionHash": "0xe0ef19d89ee8b9f058d1aa2db91c8be218e9b721aedae326011038f5278ce4bc",
      "transactionIndex": "0x4",
      "blockHash": "0xf53b55c266826c59717381278e78f9e6aa105c35014d72b854b16c12712095c4",
      "blockNumber": "0x176d202c",
      "gasUsed": "0x3fd56",
      "effectiveGasPrice": "0x989680",
      "from": "0xc4660f40ba6fe89b3ba7ded44cf1db73d731c95e",
      "to": "0xdb140b58d6e3988f5c453e192295748c1438d8d4",
      "contractAddress": null,
      "gasUsedForL1": "0x459",
      "l1BlockNumber": "0x168deab",
      "timeboosted": false
    }
  ],
  "libraries": [],
  "pending": [],
  "returns": {},
  "timestamp": 1761340812,
  "chain": 42161,
  "commit": "a4eb371"
}