{
  "transactions": [
    {
      "hash": "0x2108b66a86ecccd72338453f5e4c8f361b320c77e40808a1527bf72e5c3ed579",
      "transactionType": "CALL",
      "contractName": null,
      "contractAddress": "0x98519ccdb35c9ed521bbcd00435fe2ab2d1305f7",
      "function": "setRefuelPolicy(uint256,uint256,uint128,uint128,address)",
      "arguments": [
        "1",
        "10",
        "500000",
        "1000000",
        "0x2ccb42B46e63BdA5eecc216bFDFC7a4a26A2e841"
      ],
      "transaction": {
        "from": "0x2ccb42b46e63bda5eecc216bfdfc7a4a26a2e841",
        "to": "0x98519ccdb35c9ed521bbcd00435fe2ab2d1305f7",
        "gas": "0x1ac4a",
        "value": "0x0",
        "input": "0x5a2419f80000000000000000000000000000000000000000000000000000000000000001000000000000000000000000000000000000000000000000000000000000000a000000000000000000000000000000000000000000000000000000000007a12000000000000000000000000000000000000000000000000000000000000f42400000000000000000000000002ccb42b46e63bda5eecc216bfdfc7a4a26a2e841",
        "nonce": "0xd",
        "chainId": "0xa4b1"
      },
      "additionalContracts": [],
      "isFixedGasLimit": false
    }
  ],
  "receipts": [
    {
      "status": "0x1",
      "cumulativeGasUsed": "0x33692",
      "logs": [],
      "logsBloom": "0x00000000000000000000000000000000000000000000000000000000000000000000000000000000000000000000000000000000000000000000000000000000000000000000000000000000000000000000000000000000000000000000000000000000000000000000000000000000000000000000000000000000000000000000000000000000000000000000000000000000000000000000000000000000000000000000000000000000000000000000000000000000000000000000000000000000000000000000000000000000000000000000000000000000000000000000000000000000000000000000000000000000000000000000000000000000",
      "type": "0x2",
      "transactionHash": "0x2108b66a86ecccd72338453f5e4c8f361b320c77e40808a1527bf72e5c3ed579",
      "transactionIndex": "0x3",
      "blockHash": "0x722f28382051416138058ebb8e3e116506f3968c7c3a99db2e53bb28696700c6",
      "blockNumber": "0x17705fba",
      "gasUsed": "0x1455c",
      "effectiveGasPrice": "0x989680",
      "from": "0x2ccb42b46e63bda5eecc216bfdfc7a4a26a2e841",
      "to": "0x98519ccdb35c9ed521bbcd00435fe2ab2d1305f7",
      "contractAddress": null,
      "gasUsedForL1": "0x265",
      "l1BlockNumber": "0x168efdc",
      "timeboosted": false
    }
  ],
  "libraries": [],
  "pending": [],
  "returns": {},
  "timestamp": 1761394005363,
  "chain": 42161,
  "commit": "cb16201"
}