{
  "transactions": [
    {
      "hash": "0xe2caad3a8097bd5582d92bca498359d0f6d14e271617d8dc1ca9f66a1e0bec77",
      "transactionType": "CALL",
      "contractName": null,
      "contractAddress": "0x1e479c2650a29354b290e12d20af94c3a4c6b4a2",
      "function": "setRefuelPolicy(uint256,uint256,uint128,uint128,address)",
      "arguments": [
        "2",
        "10",
        "500000",
        "3000000",
        "0xc4660f40BA6Fe89b3BA7Ded44Cf1DB73D731c95e"
      ],
      "transaction": {
        "from": "0xc4660f40ba6fe89b3ba7ded44cf1db73d731c95e",
        "to": "0x1e479c2650a29354b290e12d20af94c3a4c6b4a2",
        "gas": "0x1acda",
        "value": "0x0",
        "input": "0x5a2419f80000000000000000000000000000000000000000000000000000000000000002000000000000000000000000000000000000000000000000000000000000000a000000000000000000000000000000000000000000000000000000000007a12000000000000000000000000000000000000000000000000000000000002dc6c0000000000000000000000000c4660f40ba6fe89b3ba7ded44cf1db73d731c95e",
        "nonce": "0x17",
        "chainId": "0xa4b1"
      },
      "additionalContracts": [],
      "isFixedGasLimit": false
    }
  ],
  "receipts": [
    {
      "status": "0x1",
      "cumulativeGasUsed": "0x83cc3",
      "logs": [],
      "logsBloom": "0x00000000000000000000000000000000000000000000000000000000000000000000000000000000000000000000000000000000000000000000000000000000000000000000000000000000000000000000000000000000000000000000000000000000000000000000000000000000000000000000000000000000000000000000000000000000000000000000000000000000000000000000000000000000000000000000000000000000000000000000000000000000000000000000000000000000000000000000000000000000000000000000000000000000000000000000000000000000000000000000000000000000000000000000000000000000",
      "type": "0x2",
      "transactionHash": "0xe2caad3a8097bd5582d92bca498359d0f6d14e271617d8dc1ca9f66a1e0bec77",
      "transactionIndex": "0xb",
      "blockHash": "0xd77818574498706177a6f3f03dd584ba2ba337c60d96ae09d9e99214f106c7da",
      "blockNumber": "0x176c4ef8",
      "gasUsed": "0x145bf",
      "effectiveGasPrice": "0x989680",
      "from": "0xc4660f40ba6fe89b3ba7ded44cf1db73d731c95e",
      "to": "0x1e479c2650a29354b290e12d20af94c3a4c6b4a2",
      "contractAddress": null,
      "gasUsedForL1": "0x2c8",
      "l1BlockNumber": "0x168da56",
      "timeboosted": false
    }
  ],
  "libraries": [],
  "pending": [],
  "returns": {},
  "timestamp": 1761327432,
  "chain": 42161,
  "commit": "27e81f6"
}