{
  "transactions": [
    {
      "hash": "0x0db50c57f832007c6cfda624f4ef3c7fb561f7929a566984a0d222187a78afd5",
      "transactionType": "CALL",
      "contractName": null,
      "contractAddress": "0x1e479c2650a29354b290e12d20af94c3a4c6b4a2",
      "function": "mintWithSig((address,uint256,(address,address,uint256,uint256,uint8,bytes32,bytes32),address,uint256,uint256),bytes)",
      "arguments": [
        "(0xc4660f40BA6Fe89b3BA7Ded44Cf1DB73D731c95e, 1000000, (0xc4660f40BA6Fe89b3BA7Ded44Cf1DB73D731c95e, 0x1e479C2650a29354B290E12d20af94c3a4c6B4a2, 1000000, 1761328392, 27, 0x729e3f0596604bee8bd15e6fed95b91d145446caea5e66575faa57ffa849f529, 0x58989aac94ca8edc58c92a74f0975bc2aa4ead1eab39d235cb1611a1f9fdfc43), 0xc4660f40BA6Fe89b3BA7Ded44Cf1DB73D731c95e, 0, 1761328392)",
        "0x05128af18ed36ec83996ba9f19b42bfbc9a8fc6528a606d654fca893d29c4d9e43b79fc60af189df1f3e878686715694f20f089c58f9578efc0268f5ddcbdcf01c"
      ],
      "transaction": {
        "from": "0xc4660f40ba6fe89b3ba7ded44cf1db73d731c95e",
        "to": "0x1e479c2650a29354b290e12d20af94c3a4c6b4a2",
        "gas": "0x68528",
        "value": "0x0",
        "input": "0x2b8eeba5000000000000000000000000c4660f40ba6fe89b3ba7ded44cf1db73d731c95e00000000000000000000000000000000000000000000000000000000000f4240000000000000000000000000c4660f40ba6fe89b3ba7ded44cf1db73d731c95e0000000000000000000000001e479c2650a29354b290e12d20af94c3a4c6b4a200000000000000000000000000000000000000000000000000000000000f42400000000000000000000000000000000000000000000000000000000068fbbd08000000000000000000000000000000000000000000000000000000000000001b729e3f0596604bee8bd15e6fed95b91d145446caea5e66575faa57ffa849f52958989aac94ca8edc58c92a74f0975bc2aa4ead1eab39d235cb1611a1f9fdfc43000000000000000000000000c4660f40ba6fe89b3ba7ded44cf1db73d731c95e00000000000000000000000000000000000000000000000000000000000000000000000000000000000000000000000000000000000000000000000068fbbd0800000000000000000000000000000000000000000000000000000000000001a0000000000000000000000000000000000000000000000000000000000000004105128af18ed36ec83996ba9f19b42bfbc9a8fc6528a606d654fca893d29c4d9e43b79fc60af189df1f3e878686715694f20f089c58f9578efc0268f5ddcbdcf01c00000000000000000000000000000000000000000000000000000000000000",
        "nonce": "0x13",
        "chainId": "0xa4b1"
      },
      "additionalContracts": [],
      "isFixedGasLimit": false
    }
  ],
  "receipts": [
    {
      "status": "0x1",
      "cumulativeGasUsed": "0x84e34",
      "logs": [
        {
          "address": "0xaf88d065e77c8cc2239327c5edb3a432268e5831",
          "topics": [
            "0x8c5be1e5ebec7d5bd14f71427d1e84f3dd0314c0f7b2291e5b200ac8c7c3b925",
            "0x000000000000000000000000c4660f40ba6fe89b3ba7ded44cf1db73d731c95e",
            "0x0000000000000000000000001e479c2650a29354b290e12d20af94c3a4c6b4a2"
          ],
          "data": "0x00000000000000000000000000000000000000000000000000000000000f4240",
          "blockHash": "0x8aaa4a0a7459829a5ecb0425fe7536c867a1ab309558880e20170f5e0293fd9b",
          "blockNumber": "0x176c25ef",
          "transactionHash": "0x0db50c57f832007c6cfda624f4ef3c7fb561f7929a566984a0d222187a78afd5",
          "transactionIndex": "0x3",
          "logIndex": "0xa",
          "removed": false
        },
        {
          "address": "0xaf88d065e77c8cc2239327c5edb3a432268e5831",
          "topics": [
            "0xddf252ad1be2c89b69c2b068fc378daa952ba7f163c4a11628f55a4df523b3ef",
            "0x000000000000000000000000c4660f40ba6fe89b3ba7ded44cf1db73d731c95e",
            "0x0000000000000000000000001e479c2650a29354b290e12d20af94c3a4c6b4a2"
          ],
          "data": "0x00000000000000000000000000000000000000000000000000000000000f4240",
          "blockHash": "0x8aaa4a0a7459829a5ecb0425fe7536c867a1ab309558880e20170f5e0293fd9b",
          "blockNumber": "0x176c25ef",
          "transactionHash": "0x0db50c57f832007c6cfda624f4ef3c7fb561f7929a566984a0d222187a78afd5",
          "transactionIndex": "0x3",
          "logIndex": "0xb",
          "removed": false
        },
        {
          "address": "0x1e479c2650a29354b290e12d20af94c3a4c6b4a2",
          "topics": [
            "0xddf252ad1be2c89b69c2b068fc378daa952ba7f163c4a11628f55a4df523b3ef",
            "0x0000000000000000000000000000000000000000000000000000000000000000",
            "0x000000000000000000000000c4660f40ba6fe89b3ba7ded44cf1db73d731c95e",
            "0x0000000000000000000000000000000000000000000000000000000000000001"
          ],
          "data": "0x",
          "blockHash": "0x8aaa4a0a7459829a5ecb0425fe7536c867a1ab309558880e20170f5e0293fd9b",
          "blockNumber": "0x176c25ef",
          "transactionHash": "0x0db50c57f832007c6cfda624f4ef3c7fb561f7929a566984a0d222187a78afd5",
          "transactionIndex": "0x3",
          "logIndex": "0xc",
          "removed": false
        },
        {
          "address": "0x1e479c2650a29354b290e12d20af94c3a4c6b4a2",
          "topics": [
            "0xe4f48c240d3b994948aa54f3e2f5fca59263dfe1d52b6e4cf39a5d249b5ccb65",
            "0x0000000000000000000000000000000000000000000000000000000000000001",
            "0x0000000000000000000000000000000000000000000000000000000000000000",
            "0x0000000000000000000000000000000000000000000000000000000000000000"
          ],
          "data": "0x",
          "blockHash": "0x8aaa4a0a7459829a5ecb0425fe7536c867a1ab309558880e20170f5e0293fd9b",
          "blockNumber": "0x176c25ef",
          "transactionHash": "0x0db50c57f832007c6cfda624f4ef3c7fb561f7929a566984a0d222187a78afd5",
          "transactionIndex": "0x3",
          "logIndex": "0xd",
          "removed": false
        },
        {
          "address": "0x1e479c2650a29354b290e12d20af94c3a4c6b4a2",
          "topics": [
            "0x0b2aac84f3ec956911fd78eae5311062972ff949f38412e8da39069d9f068cc6",
            "0x0000000000000000000000000000000000000000000000000000000000000000",
            "0x0000000000000000000000000000000000000000000000000000000000000001"
          ],
          "data": "0x00000000000000000000000000000000000000000000000000000000000f4240",
          "blockHash": "0x8aaa4a0a7459829a5ecb0425fe7536c867a1ab309558880e20170f5e0293fd9b",
          "blockNumber": "0x176c25ef",
          "transactionHash": "0x0db50c57f832007c6cfda624f4ef3c7fb561f7929a566984a0d222187a78afd5",
          "transactionIndex": "0x3",
          "logIndex": "0xe",
          "removed": false
        },
        {
          "address": "0x1e479c2650a29354b290e12d20af94c3a4c6b4a2",
          "topics": [
            "0xfd1ba5519feb014ad2f631cbd516bd3cec96be935749391554d122972593e7bf",
            "0x000000000000000000000000c4660f40ba6fe89b3ba7ded44cf1db73d731c95e",
            "0x000000000000000000000000c4660f40ba6fe89b3ba7ded44cf1db73d731c95e"
          ],
          "data": "0x00000000000000000000000000000000000000000000000000000000000f4240",
          "blockHash": "0x8aaa4a0a7459829a5ecb0425fe7536c867a1ab309558880e20170f5e0293fd9b",
          "blockNumber": "0x176c25ef",
          "transactionHash": "0x0db50c57f832007c6cfda624f4ef3c7fb561f7929a566984a0d222187a78afd5",
          "transactionIndex": "0x3",
          "logIndex": "0xf",
          "removed": false
        }
      ],
      "logsBloom": "0x00000000000000000000000000000000001000000000001000000000000000400000000000000000000000000000000020000001000000000000000000240000000000000000000000000008000000000000000000040000000000000000000000000000020000000000000000000800000000000000000000001010000000040000000000000000400000000000000000000000000000000000040000000000020000000000000000000000000002000000000000000000000000002000000000002002100000000002000000000000000000000000008000000000000060000010000000000000000100000000200600000000000001000000200000000000",
      "type": "0x2",
      "transactionHash": "0x0db50c57f832007c6cfda624f4ef3c7fb561f7929a566984a0d222187a78afd5",
      "transactionIndex": "0x3",
      "blockHash": "0x8aaa4a0a7459829a5ecb0425fe7536c867a1ab309558880e20170f5e0293fd9b",
      "blockNumber": "0x176c25ef",
      "gasUsed": "0x4b2fc",
      "effectiveGasPrice": "0x989680",
      "from": "0xc4660f40ba6fe89b3ba7ded44cf1db73d731c95e",
      "to": "0x1e479c2650a29354b290e12d20af94c3a4c6b4a2",
      "contractAddress": null,
      "gasUsedForL1": "0x382",
      "l1BlockNumber": "0x168d97e",
      "timeboosted": false
    }
  ],
  "libraries": [],
  "pending": [],
  "returns": {},
  "timestamp": 1761324809,
  "chain": 42161,
  "commit": "27e81f6"
}