{
  "transactions": [
    {
      "hash": "0x694ff151f6edb55f46438454fd7b282c634f1e4162b5579597f7eee1d8589b88",
      "transactionType": "CALL",
      "contractName": null,
      "contractAddress": "0x86e8cc02f5ccd4dc84801e7546ad3731401e54ec",
      "function": "withdrawAllUSDC(uint256,address)",
      "arguments": [
        "1",
        "0xc4660f40BA6Fe89b3BA7Ded44Cf1DB73D731c95e"
      ],
      "transaction": {
        "from": "0xc4660f40ba6fe89b3ba7ded44cf1db73d731c95e",
        "to": "0x86e8cc02f5ccd4dc84801e7546ad3731401e54ec",
        "gas": "0x16b66",
        "value": "0x0",
        "input": "0xd2e17dd20000000000000000000000000000000000000000000000000000000000000001000000000000000000000000c4660f40ba6fe89b3ba7ded44cf1db73d731c95e",
        "nonce": "0xd",
        "chainId": "0xa4b1"
      },
      "additionalContracts": [],
      "isFixedGasLimit": false
    }
  ],
  "receipts": [
    {
      "status": "0x1",
      "cumulativeGasUsed": "0x5084f",
      "logs": [
        {
          "address": "0x86e8cc02f5ccd4dc84801e7546ad3731401e54ec",
          "topics": [
            "0x0b2aac84f3ec956911fd78eae5311062972ff949f38412e8da39069d9f068cc6",
            "0x0000000000000000000000000000000000000000000000000000000000000001",
            "0x0000000000000000000000000000000000000000000000000000000000000000"
          ],
          "data": "0x000000000000000000000000000000000000000000000000000000000016e360",
          "blockHash": "0x353bc2cdff08746c04eeb99b93abd933f7ceaa74916a2939f5ad2018f9a1bb11",
          "blockNumber": "0x176c185b",
          "blockTimestamp": "0x68fbaba1",
          "transactionHash": "0x694ff151f6edb55f46438454fd7b282c634f1e4162b5579597f7eee1d8589b88",
          "transactionIndex": "0x4",
          "logIndex": "0x3",
          "removed": false
        },
        {
          "address": "0xaf88d065e77c8cc2239327c5edb3a432268e5831",
          "topics": [
            "0xddf252ad1be2c89b69c2b068fc378daa952ba7f163c4a11628f55a4df523b3ef",
            "0x00000000000000000000000086e8cc02f5ccd4dc84801e7546ad3731401e54ec",
            "0x000000000000000000000000c4660f40ba6fe89b3ba7ded44cf1db73d731c95e"
          ],
          "data": "0x000000000000000000000000000000000000000000000000000000000016e360",
          "blockHash": "0x353bc2cdff08746c04eeb99b93abd933f7ceaa74916a2939f5ad2018f9a1bb11",
          "blockNumber": "0x176c185b",
          "blockTimestamp": "0x68fbaba1",
          "transactionHash": "0x694ff151f6edb55f46438454fd7b282c634f1e4162b5579597f7eee1d8589b88",
          "transactionIndex": "0x4",
          "logIndex": "0x4",
          "removed": false
        },
        {
          "address": "0x86e8cc02f5ccd4dc84801e7546ad3731401e54ec",
          "topics": [
            "0x82f65e414029cb5d9668f192f37ffff1e78b03d5e84dd0f121786ac6601472a9",
            "0x000000000000000000000000c4660f40ba6fe89b3ba7ded44cf1db73d731c95e",
            "0x0000000000000000000000000000000000000000000000000000000000000001",
            "0x000000000000000000000000c4660f40ba6fe89b3ba7ded44cf1db73d731c95e"
          ],
          "data": "0x000000000000000000000000000000000000000000000000000000000016e360",
          "blockHash": "0x353bc2cdff08746c04eeb99b93abd933f7ceaa74916a2939f5ad2018f9a1bb11",
          "blockNumber": "0x176c185b",
          "blockTimestamp": "0x68fbaba1",
          "transactionHash": "0x694ff151f6edb55f46438454fd7b282c634f1e4162b5579597f7eee1d8589b88",
          "transactionIndex": "0x4",
          "logIndex": "0x5",
          "removed": false
        }
      ],
      "logsBloom": "0x02000000000000000000000000000000000000000000001000000000000000000000000000000000000000000000400000000001000080000000000000040000000000000000000000000008000000000000000020040000000000000000000000000000020000000000000000000800000000000000000000009010000000000000000000010000000000000000000000000004000000000000000000000000000000000000000000000000000000000000000000000000000000000000000000002002100000000000000000000001000000000000000000000000000060001000000000000000000100000000200200000000000001000000000000000000",
      "type": "0x2",
      "transactionHash": "0x694ff151f6edb55f46438454fd7b282c634f1e4162b5579597f7eee1d8589b88",
      "transactionIndex": "0x4",
      "blockHash": "0x353bc2cdff08746c04eeb99b93abd933f7ceaa74916a2939f5ad2018f9a1bb11",
      "blockNumber": "0x176c185b",
      "gasUsed": "0xf055",
      "effectiveGasPrice": "0x989680",
      "from": "0xc4660f40ba6fe89b3ba7ded44cf1db73d731c95e",
      "to": "0x86e8cc02f5ccd4dc84801e7546ad3731401e54ec",
      "contractAddress": null,
      "gasUsedForL1": "0x3bf",
      "l1BlockNumber": "0x168d936",
      "timeboosted": false
    }
  ],
  "libraries": [],
  "pending": [],
  "returns": {},
  "timestamp": 1761323940,
  "chain": 42161,
  "commit": "27e81f6"
}