{
  "transactions": [
    {
      "hash": "0x6ca3918cf0f82985b560a87baddba3001c28eb5daba5fcd530362317accab606",
      "transactionType": "CALL",
      "contractName": null,
      "contractAddress": "0x93d68b4c0793ff1d4d11f049f8682a1e256ac59d",
      "function": "mintWithSig((address,uint256,(address,address,uint256,uint256,uint8,bytes32,bytes32),address,uint256,uint256),bytes)",
      "arguments": [
        "(0xc4660f40BA6Fe89b3BA7Ded44Cf1DB73D731c95e, 1000000, (0xc4660f40BA6Fe89b3BA7Ded44Cf1DB73D731c95e, 0x93D68B4C0793fF1D4D11f049F8682a1e256aC59d, 1000000, 1761323883, 28, 0x1e77cc22b96c7a2e860f13743a04381a736f025dcf359579eb690983cd6db9a1, 0x170cc066b0f3fc8adfffc5188a3c3b2c7cec6ec9f753c1d9f1200d3baf87e0ec), 0xc4660f40BA6Fe89b3BA7Ded44Cf1DB73D731c95e, 1, 1761323883)",
        "0x22ef1f1f2adfadeb7f9f026e21e879a05ee85518b03cc4f07985cab7cd5334a70a5287bf922211267c5ac618e990054ac77eedcba3090756dda268b7a3a63ef21c"
      ],
      "transaction": {
        "from": "0xc4660f40ba6fe89b3ba7ded44cf1db73d731c95e",
        "to": "0x93d68b4c0793ff1d4d11f049f8682a1e256ac59d",
        "gas": "0x62a7f",
        "value": "0x0",
        "input": "0x2b8eeba5000000000000000000000000c4660f40ba6fe89b3ba7ded44cf1db73d731c95e00000000000000000000000000000000000000000000000000000000000f4240000000000000000000000000c4660f40ba6fe89b3ba7ded44cf1db73d731c95e00000000000000000000000093d68b4c0793ff1d4d11f049f8682a1e256ac59d00000000000000000000000000000000000000000000000000000000000f42400000000000000000000000000000000000000000000000000000000068fbab6b000000000000000000000000000000000000000000000000000000000000001c1e77cc22b96c7a2e860f13743a04381a736f025dcf359579eb690983cd6db9a1170cc066b0f3fc8adfffc5188a3c3b2c7cec6ec9f753c1d9f1200d3baf87e0ec000000000000000000000000c4660f40ba6fe89b3ba7ded44cf1db73d731c95e00000000000000000000000000000000000000000000000000000000000000010000000000000000000000000000000000000000000000000000000068fbab6b00000000000000000000000000000000000000000000000000000000000001a0000000000000000000000000000000000000000000000000000000000000004122ef1f1f2adfadeb7f9f026e21e879a05ee85518b03cc4f07985cab7cd5334a70a5287bf922211267c5ac618e990054ac77eedcba3090756dda268b7a3a63ef21c00000000000000000000000000000000000000000000000000000000000000",
        "nonce": "0x6",
        "chainId": "0xa4b1"
      },
      "additionalContracts": [],
      "isFixedGasLimit": false
    }
  ],
  "receipts": [
    {
      "status": "0x1",
      "cumulativeGasUsed": "0xd5012",
      "logs": [
        {
          "address": "0xaf88d065e77c8cc2239327c5edb3a432268e5831",
          "topics": [
            "0x8c5be1e5ebec7d5bd14f71427d1e84f3dd0314c0f7b2291e5b200ac8c7c3b925",
            "0x000000000000000000000000c4660f40ba6fe89b3ba7ded44cf1db73d731c95e",
            "0x00000000000000000000000093d68b4c0793ff1d4d11f049f8682a1e256ac59d"
          ],
          "data": "0x00000000000000000000000000000000000000000000000000000000000f4240",
          "blockHash": "0x67b129611c3cb0120340a388bc71f5f759325e05e3f3c2b80400898610f653d7",
          "blockNumber": "0x176bdf5d",
          "transactionHash": "0x6ca3918cf0f82985b560a87baddba3001c28eb5daba5fcd530362317accab606",
          "transactionIndex": "0x3",
          "logIndex": "0x10",
          "removed": false
        },
        {
          "address": "0xaf88d065e77c8cc2239327c5edb3a432268e5831",
          "topics": [
            "0xddf252ad1be2c89b69c2b068fc378daa952ba7f163c4a11628f55a4df523b3ef",
            "0x000000000000000000000000c4660f40ba6fe89b3ba7ded44cf1db73d731c95e",
            "0x00000000000000000000000093d68b4c0793ff1d4d11f049f8682a1e256ac59d"
          ],
          "data": "0x00000000000000000000000000000000000000000000000000000000000f4240",
          "blockHash": "0x67b129611c3cb0120340a388bc71f5f759325e05e3f3c2b80400898610f653d7",
          "blockNumber": "0x176bdf5d",
          "transactionHash": "0x6ca3918cf0f82985b560a87baddba3001c28eb5daba5fcd530362317accab606",
          "transactionIndex": "0x3",
          "logIndex": "0x11",
          "removed": false
        },
        {
          "address": "0x93d68b4c0793ff1d4d11f049f8682a1e256ac59d",
          "topics": [
            "0xddf252ad1be2c89b69c2b068fc378daa952ba7f163c4a11628f55a4df523b3ef",
            "0x0000000000000000000000000000000000000000000000000000000000000000",
            "0x000000000000000000000000c4660f40ba6fe89b3ba7ded44cf1db73d731c95e",
            "0x0000000000000000000000000000000000000000000000000000000000000002"
          ],
          "data": "0x",
          "blockHash": "0x67b129611c3cb0120340a388bc71f5f759325e05e3f3c2b80400898610f653d7",
          "blockNumber": "0x176bdf5d",
          "transactionHash": "0x6ca3918cf0f82985b560a87baddba3001c28eb5daba5fcd530362317accab606",
          "transactionIndex": "0x3",
          "logIndex": "0x12",
          "removed": false
        },
        {
          "address": "0x93d68b4c0793ff1d4d11f049f8682a1e256ac59d",
          "topics": [
            "0xe4f48c240d3b994948aa54f3e2f5fca59263dfe1d52b6e4cf39a5d249b5ccb65",
            "0x0000000000000000000000000000000000000000000000000000000000000002",
            "0x0000000000000000000000000000000000000000000000000000000000000000",
            "0x0000000000000000000000000000000000000000000000000000000000000000"
          ],
          "data": "0x",
          "blockHash": "0x67b129611c3cb0120340a388bc71f5f759325e05e3f3c2b80400898610f653d7",
          "blockNumber": "0x176bdf5d",
          "transactionHash": "0x6ca3918cf0f82985b560a87baddba3001c28eb5daba5fcd530362317accab606",
          "transactionIndex": "0x3",
          "logIndex": "0x13",
          "removed": false
        },
        {
          "address": "0x93d68b4c0793ff1d4d11f049f8682a1e256ac59d",
          "topics": [
            "0x0b2aac84f3ec956911fd78eae5311062972ff949f38412e8da39069d9f068cc6",
            "0x0000000000000000000000000000000000000000000000000000000000000000",
            "0x0000000000000000000000000000000000000000000000000000000000000002"
          ],
          "data": "0x00000000000000000000000000000000000000000000000000000000000f4240",
          "blockHash": "0x67b129611c3cb0120340a388bc71f5f759325e05e3f3c2b80400898610f653d7",
          "blockNumber": "0x176bdf5d",
          "transactionHash": "0x6ca3918cf0f82985b560a87baddba3001c28eb5daba5fcd530362317accab606",
          "transactionIndex": "0x3",
          "logIndex": "0x14",
          "removed": false
        },
        {
          "address": "0x93d68b4c0793ff1d4d11f049f8682a1e256ac59d",
          "topics": [
            "0xfd1ba5519feb014ad2f631cbd516bd3cec96be935749391554d122972593e7bf",
            "0x000000000000000000000000c4660f40ba6fe89b3ba7ded44cf1db73d731c95e",
            "0x000000000000000000000000c4660f40ba6fe89b3ba7ded44cf1db73d731c95e"
          ],
          "data": "0x00000000000000000000000000000000000000000000000000000000000f4240",
          "blockHash": "0x67b129611c3cb0120340a388bc71f5f759325e05e3f3c2b80400898610f653d7",
          "blockNumber": "0x176bdf5d",
          "transactionHash": "0x6ca3918cf0f82985b560a87baddba3001c28eb5daba5fcd530362317accab606",
          "transactionIndex": "0x3",
          "logIndex": "0x15",
          "removed": false
        }
      ],
      "logsBloom": "0x04000000000000000000000000000000000000000000001000000000000000000000000000000000000000000040000020000001000000000000000000200000000000000000004000000008000000000000000000000000020000000000000000000000020000000000000000000800000000000000000000001010000000000000000000000000400000000000000000000000000000000000040000000000020000000000000000000100000002000000000000000000000000000000000000002002100000000002000000000000000000000000008000000000000020100010000000020000000100000000200200000000008001000000000000000000",
      "type": "0x2",
      "transactionHash": "0x6ca3918cf0f82985b560a87baddba3001c28eb5daba5fcd530362317accab606",
      "transactionIndex": "0x3",
      "blockHash": "0x67b129611c3cb0120340a388bc71f5f759325e05e3f3c2b80400898610f653d7",
      "blockNumber": "0x176bdf5d",
      "gasUsed": "0x44b14",
      "effectiveGasPrice": "0x989680",
      "from": "0xc4660f40ba6fe89b3ba7ded44cf1db73d731c95e",
      "to": "0x93d68b4c0793ff1d4d11f049f8682a1e256ac59d",
      "contractAddress": null,
      "gasUsedForL1": "0xf37",
      "l1BlockNumber": "0x168d80a",
      "timeboosted": false
    }
  ],
  "libraries": [],
  "pending": [],
  "returns": {},
  "timestamp": 1761320298,
  "chain": 42161,
  "commit": "5460833"
}