{
  "transactions": [
    {
      "hash": "0x7020c74af08a82ba24429cae0bcb232dd59e73f5883e97c708df10377b639546",
      "transactionType": "CALL",
      "contractName": null,
      "contractAddress": "0x98519ccdb35c9ed521bbcd00435fe2ab2d1305f7",
      "function": "mintWithSig((address,uint256,(address,address,uint256,uint256,uint8,bytes32,bytes32),address,uint256,uint256),bytes)",
      "arguments": [
        "(0x2ccb42B46e63BdA5eecc216bFDFC7a4a26A2e841, 3000000, (0x2ccb42B46e63BdA5eecc216bFDFC7a4a26A2e841, 0x98519ccdb35C9ed521bbcd00435fE2ab2D1305f7, 3000000, 1761364570, 28, 0xce7da25be689f1553379203371d599c3403a60fab399f5cb7070bcd7ad7d07f4, 0x64726883548a3d7c6e4a7f5e4dbd594666093642078b16c5341da80d62ba4c64), 0x2ccb42B46e63BdA5eecc216bFDFC7a4a26A2e841, 0, 1761364570)",
        "0x5919b8dd56cd8feb6032b0da78235cb1fb2885c5ae0f34974dc582a89681b4ed1cd4c8979b05a1c856db8f2d70bfbd41441d22ba08d18c7e44562e5f03e8412d1b"
      ],
      "transaction": {
        "from": "0x4aa5d60cb4d5c02c8ae0e83fc0ec8e30e4a76a7d",
        "to": "0x98519ccdb35c9ed521bbcd00435fe2ab2d1305f7",
        "gas": "0x6911b",
        "value": "0x0",
        "input": "0x2b8eeba50000000000000000000000002ccb42b46e63bda5eecc216bfdfc7a4a26a2e84100000000000000000000000000000000000000000000000000000000002dc6c00000000000000000000000002ccb42b46e63bda5eecc216bfdfc7a4a26a2e84100000000000000000000000098519ccdb35c9ed521bbcd00435fe2ab2d1305f700000000000000000000000000000000000000000000000000000000002dc6c00000000000000000000000000000000000000000000000000000000068fc4a5a000000000000000000000000000000000000000000000000000000000000001cce7da25be689f1553379203371d599c3403a60fab399f5cb7070bcd7ad7d07f464726883548a3d7c6e4a7f5e4dbd594666093642078b16c5341da80d62ba4c640000000000000000000000002ccb42b46e63bda5eecc216bfdfc7a4a26a2e84100000000000000000000000000000000000000000000000000000000000000000000000000000000000000000000000000000000000000000000000068fc4a5a00000000000000000000000000000000000000000000000000000000000001a000000000000000000000000000000000000000000000000000000000000000415919b8dd56cd8feb6032b0da78235cb1fb2885c5ae0f34974dc582a89681b4ed1cd4c8979b05a1c856db8f2d70bfbd41441d22ba08d18c7e44562e5f03e8412d1b00000000000000000000000000000000000000000000000000000000000000",
        "nonce": "0x0",
        "chainId": "0xa4b1"
      },
      "additionalContracts": [],
      "isFixedGasLimit": false
    }
  ],
  "receipts": [
    {
      "status": "0x1",
      "cumulativeGasUsed": "0xaeed5",
      "logs": [
        {
          "address": "0xaf88d065e77c8cc2239327c5edb3a432268e5831",
          "topics": [
            "0x8c5be1e5ebec7d5bd14f71427d1e84f3dd0314c0f7b2291e5b200ac8c7c3b925",
            "0x0000000000000000000000002ccb42b46e63bda5eecc216bfdfc7a4a26a2e841",
            "0x00000000000000000000000098519ccdb35c9ed521bbcd00435fe2ab2d1305f7"
          ],
          "data": "0x00000000000000000000000000000000000000000000000000000000002dc6c0",
          "blockHash": "0xb11a743102ddd2b7563365bebb1cb7b5e534a2ff7a24ba19ee8d2e1ee4c56606",
          "blockNumber": "0x176e5b93",
          "blockTimestamp": "0x68fc3c5a",
          "transactionHash": "0x7020c74af08a82ba24429cae0bcb232dd59e73f5883e97c708df10377b639546",
          "transactionIndex": "0x3",
          "logIndex": "0x7",
          "removed": false
        },
        {
          "address": "0xaf88d065e77c8cc2239327c5edb3a432268e5831",
          "topics": [
            "0xddf252ad1be2c89b69c2b068fc378daa952ba7f163c4a11628f55a4df523b3ef",
            "0x0000000000000000000000002ccb42b46e63bda5eecc216bfdfc7a4a26a2e841",
            "0x00000000000000000000000098519ccdb35c9ed521bbcd00435fe2ab2d1305f7"
          ],
          "data": "0x00000000000000000000000000000000000000000000000000000000002dc6c0",
          "blockHash": "0xb11a743102ddd2b7563365bebb1cb7b5e534a2ff7a24ba19ee8d2e1ee4c56606",
          "blockNumber": "0x176e5b93",
          "blockTimestamp": "0x68fc3c5a",
          "transactionHash": "0x7020c74af08a82ba24429cae0bcb232dd59e73f5883e97c708df10377b639546",
          "transactionIndex": "0x3",
          "logIndex": "0x8",
          "removed": false
        },
        {
          "address": "0x98519ccdb35c9ed521bbcd00435fe2ab2d1305f7",
          "topics": [
            "0xddf252ad1be2c89b69c2b068fc378daa952ba7f163c4a11628f55a4df523b3ef",
            "0x0000000000000000000000000000000000000000000000000000000000000000",
            "0x0000000000000000000000002ccb42b46e63bda5eecc216bfdfc7a4a26a2e841",
            "0x0000000000000000000000000000000000000000000000000000000000000001"
          ],
          "data": "0x",
          "blockHash": "0xb11a743102ddd2b7563365bebb1cb7b5e534a2ff7a24ba19ee8d2e1ee4c56606",
          "blockNumber": "0x176e5b93",
          "blockTimestamp": "0x68fc3c5a",
          "transactionHash": "0x7020c74af08a82ba24429cae0bcb232dd59e73f5883e97c708df10377b639546",
          "transactionIndex": "0x3",
          "logIndex": "0x9",
          "removed": false
        },
        {
          "address": "0x98519ccdb35c9ed521bbcd00435fe2ab2d1305f7",
          "topics": [
            "0xe4f48c240d3b994948aa54f3e2f5fca59263dfe1d52b6e4cf39a5d249b5ccb65",
            "0x0000000000000000000000000000000000000000000000000000000000000001",
            "0x0000000000000000000000000000000000000000000000000000000000000000",
            "0x0000000000000000000000000000000000000000000000000000000000000000"
          ],
          "data": "0x",
          "blockHash": "0xb11a743102ddd2b7563365bebb1cb7b5e534a2ff7a24ba19ee8d2e1ee4c56606",
          "blockNumber": "0x176e5b93",
          "blockTimestamp": "0x68fc3c5a",
          "transactionHash": "0x7020c74af08a82ba24429cae0bcb232dd59e73f5883e97c708df10377b639546",
          "transactionIndex": "0x3",
          "logIndex": "0xa",
          "removed": false
        },
        {
          "address": "0x98519ccdb35c9ed521bbcd00435fe2ab2d1305f7",
          "topics": [
            "0x0b2aac84f3ec956911fd78eae5311062972ff949f38412e8da39069d9f068cc6",
            "0x0000000000000000000000000000000000000000000000000000000000000000",
            "0x0000000000000000000000000000000000000000000000000000000000000001"
          ],
          "data": "0x00000000000000000000000000000000000000000000000000000000002dc6c0",
          "blockHash": "0xb11a743102ddd2b7563365bebb1cb7b5e534a2ff7a24ba19ee8d2e1ee4c56606",
          "blockNumber": "0x176e5b93",
          "blockTimestamp": "0x68fc3c5a",
          "transactionHash": "0x7020c74af08a82ba24429cae0bcb232dd59e73f5883e97c708df10377b639546",
          "transactionIndex": "0x3",
          "logIndex": "0xb",
          "removed": false
        },
        {
          "address": "0x98519ccdb35c9ed521bbcd00435fe2ab2d1305f7",
          "topics": [
            "0xfd1ba5519feb014ad2f631cbd516bd3cec96be935749391554d122972593e7bf",
            "0x0000000000000000000000002ccb42b46e63bda5eecc216bfdfc7a4a26a2e841",
            "0x0000000000000000000000002ccb42b46e63bda5eecc216bfdfc7a4a26a2e841"
          ],
          "data": "0x00000000000000000000000000000000000000000000000000000000002dc6c0",
          "blockHash": "0xb11a743102ddd2b7563365bebb1cb7b5e534a2ff7a24ba19ee8d2e1ee4c56606",
          "blockNumber": "0x176e5b93",
          "blockTimestamp": "0x68fc3c5a",
          "transactionHash": "0x7020c74af08a82ba24429cae0bcb232dd59e73f5883e97c708df10377b639546",
          "transactionIndex": "0x3",
          "logIndex": "0xc",
          "removed": false
        }
      ],
      "logsBloom": "0x00000000000000000000000000000000000000000000001000000000000000000000000000000000000000000100000020000001000000000000000000240000000000000000004000000008000000000000000040140000000004000000000000000000020800000000000000000800000000000000001000000010000000000000000000000000400000000000000000000000000000000000040000000000020000000000000008000000000002000000000000000000000000000000000000002002000000000002000000000000000800000000008000000000000060000010000000000000000000000000200200000000000001000000000000000000",
      "type": "0x2",
      "transactionHash": "0x7020c74af08a82ba24429cae0bcb232dd59e73f5883e97c708df10377b639546",
      "transactionIndex": "0x3",
      "blockHash": "0xb11a743102ddd2b7563365bebb1cb7b5e534a2ff7a24ba19ee8d2e1ee4c56606",
      "blockNumber": "0x176e5b93",
      "gasUsed": "0x4bc17",
      "effectiveGasPrice": "0x989680",
      "from": "0x4aa5d60cb4d5c02c8ae0e83fc0ec8e30e4a76a7d",
      "to": "0x98519ccdb35c9ed521bbcd00435fe2ab2d1305f7",
      "contractAddress": null,
      "gasUsedForL1": "0x2d1",
      "l1BlockNumber": "0x168e52f",
      "timeboosted": false
    }
  ],
  "libraries": [],
  "pending": [],
  "returns": {},
  "timestamp": 1761360989373,
  "chain": 42161,
  "commit": "5d21f7e"
}