{
  "transactions": [
    {
      "hash": "0xf4512b5a4fb55f725e10ba3d5d9305d2de60071b72fe691397b05fe9954117e8",
      "transactionType": "CALL",
      "contractName": null,
      "contractAddress": "0x253e967e787d58e2dc76c5ff0db4ab0620664145",
      "function": "setRefuelPolicy(uint256,uint256,uint128,uint128,address)",
      "arguments": [
        "1",
        "10",
        "2000000",
        "3000000",
        "0xc4660f40BA6Fe89b3BA7Ded44Cf1DB73D731c95e"
      ],
      "transaction": {
        "from": "0xc4660f40ba6fe89b3ba7ded44cf1db73d731c95e",
        "to": "0x253e967e787d58e2dc76c5ff0db4ab0620664145",
        "gas": "0x1aae9",
        "value": "0x0",
        "input": "0x5a2419f80000000000000000000000000000000000000000000000000000000000000001000000000000000000000000000000000000000000000000000000000000000a00000000000000000000000000000000000000000000000000000000001e848000000000000000000000000000000000000000000000000000000000002dc6c0000000000000000000000000c4660f40ba6fe89b3ba7ded44cf1db73d731c95e",
        "nonce": "0x22",
        "chainId": "0xa4b1"
      },
      "additionalContracts": [],
      "isFixedGasLimit": false
    }
  ],
  "receipts": [
    {
      "status": "0x1",
      "cumulativeGasUsed": "0x40b98",
      "logs": [],
      "logsBloom": "0x00000000000000000000000000000000000000000000000000000000000000000000000000000000000000000000000000000000000000000000000000000000000000000000000000000000000000000000000000000000000000000000000000000000000000000000000000000000000000000000000000000000000000000000000000000000000000000000000000000000000000000000000000000000000000000000000000000000000000000000000000000000000000000000000000000000000000000000000000000000000000000000000000000000000000000000000000000000000000000000000000000000000000000000000000000000",
      "type": "0x2",
      "transactionHash": "0xf4512b5a4fb55f725e10ba3d5d9305d2de60071b72fe691397b05fe9954117e8",
      "transactionIndex": "0x3",
      "blockHash": "0x083ea4dfb1ce72fecb3b41a14c39d98253acb1907408c468d330412f1572cd8e",
      "blockNumber": "0x176cbbd3",
      "gasUsed": "0x14484",
      "effectiveGasPrice": "0x989680",
      "from": "0xc4660f40ba6fe89b3ba7ded44cf1db73d731c95e",
      "to": "0x253e967e787d58e2dc76c5ff0db4ab0620664145",
      "contractAddress": null,
      "gasUsedForL1": "0x18d",
      "l1BlockNumber": "0x168dc98",
      "timeboosted": false
    }
  ],
  "libraries": [],
  "pending": [],
  "returns": {},
  "timestamp": 1761334393,
  "chain": 42161,
  "commit": "27e81f6"
}