{
  "transactions": [
    {
      "hash": "0x5571049ed9dc5a31c263f6ecc9dfb5e6c61afa28fb305af6ca6fb94721ddd44d",
      "transactionType": "CALL",
      "contractName": null,
      "contractAddress": "0x86e8cc02f5ccd4dc84801e7546ad3731401e54ec",
      "function": "setRefuelPolicy(uint256,uint256,uint128,uint128,address)",
      "arguments": [
        "1",
        "10",
        "1000000",
        "3000000",
        "0xc4660f40BA6Fe89b3BA7Ded44Cf1DB73D731c95e"
      ],
      "transaction": {
        "from": "0xc4660f40ba6fe89b3ba7ded44cf1db73d731c95e",
        "to": "0x86e8cc02f5ccd4dc84801e7546ad3731401e54ec",
        "gas": "0x1c12a",
        "value": "0x0",
        "input": "0x5a2419f80000000000000000000000000000000000000000000000000000000000000001000000000000000000000000000000000000000000000000000000000000000a00000000000000000000000000000000000000000000000000000000000f424000000000000000000000000000000000000000000000000000000000002dc6c0000000000000000000000000c4660f40ba6fe89b3ba7ded44cf1db73d731c95e",
        "nonce": "0xb",
        "chainId": "0xa4b1"
      },
      "additionalContracts": [],
      "isFixedGasLimit": false
    }
  ],
  "receipts": [
    {
      "status": "0x1",
      "cumulativeGasUsed": "0x4b1b5b",
      "logs": [],
      "logsBloom": "0x00000000000000000000000000000000000000000000000000000000000000000000000000000000000000000000000000000000000000000000000000000000000000000000000000000000000000000000000000000000000000000000000000000000000000000000000000000000000000000000000000000000000000000000000000000000000000000000000000000000000000000000000000000000000000000000000000000000000000000000000000000000000000000000000000000000000000000000000000000000000000000000000000000000000000000000000000000000000000000000000000000000000000000000000000000000",
      "type": "0x2",
      "transactionHash": "0x5571049ed9dc5a31c263f6ecc9dfb5e6c61afa28fb305af6ca6fb94721ddd44d",
      "transactionIndex": "0x21",
      "blockHash": "0xf5b3350c44afed367d2d91e7a5e2f8e92de3a2a5222e82881f9993c392c3fe5b",
      "blockNumber": "0x176be5c9",
      "gasUsed": "0x14f69",
      "effectiveGasPrice": "0xbf5478",
      "from": "0xc4660f40ba6fe89b3ba7ded44cf1db73d731c95e",
      "to": "0x86e8cc02f5ccd4dc84801e7546ad3731401e54ec",
      "contractAddress": null,
      "gasUsedForL1": "0xc72",
      "l1BlockNumber": "0x168d82b",
      "timeboosted": false
    }
  ],
  "libraries": [],
  "pending": [],
  "returns": {},
  "timestamp": 1761320708,
  "chain": 42161,
  "commit": "5460833"
}