{
  "transactions": [
    {
      "hash": "0x322644762b1befc755ff34846508ec2da1b11911104afc466ffe19f1a9cc953a",
      "transactionType": "CALL",
      "contractName": null,
      "contractAddress": "0x1e479c2650a29354b290e12d20af94c3a4c6b4a2",
      "function": "mintWithSig((address,uint256,(address,address,uint256,uint256,uint8,bytes32,bytes32),address,uint256,uint256),bytes)",
      "arguments": [
        "(0xc4660f40BA6Fe89b3BA7Ded44Cf1DB73D731c95e, 1000000, (0xc4660f40BA6Fe89b3BA7Ded44Cf1DB73D731c95e, 0x1e479C2650a29354B290E12d20af94c3a4c6B4a2, 1000000, 1761335354, 28, 0x71417cf60bc14f47b292815e781e2e8831a81df2daa706d62dbd8423a2024fe1, 0x685d218fbae45a819b0e3ae43c486a04f4781c53ae8d204b57470855afa105c5), 0xc4660f40BA6Fe89b3BA7Ded44Cf1DB73D731c95e, 3, 1761335354)",
        "0x70b2b4d374eff2c1729e3ac50b5f00e6cfa8243314da3a39cfe618a74b5178e60cbc583d88b1e3b62eff342c3601f4ec25c896487697abb4bf08b957d02f1aca1b"
      ],
      "transaction": {
        "from": "0xc4660f40ba6fe89b3ba7ded44cf1db73d731c95e",
        "to": "0x1e479c2650a29354b290e12d20af94c3a4c6b4a2",
        "gas": "0x594fc",
        "value": "0x0",
        "input": "0x2b8eeba5000000000000000000000000c4660f40ba6fe89b3ba7ded44cf1db73d731c95e00000000000000000000000000000000000000000000000000000000000f4240000000000000000000000000c4660f40ba6fe89b3ba7ded44cf1db73d731c95e0000000000000000000000001e479c2650a29354b290e12d20af94c3a4c6b4a200000000000000000000000000000000000000000000000000000000000f42400000000000000000000000000000000000000000000000000000000068fbd83a000000000000000000000000000000000000000000000000000000000000001c71417cf60bc14f47b292815e781e2e8831a81df2daa706d62dbd8423a2024fe1685d218fbae45a819b0e3ae43c486a04f4781c53ae8d204b57470855afa105c5000000000000000000000000c4660f40ba6fe89b3ba7ded44cf1db73d731c95e00000000000000000000000000000000000000000000000000000000000000030000000000000000000000000000000000000000000000000000000068fbd83a00000000000000000000000000000000000000000000000000000000000001a0000000000000000000000000000000000000000000000000000000000000004170b2b4d374eff2c1729e3ac50b5f00e6cfa8243314da3a39cfe618a74b5178e60cbc583d88b1e3b62eff342c3601f4ec25c896487697abb4bf08b957d02f1aca1b00000000000000000000000000000000000000000000000000000000000000",
        "nonce": "0x1c",
        "chainId": "0xa4b1"
      },
      "additionalContracts": [],
      "isFixedGasLimit": false
    }
  ],
  "receipts": [
    {
      "status": "0x1",
      "cumulativeGasUsed": "0x3fc60",
      "logs": [
        {
          "address": "0xaf88d065e77c8cc2239327c5edb3a432268e5831",
          "topics": [
            "0x8c5be1e5ebec7d5bd14f71427d1e84f3dd0314c0f7b2291e5b200ac8c7c3b925",
            "0x000000000000000000000000c4660f40ba6fe89b3ba7ded44cf1db73d731c95e",
            "0x0000000000000000000000001e479c2650a29354b290e12d20af94c3a4c6b4a2"
          ],
          "data": "0x00000000000000000000000000000000000000000000000000000000000f4240",
          "blockHash": "0x8d0a6b3da38d308296f7615ee45f30df28aba32a646fdd30339567b6386da61e",
          "blockNumber": "0x176c92ce",
          "transactionHash": "0x322644762b1befc755ff34846508ec2da1b11911104afc466ffe19f1a9cc953a",
          "transactionIndex": "0x1",
          "logIndex": "0x0",
          "removed": false
        },
        {
          "address": "0xaf88d065e77c8cc2239327c5edb3a432268e5831",
          "topics": [
            "0xddf252ad1be2c89b69c2b068fc378daa952ba7f163c4a11628f55a4df523b3ef",
            "0x000000000000000000000000c4660f40ba6fe89b3ba7ded44cf1db73d731c95e",
            "0x0000000000000000000000001e479c2650a29354b290e12d20af94c3a4c6b4a2"
          ],
          "data": "0x00000000000000000000000000000000000000000000000000000000000f4240",
          "blockHash": "0x8d0a6b3da38d308296f7615ee45f30df28aba32a646fdd30339567b6386da61e",
          "blockNumber": "0x176c92ce",
          "transactionHash": "0x322644762b1befc755ff34846508ec2da1b11911104afc466ffe19f1a9cc953a",
          "transactionIndex": "0x1",
          "logIndex": "0x1",
          "removed": false
        },
        {
          "address": "0x1e479c2650a29354b290e12d20af94c3a4c6b4a2",
          "topics": [
            "0xddf252ad1be2c89b69c2b068fc378daa952ba7f163c4a11628f55a4df523b3ef",
            "0x0000000000000000000000000000000000000000000000000000000000000000",
            "0x000000000000000000000000c4660f40ba6fe89b3ba7ded44cf1db73d731c95e",
            "0x0000000000000000000000000000000000000000000000000000000000000004"
          ],
          "data": "0x",
          "blockHash": "0x8d0a6b3da38d308296f7615ee45f30df28aba32a646fdd30339567b6386da61e",
          "blockNumber": "0x176c92ce",
          "transactionHash": "0x322644762b1befc755ff34846508ec2da1b11911104afc466ffe19f1a9cc953a",
          "transactionIndex": "0x1",
          "logIndex": "0x2",
          "removed": false
        },
        {
          "address": "0x1e479c2650a29354b290e12d20af94c3a4c6b4a2",
          "topics": [
            "0xe4f48c240d3b994948aa54f3e2f5fca59263dfe1d52b6e4cf39a5d249b5ccb65",
            "0x0000000000000000000000000000000000000000000000000000000000000004",
            "0x0000000000000000000000000000000000000000000000000000000000000000",
            "0x0000000000000000000000000000000000000000000000000000000000000000"
          ],
          "data": "0x",
          "blockHash": "0x8d0a6b3da38d308296f7615ee45f30df28aba32a646fdd30339567b6386da61e",
          "blockNumber": "0x176c92ce",
          "transactionHash": "0x322644762b1befc755ff34846508ec2da1b11911104afc466ffe19f1a9cc953a",
          "transactionIndex": "0x1",
          "logIndex": "0x3",
          "removed": false
        },
        {
          "address": "0x1e479c2650a29354b290e12d20af94c3a4c6b4a2",
          "topics": [
            "0x0b2aac84f3ec956911fd78eae5311062972ff949f38412e8da39069d9f068cc6",
            "0x0000000000000000000000000000000000000000000000000000000000000000",
            "0x0000000000000000000000000000000000000000000000000000000000000004"
          ],
          "data": "0x00000000000000000000000000000000000000000000000000000000000f4240",
          "blockHash": "0x8d0a6b3da38d308296f7615ee45f30df28aba32a646fdd30339567b6386da61e",
          "blockNumber": "0x176c92ce",
          "transactionHash": "0x322644762b1befc755ff34846508ec2da1b11911104afc466ffe19f1a9cc953a",
          "transactionIndex": "0x1",
          "logIndex": "0x4",
          "removed": false
        },
        {
          "address": "0x1e479c2650a29354b290e12d20af94c3a4c6b4a2",
          "topics": [
            "0xfd1ba5519feb014ad2f631cbd516bd3cec96be935749391554d122972593e7bf",
            "0x000000000000000000000000c4660f40ba6fe89b3ba7ded44cf1db73d731c95e",
            "0x000000000000000000000000c4660f40ba6fe89b3ba7ded44cf1db73d731c95e"
          ],
          "data": "0x00000000000000000000000000000000000000000000000000000000000f4240",
          "blockHash": "0x8d0a6b3da38d308296f7615ee45f30df28aba32a646fdd30339567b6386da61e",
          "blockNumber": "0x176c92ce",
          "transactionHash": "0x322644762b1befc755ff34846508ec2da1b11911104afc466ffe19f1a9cc953a",
          "transactionIndex": "0x1",
          "logIndex": "0x5",
          "removed": false
        }
      ],
      "logsBloom": "0x00000000000000000000000000000000001000000000001000000000000000400000000000000000000000000000000020000001000000000000000000200000000000000000000000000008000000000000000000000000000000000000000008000000020000000000000000000800000000000000000000001010000000040000000000000000400000000000000000000000000000000000040000000000020000000000000000000000000002000000000000000000002000002000000000002002100000000002000000000000000000008000008000000000000020000010000000000000000100000000200600000000000001000000200000000000",
      "type": "0x2",
      "transactionHash": "0x322644762b1befc755ff34846508ec2da1b11911104afc466ffe19f1a9cc953a",
      "transactionIndex": "0x1",
      "blockHash": "0x8d0a6b3da38d308296f7615ee45f30df28aba32a646fdd30339567b6386da61e",
      "blockNumber": "0x176c92ce",
      "gasUsed": "0x3fc60",
      "effectiveGasPrice": "0x989680",
      "from": "0xc4660f40ba6fe89b3ba7ded44cf1db73d731c95e",
      "to": "0x1e479c2650a29354b290e12d20af94c3a4c6b4a2",
      "contractAddress": null,
      "gasUsedForL1": "0x35b",
      "l1BlockNumber": "0x168dbbe",
      "timeboosted": false
    }
  ],
  "libraries": [],
  "pending": [],
  "returns": {},
  "timestamp": 1761331770,
  "chain": 42161,
  "commit": "27e81f6"
}