{
  "transactions": [
    {
      "hash": "0xbe579cb215589c54cb5d34ef84e72074f684a158fa3bee515d7d661edd1911a8",
      "transactionType": "CALL",
      "contractName": null,
      "contractAddress": "0x98519ccdb35c9ed521bbcd00435fe2ab2d1305f7",
      "function": "depositWithSig((uint256,uint256,(address,address,uint256,uint256,uint8,bytes32,bytes32),uint256,uint256),bytes)",
      "arguments": [
        "2",
        "10",
        "3000000",
        "3000000",
        "0xc4660f40BA6Fe89b3BA7Ded44Cf1DB73D731c95e"
      ],
      "transaction": {
        "from": "0xc4660f40ba6fe89b3ba7ded44cf1db73d731c95e",
        "to": "0xdb140b58d6e3988f5c453e192295748c1438d8d4",
        "gas": "0x1ac64",
        "value": "0x0",
        "input": "0x5a2419f80000000000000000000000000000000000000000000000000000000000000002000000000000000000000000000000000000000000000000000000000000000a00000000000000000000000000000000000000000000000000000000002dc6c000000000000000000000000000000000000000000000000000000000002dc6c0000000000000000000000000c4660f40ba6fe89b3ba7ded44cf1db73d731c95e",
        "nonce": "0x2a",
        "chainId": "0xa4b1"
      },
      "additionalContracts": [],
      "isFixedGasLimit": false
    }
  ],
  "receipts": [
    {
      "status": "0x1",
      "cumulativeGasUsed": "0x19afc",
      "logs": [],
      "logsBloom": "0x00000000000000000000000000000000000000000000000000000000000000000000000000000000000000000000000000000000000000000000000000000000000000000000000000000000000000000000000000000000000000000000000000000000000000000000000000000000000000000000000000000000000000000000000000000000000000000000000000000000000000000000000000000000000000000000000000000000000000000000000000000000000000000000000000000000000000000000000000000000000000000000000000000000000000000000000000000000000000000000000000000000000000000000000000000000",
      "type": "0x2",
      "transactionHash": "0xbe579cb215589c54cb5d34ef84e72074f684a158fa3bee515d7d661edd1911a8",
      "transactionIndex": "0x2",
      "blockHash": "0xc5ed5db99cb73abe2a8515bd48ed8e2fb304add27e4e7d07994244123a3bf868",
      "blockNumber": "0x176d22ac",
      "gasUsed": "0x14574",
      "effectiveGasPrice": "0x989680",
      "from": "0x4aa5d60cb4d5c02c8ae0e83fc0ec8e30e4a76a7d",
      "to": "0x98519ccdb35c9ed521bbcd00435fe2ab2d1305f7",
      "contractAddress": null,
      "gasUsedForL1": "0x27d",
      "l1BlockNumber": "0x168deb8",
      "timeboosted": false
    }
  ],
  "libraries": [],
  "pending": [],
  "returns": {},
  "timestamp": 1761340972,
  "chain": 42161,
  "commit": "a4eb371"
}