{
  "transactions": [
    {
      "hash": "0xfb5599c5a90c6983195d763dd5597f008deb3b07eeaa64f37f039d6b3071c057",
      "transactionType": "CALL",
      "contractName": null,
      "contractAddress": "0x1e479c2650a29354b290e12d20af94c3a4c6b4a2",
      "function": "depositWithSig((uint256,uint256,(address,address,uint256,uint256,uint8,bytes32,bytes32),uint256,uint256),bytes)",
      "arguments": [
        "(4, 500000, (0xc4660f40BA6Fe89b3BA7Ded44Cf1DB73D731c95e, 0x1e479C2650a29354B290E12d20af94c3a4c6B4a2, 500000, 1761335791, 27, 0xe3a7837d3c005349d52ce23062366e7c39fc9bdd9db57926fa633f4f22de76a6, 0x6b6b131eb82f0cdf9059a3ec0680944b382d4494c2e2eb336ce448877bdbb3e3), 4, 1761335791)",
        "0x7d6fa836007f838f0b5243aef3ebed4f619d4511c3d7d6f48a3b69257428414078193d1d3b5cfa5d5321c19c75aadd688f418577c4432409f1704f0a040afbd41b"
      ],
      "transaction": {
        "from": "0xc4660f40ba6fe89b3ba7ded44cf1db73d731c95e",
        "to": "0x1e479c2650a29354b290e12d20af94c3a4c6b4a2",
        "gas": "0x2a444",
        "value": "0x0",
        "input": "0xb180c9370000000000000000000000000000000000000000000000000000000000000004000000000000000000000000000000000000000000000000000000000007a120000000000000000000000000c4660f40ba6fe89b3ba7ded44cf1db73d731c95e0000000000000000000000001e479c2650a29354b290e12d20af94c3a4c6b4a2000000000000000000000000000000000000000000000000000000000007a1200000000000000000000000000000000000000000000000000000000068fbd9ef000000000000000000000000000000000000000000000000000000000000001be3a7837d3c005349d52ce23062366e7c39fc9bdd9db57926fa633f4f22de76a66b6b131eb82f0cdf9059a3ec0680944b382d4494c2e2eb336ce448877bdbb3e300000000000000000000000000000000000000000000000000000000000000040000000000000000000000000000000000000000000000000000000068fbd9ef000000000000000000000000000000000000000000000000000000000000018000000000000000000000000000000000000000000000000000000000000000417d6fa836007f838f0b5243aef3ebed4f619d4511c3d7d6f48a3b69257428414078193d1d3b5cfa5d5321c19c75aadd688f418577c4432409f1704f0a040afbd41b00000000000000000000000000000000000000000000000000000000000000",
        "nonce": "0x1e",
        "chainId": "0xa4b1"
      },
      "additionalContracts": [],
      "isFixedGasLimit": false
    }
  ],
  "receipts": [
    {
      "status": "0x1",
      "cumulativeGasUsed": "0x40b5b1",
      "logs": [
        {
          "address": "0xaf88d065e77c8cc2239327c5edb3a432268e5831",
          "topics": [
            "0x8c5be1e5ebec7d5bd14f71427d1e84f3dd0314c0f7b2291e5b200ac8c7c3b925",
            "0x000000000000000000000000c4660f40ba6fe89b3ba7ded44cf1db73d731c95e",
            "0x0000000000000000000000001e479c2650a29354b290e12d20af94c3a4c6b4a2"
          ],
          "data": "0x000000000000000000000000000000000000000000000000000000000007a120",
          "blockHash": "0x9d95b43a53e9d03a77a2afe5e465243ba3092062a973d1f9e3a3cfc04cd661ad",
          "blockNumber": "0x176c999d",
          "transactionHash": "0xfb5599c5a90c6983195d763dd5597f008deb3b07eeaa64f37f039d6b3071c057",
          "transactionIndex": "0x5",
          "logIndex": "0x2a",
          "removed": false
        },
        {
          "address": "0xaf88d065e77c8cc2239327c5edb3a432268e5831",
          "topics": [
            "0xddf252ad1be2c89b69c2b068fc378daa952ba7f163c4a11628f55a4df523b3ef",
            "0x000000000000000000000000c4660f40ba6fe89b3ba7ded44cf1db73d731c95e",
            "0x0000000000000000000000001e479c2650a29354b290e12d20af94c3a4c6b4a2"
          ],
          "data": "0x000000000000000000000000000000000000000000000000000000000007a120",
          "blockHash": "0x9d95b43a53e9d03a77a2afe5e465243ba3092062a973d1f9e3a3cfc04cd661ad",
          "blockNumber": "0x176c999d",
          "transactionHash": "0xfb5599c5a90c6983195d763dd5597f008deb3b07eeaa64f37f039d6b3071c057",
          "transactionIndex": "0x5",
          "logIndex": "0x2b",
          "removed": false
        },
        {
          "address": "0x1e479c2650a29354b290e12d20af94c3a4c6b4a2",
          "topics": [
            "0x0b2aac84f3ec956911fd78eae5311062972ff949f38412e8da39069d9f068cc6",
            "0x0000000000000000000000000000000000000000000000000000000000000000",
            "0x0000000000000000000000000000000000000000000000000000000000000004"
          ],
          "data": "0x000000000000000000000000000000000000000000000000000000000007a120",
          "blockHash": "0x9d95b43a53e9d03a77a2afe5e465243ba3092062a973d1f9e3a3cfc04cd661ad",
          "blockNumber": "0x176c999d",
          "transactionHash": "0xfb5599c5a90c6983195d763dd5597f008deb3b07eeaa64f37f039d6b3071c057",
          "transactionIndex": "0x5",
          "logIndex": "0x2c",
          "removed": false
        }
      ],
      "logsBloom": "0x00000000000000000000000000000000001000000000001000000000000000400000000000000000000000000000000000000001000000000000000000200000000000000000000000000008000000000000000000000000000000000000000008000000020000000000000000000800000000000000000000001010000000040000000000000000000000000000000000000000000000000000000000000000020000000000000000000000000000000000000000000000002000002000000000002002100000000000000000000000000000008000000000000000000020000010000000000000000100000000200600000000000001000000200000000000",
      "type": "0x2",
      "transactionHash": "0xfb5599c5a90c6983195d763dd5597f008deb3b07eeaa64f37f039d6b3071c057",
      "transactionIndex": "0x5",
      "blockHash": "0x9d95b43a53e9d03a77a2afe5e465243ba3092062a973d1f9e3a3cfc04cd661ad",
      "blockNumber": "0x176c999d",
      "gasUsed": "0x1b428",
      "effectiveGasPrice": "0x989680",
      "from": "0xc4660f40ba6fe89b3ba7ded44cf1db73d731c95e",
      "to": "0x1e479c2650a29354b290e12d20af94c3a4c6b4a2",
      "contractAddress": null,
      "gasUsedForL1": "0x51d",
      "l1BlockNumber": "0x168dbe2",
      "timeboosted": false
    }
  ],
  "libraries": [],
  "pending": [],
  "returns": {},
  "timestamp": 1761332206,
  "chain": 42161,
  "commit": "27e81f6"
}