{
  "transactions": [
    {
      "hash": "0x27730bab50497323c50d9fa4ef3a9783517cecd4543daa866ddaf62bb80956d3",
      "transactionType": "CALL",
      "contractName": null,
      "contractAddress": "0xfa3a7bc5804b11c6779d847fc3d2b8f10e7d464e",
      "function": "withdrawAllUSDC(uint256,address)",
      "arguments": [
        "1",
        "0xc4660f40BA6Fe89b3BA7Ded44Cf1DB73D731c95e"
      ],
      "transaction": {
        "from": "0xc4660f40ba6fe89b3ba7ded44cf1db73d731c95e",
        "to": "0xfa3a7bc5804b11c6779d847fc3d2b8f10e7d464e",
        "gas": "0x167a7",
        "value": "0x0",
        "input": "0xd2e17dd20000000000000000000000000000000000000000000000000000000000000001000000000000000000000000c4660f40ba6fe89b3ba7ded44cf1db73d731c95e",
        "nonce": "0x12",
        "chainId": "0xa4b1"
      },
      "additionalContracts": [],
      "isFixedGasLimit": false
    }
  ],
  "receipts": [
    {
      "status": "0x1",
      "cumulativeGasUsed": "0x69765",
      "logs": [
        {
          "address": "0xfa3a7bc5804b11c6779d847fc3d2b8f10e7d464e",
          "topics": [
            "0x0b2aac84f3ec956911fd78eae5311062972ff949f38412e8da39069d9f068cc6",
            "0x0000000000000000000000000000000000000000000000000000000000000001",
            "0x0000000000000000000000000000000000000000000000000000000000000000"
          ],
          "data": "0x00000000000000000000000000000000000000000000000000000000000f4240",
          "blockHash": "0x7b52defcfa75b3f810d503793953188baac184b986c523284c0314f482698b6f",
          "blockNumber": "0x176c24be",
          "transactionHash": "0x27730bab50497323c50d9fa4ef3a9783517cecd4543daa866ddaf62bb80956d3",
          "transactionIndex": "0x3",
          "logIndex": "0x7",
          "removed": false
        },
        {
          "address": "0xaf88d065e77c8cc2239327c5edb3a432268e5831",
          "topics": [
            "0xddf252ad1be2c89b69c2b068fc378daa952ba7f163c4a11628f55a4df523b3ef",
            "0x000000000000000000000000fa3a7bc5804b11c6779d847fc3d2b8f10e7d464e",
            "0x000000000000000000000000c4660f40ba6fe89b3ba7ded44cf1db73d731c95e"
          ],
          "data": "0x00000000000000000000000000000000000000000000000000000000000f4240",
          "blockHash": "0x7b52defcfa75b3f810d503793953188baac184b986c523284c0314f482698b6f",
          "blockNumber": "0x176c24be",
          "transactionHash": "0x27730bab50497323c50d9fa4ef3a9783517cecd4543daa866ddaf62bb80956d3",
          "transactionIndex": "0x3",
          "logIndex": "0x8",
          "removed": false
        },
        {
          "address": "0xfa3a7bc5804b11c6779d847fc3d2b8f10e7d464e",
          "topics": [
            "0x82f65e414029cb5d9668f192f37ffff1e78b03d5e84dd0f121786ac6601472a9",
            "0x000000000000000000000000c4660f40ba6fe89b3ba7ded44cf1db73d731c95e",
            "0x0000000000000000000000000000000000000000000000000000000000000001",
            "0x000000000000000000000000c4660f40ba6fe89b3ba7ded44cf1db73d731c95e"
          ],
          "data": "0x00000000000000000000000000000000000000000000000000000000000f4240",
          "blockHash": "0x7b52defcfa75b3f810d503793953188baac184b986c523284c0314f482698b6f",
          "blockNumber": "0x176c24be",
          "transactionHash": "0x27730bab50497323c50d9fa4ef3a9783517cecd4543daa866ddaf62bb80956d3",
          "transactionIndex": "0x3",
          "logIndex": "0x9",
          "removed": false
        }
      ],
      "logsBloom": "0x00000020000000000000000000000000000000000000001000000000000000000000000000000000000000000000400000000001000080000000008000040000000000000000000000000008000000000000000000440000000000000000000000000000020000000000000000000800000000000000000000001010000000000000000000010000000000000000000000000000000000000000000000000000000000000000000000000000000000000000000000000000000000000000000000003002100000000000000000000000000000000000000000000000000060000000000000000000200100000000200200200000000001000000000000000000",
      "type": "0x2",
      "transactionHash": "0x27730bab50497323c50d9fa4ef3a9783517cecd4543daa866ddaf62bb80956d3",
      "transactionIndex": "0x3",
      "blockHash": "0x7b52defcfa75b3f810d503793953188baac184b986c523284c0314f482698b6f",
      "blockNumber": "0x176c24be",
      "gasUsed": "0xee0c",
      "effectiveGasPrice": "0x989680",
      "from": "0xc4660f40ba6fe89b3ba7ded44cf1db73d731c95e",
      "to": "0xfa3a7bc5804b11c6779d847fc3d2b8f10e7d464e",
      "contractAddress": null,
      "gasUsedForL1": "0x176",
      "l1BlockNumber": "0x168d978",
      "timeboosted": false
    }
  ],
  "libraries": [],
  "pending": [],
  "returns": {},
  "timestamp": 1761324733,
  "chain": 42161,
  "commit": "27e81f6"
}