{
  "transactions": [
    {
      "hash": "0x7396c9c192abcd6f46f9e0c35a014e183dfc30171a9adbb48d957b22ddf65f27",
      "transactionType": "CALL",
      "contractName": null,
      "contractAddress": "0x86e8cc02f5ccd4dc84801e7546ad3731401e54ec",
      "function": "mintWithSig((address,uint256,(address,address,uint256,uint256,uint8,bytes32,bytes32),address,uint256,uint256),bytes)",
      "arguments": [
        "(0xc4660f40BA6Fe89b3BA7Ded44Cf1DB73D731c95e, 1000000, (0xc4660f40BA6Fe89b3BA7Ded44Cf1DB73D731c95e, 0x86E8CC02f5cCD4dC84801e7546aD3731401E54EC, 1000000, 1761324274, 27, 0xa4a5b4ca0679db379953906bf92d00a91ea2b112d534e5b172a073f88a88d098, 0x7e69f4bd52768584293aad8b2a56fe4aed323d9572fff9a542a2568572876a1e), 0xc4660f40BA6Fe89b3BA7Ded44Cf1DB73D731c95e, 0, 1761324274)",
        "0xf9b06d14177e5b088c6084be23cf2065772a63080e9480720c48af6af902e9c406bc547942174f6170c1939feef008de88bfaf71ae5fae1a10730fd1858c0af01b"
      ],
      "transaction": {
        "from": "0xc4660f40ba6fe89b3ba7ded44cf1db73d731c95e",
        "to": "0x86e8cc02f5ccd4dc84801e7546ad3731401e54ec",
        "gas": "0x6a8d0",
        "value": "0x0",
        "input": "0x2b8eeba5000000000000000000000000c4660f40ba6fe89b3ba7ded44cf1db73d731c95e00000000000000000000000000000000000000000000000000000000000f4240000000000000000000000000c4660f40ba6fe89b3ba7ded44cf1db73d731c95e00000000000000000000000086e8cc02f5ccd4dc84801e7546ad3731401e54ec00000000000000000000000000000000000000000000000000000000000f42400000000000000000000000000000000000000000000000000000000068fbacf2000000000000000000000000000000000000000000000000000000000000001ba4a5b4ca0679db379953906bf92d00a91ea2b112d534e5b172a073f88a88d0987e69f4bd52768584293aad8b2a56fe4aed323d9572fff9a542a2568572876a1e000000000000000000000000c4660f40ba6fe89b3ba7ded44cf1db73d731c95e00000000000000000000000000000000000000000000000000000000000000000000000000000000000000000000000000000000000000000000000068fbacf200000000000000000000000000000000000000000000000000000000000001a00000000000000000000000000000000000000000000000000000000000000041f9b06d14177e5b088c6084be23cf2065772a63080e9480720c48af6af902e9c406bc547942174f6170c1939feef008de88bfaf71ae5fae1a10730fd1858c0af01b00000000000000000000000000000000000000000000000000000000000000",
        "nonce": "0xa",
        "chainId": "0xa4b1"
      },
      "additionalContracts": [],
      "isFixedGasLimit": false
    }
  ],
  "receipts": [
    {
      "status": "0x1",
      "cumulativeGasUsed": "0x17c01c",
      "logs": [
        {
          "address": "0xaf88d065e77c8cc2239327c5edb3a432268e5831",
          "topics": [
            "0x8c5be1e5ebec7d5bd14f71427d1e84f3dd0314c0f7b2291e5b200ac8c7c3b925",
            "0x000000000000000000000000c4660f40ba6fe89b3ba7ded44cf1db73d731c95e",
            "0x00000000000000000000000086e8cc02f5ccd4dc84801e7546ad3731401e54ec"
          ],
          "data": "0x00000000000000000000000000000000000000000000000000000000000f4240",
          "blockHash": "0xe4d19cda6e0fde7c46e7d3ff78aefa508055c82755acd0fe98234b706854e09d",
          "blockNumber": "0x176be580",
          "transactionHash": "0x7396c9c192abcd6f46f9e0c35a014e183dfc30171a9adbb48d957b22ddf65f27",
          "transactionIndex": "0x7",
          "logIndex": "0x21",
          "removed": false
        },
        {
          "address": "0xaf88d065e77c8cc2239327c5edb3a432268e5831",
          "topics": [
            "0xddf252ad1be2c89b69c2b068fc378daa952ba7f163c4a11628f55a4df523b3ef",
            "0x000000000000000000000000c4660f40ba6fe89b3ba7ded44cf1db73d731c95e",
            "0x00000000000000000000000086e8cc02f5ccd4dc84801e7546ad3731401e54ec"
          ],
          "data": "0x00000000000000000000000000000000000000000000000000000000000f4240",
          "blockHash": "0xe4d19cda6e0fde7c46e7d3ff78aefa508055c82755acd0fe98234b706854e09d",
          "blockNumber": "0x176be580",
          "transactionHash": "0x7396c9c192abcd6f46f9e0c35a014e183dfc30171a9adbb48d957b22ddf65f27",
          "transactionIndex": "0x7",
          "logIndex": "0x22",
          "removed": false
        },
        {
          "address": "0x86e8cc02f5ccd4dc84801e7546ad3731401e54ec",
          "topics": [
            "0xddf252ad1be2c89b69c2b068fc378daa952ba7f163c4a11628f55a4df523b3ef",
            "0x0000000000000000000000000000000000000000000000000000000000000000",
            "0x000000000000000000000000c4660f40ba6fe89b3ba7ded44cf1db73d731c95e",
            "0x0000000000000000000000000000000000000000000000000000000000000001"
          ],
          "data": "0x",
          "blockHash": "0xe4d19cda6e0fde7c46e7d3ff78aefa508055c82755acd0fe98234b706854e09d",
          "blockNumber": "0x176be580",
          "transactionHash": "0x7396c9c192abcd6f46f9e0c35a014e183dfc30171a9adbb48d957b22ddf65f27",
          "transactionIndex": "0x7",
          "logIndex": "0x23",
          "removed": false
        },
        {
          "address": "0x86e8cc02f5ccd4dc84801e7546ad3731401e54ec",
          "topics": [
            "0xe4f48c240d3b994948aa54f3e2f5fca59263dfe1d52b6e4cf39a5d249b5ccb65",
            "0x0000000000000000000000000000000000000000000000000000000000000001",
            "0x0000000000000000000000000000000000000000000000000000000000000000",
            "0x0000000000000000000000000000000000000000000000000000000000000000"
          ],
          "data": "0x",
          "blockHash": "0xe4d19cda6e0fde7c46e7d3ff78aefa508055c82755acd0fe98234b706854e09d",
          "blockNumber": "0x176be580",
          "transactionHash": "0x7396c9c192abcd6f46f9e0c35a014e183dfc30171a9adbb48d957b22ddf65f27",
          "transactionIndex": "0x7",
          "logIndex": "0x24",
          "removed": false
        },
        {
          "address": "0x86e8cc02f5ccd4dc84801e7546ad3731401e54ec",
          "topics": [
            "0x0b2aac84f3ec956911fd78eae5311062972ff949f38412e8da39069d9f068cc6",
            "0x0000000000000000000000000000000000000000000000000000000000000000",
            "0x0000000000000000000000000000000000000000000000000000000000000001"
          ],
          "data": "0x00000000000000000000000000000000000000000000000000000000000f4240",
          "blockHash": "0xe4d19cda6e0fde7c46e7d3ff78aefa508055c82755acd0fe98234b706854e09d",
          "blockNumber": "0x176be580",
          "transactionHash": "0x7396c9c192abcd6f46f9e0c35a014e183dfc30171a9adbb48d957b22ddf65f27",
          "transactionIndex": "0x7",
          "logIndex": "0x25",
          "removed": false
        },
        {
          "address": "0x86e8cc02f5ccd4dc84801e7546ad3731401e54ec",
          "topics": [
            "0xfd1ba5519feb014ad2f631cbd516bd3cec96be935749391554d122972593e7bf",
            "0x000000000000000000000000c4660f40ba6fe89b3ba7ded44cf1db73d731c95e",
            "0x000000000000000000000000c4660f40ba6fe89b3ba7ded44cf1db73d731c95e"
          ],
          "data": "0x00000000000000000000000000000000000000000000000000000000000f4240",
          "blockHash": "0xe4d19cda6e0fde7c46e7d3ff78aefa508055c82755acd0fe98234b706854e09d",
          "blockNumber": "0x176be580",
          "transactionHash": "0x7396c9c192abcd6f46f9e0c35a014e183dfc30171a9adbb48d957b22ddf65f27",
          "transactionIndex": "0x7",
          "logIndex": "0x26",
          "removed": false
        }
      ],
      "logsBloom": "0x02000000000000000000000000000000000000000000001000000000000000000000000000000000000000000000000020000001000000000000000000240000000000000000000000000008000000000000000020040000000000000000000000000000020000000000000000000800000000000000000000009010000000000000000000000000400000000000000000000004000000000000040000000000020000000000000000000000000002000000000000000000000000000000000000002002100000000002000000000001000000000000008000000000000060001010000000000000000100000000200200000000000001000000000000000000",
      "type": "0x2",
      "transactionHash": "0x7396c9c192abcd6f46f9e0c35a014e183dfc30171a9adbb48d957b22ddf65f27",
      "transactionIndex": "0x7",
      "blockHash": "0xe4d19cda6e0fde7c46e7d3ff78aefa508055c82755acd0fe98234b706854e09d",
      "blockNumber": "0x176be580",
      "gasUsed": "0x4ca23",
      "effectiveGasPrice": "0x989680",
      "from": "0xc4660f40ba6fe89b3ba7ded44cf1db73d731c95e",
      "to": "0x86e8cc02f5ccd4dc84801e7546ad3731401e54ec",
      "contractAddress": null,
      "gasUsedForL1": "0x1ab5",
      "l1BlockNumber": "0x168d82a",
      "timeboosted": false
    }
  ],
  "libraries": [],
  "pending": [],
  "returns": {},
  "timestamp": 1761320691,
  "chain": 42161,
  "commit": "5460833"
}