{
  "transactions": [
    {
      "hash": "0x6495a992dc9c7b4856cfe2aab3970f4b758e794386510d5847df2162d781a10b",
      "transactionType": "CALL",
      "contractName": null,
      "contractAddress": "0x253e967e787d58e2dc76c5ff0db4ab0620664145",
      "function": "setRefuelPolicy(uint256,uint256,uint128,uint128,address)",
      "arguments": [
        "1",
        "10",
        "2000000",
        "3000000",
        "0xc4660f40BA6Fe89b3BA7Ded44Cf1DB73D731c95e"
      ],
      "transaction": {
        "from": "0xc4660f40ba6fe89b3ba7ded44cf1db73d731c95e",
        "to": "0x253e967e787d58e2dc76c5ff0db4ab0620664145",
        "gas": "0xe08b",
        "value": "0x0",
        "input": "0x5a2419f80000000000000000000000000000000000000000000000000000000000000001000000000000000000000000000000000000000000000000000000000000000a00000000000000000000000000000000000000000000000000000000001e848000000000000000000000000000000000000000000000000000000000002dc6c0000000000000000000000000c4660f40ba6fe89b3ba7ded44cf1db73d731c95e",
        "nonce": "0x23",
        "chainId": "0xa4b1"
      },
      "additionalContracts": [],
      "isFixedGasLimit": false
    }
  ],
  "receipts": [
    {
      "status": "0x1",
      "cumulativeGasUsed": "0x3f1162",
      "logs": [],
      "logsBloom": "0x00000000000000000000000000000000000000000000000000000000000000000000000000000000000000000000000000000000000000000000000000000000000000000000000000000000000000000000000000000000000000000000000000000000000000000000000000000000000000000000000000000000000000000000000000000000000000000000000000000000000000000000000000000000000000000000000000000000000000000000000000000000000000000000000000000000000000000000000000000000000000000000000000000000000000000000000000000000000000000000000000000000000000000000000000000000",
      "type": "0x2",
      "transactionHash": "0x6495a992dc9c7b4856cfe2aab3970f4b758e794386510d5847df2162d781a10b",
      "transactionIndex": "0x1c",
      "blockHash": "0x0bfac1174faacee29d8f27cfa161dbcf7121f9f5d187e85dfbead4ee20de99d8",
      "blockNumber": "0x176cbeff",
      "gasUsed": "0xaa82",
      "effectiveGasPrice": "0x989680",
      "from": "0xc4660f40ba6fe89b3ba7ded44cf1db73d731c95e",
      "to": "0x253e967e787d58e2dc76c5ff0db4ab0620664145",
      "contractAddress": null,
      "gasUsedForL1": "0x303",
      "l1BlockNumber": "0x168dca8",
      "timeboosted": false
    }
  ],
  "libraries": [],
  "pending": [],
  "returns": {},
  "timestamp": 1761334595,
  "chain": 42161,
  "commit": "27e81f6"
}