{
  "transactions": [
    {
      "hash": "0x5784bc8da7e61ddfee7fced10f657a1042440e30d1932266d6e2c783373548ea",
      "transactionType": "CALL",
      "contractName": null,
      "contractAddress": "0x98519ccdb35c9ed521bbcd00435fe2ab2d1305f7",
      "function": "withdrawAllUSDC(uint256,address)",
      "arguments": [
        "1",
        "0x2ccb42B46e63BdA5eecc216bFDFC7a4a26A2e841"
      ],
      "transaction": {
        "from": "0x2ccb42b46e63bda5eecc216bfdfc7a4a26a2e841",
        "to": "0x98519ccdb35c9ed521bbcd00435fe2ab2d1305f7",
        "gas": "0x1688a",
        "value": "0x0",
        "input": "0xd2e17dd200000000000000000000000000000000000000000000000000000000000000010000000000000000000000002ccb42b46e63bda5eecc216bfdfc7a4a26a2e841",
        "nonce": "0xc",
        "chainId": "0xa4b1"
      },
      "additionalContracts": [],
      "isFixedGasLimit": false
    }
  ],
  "receipts": [
    {
      "status": "0x1",
      "cumulativeGasUsed": "0x42260",
      "logs": [
        {
          "address": "0x98519ccdb35c9ed521bbcd00435fe2ab2d1305f7",
          "topics": [
            "0x0b2aac84f3ec956911fd78eae5311062972ff949f38412e8da39069d9f068cc6",
            "0x0000000000000000000000000000000000000000000000000000000000000001",
            "0x0000000000000000000000000000000000000000000000000000000000000000"
          ],
          "data": "0x00000000000000000000000000000000000000000000000000000000002dc6c0",
          "blockHash": "0x9cc060dcae055397553257fb32057d5c2026f4d00a9114fbba60885f3784935c",
          "blockNumber": "0x176f2e0e",
          "transactionHash": "0x5784bc8da7e61ddfee7fced10f657a1042440e30d1932266d6e2c783373548ea",
          "transactionIndex": "0x2",
          "logIndex": "0x2",
          "removed": false
        },
        {
          "address": "0xaf88d065e77c8cc2239327c5edb3a432268e5831",
          "topics": [
            "0xddf252ad1be2c89b69c2b068fc378daa952ba7f163c4a11628f55a4df523b3ef",
            "0x00000000000000000000000098519ccdb35c9ed521bbcd00435fe2ab2d1305f7",
            "0x0000000000000000000000002ccb42b46e63bda5eecc216bfdfc7a4a26a2e841"
          ],
          "data": "0x00000000000000000000000000000000000000000000000000000000002dc6c0",
          "blockHash": "0x9cc060dcae055397553257fb32057d5c2026f4d00a9114fbba60885f3784935c",
          "blockNumber": "0x176f2e0e",
          "transactionHash": "0x5784bc8da7e61ddfee7fced10f657a1042440e30d1932266d6e2c783373548ea",
          "transactionIndex": "0x2",
          "logIndex": "0x3",
          "removed": false
        },
        {
          "address": "0x98519ccdb35c9ed521bbcd00435fe2ab2d1305f7",
          "topics": [
            "0x82f65e414029cb5d9668f192f37ffff1e78b03d5e84dd0f121786ac6601472a9",
            "0x0000000000000000000000002ccb42b46e63bda5eecc216bfdfc7a4a26a2e841",
            "0x0000000000000000000000000000000000000000000000000000000000000001",
            "0x0000000000000000000000002ccb42b46e63bda5eecc216bfdfc7a4a26a2e841"
          ],
          "data": "0x00000000000000000000000000000000000000000000000000000000002dc6c0",
          "blockHash": "0x9cc060dcae055397553257fb32057d5c2026f4d00a9114fbba60885f3784935c",
          "blockNumber": "0x176f2e0e",
          "transactionHash": "0x5784bc8da7e61ddfee7fced10f657a1042440e30d1932266d6e2c783373548ea",
          "transactionIndex": "0x2",
          "logIndex": "0x4",
          "removed": false
        }
      ],
      "logsBloom": "0x00000000000000000000000000000000000000000000001000000000000000000000000000000000000000000100400000000001000080000000000000040000000000000000004000000008000000000000000040140000000004000000000000000000020800000000000000000800000000000000001000000010000000000000000000010000000000000000000000000000000000000000000000000000000000000000000008000000000000000000000000000000000000000000000000002002000000000000000000000000000800000000000000000000000060000000000000000000000000000000200200000000000001000000000000000000",
      "type": "0x2",
      "transactionHash": "0x5784bc8da7e61ddfee7fced10f657a1042440e30d1932266d6e2c783373548ea",
      "transactionIndex": "0x2",
      "blockHash": "0x9cc060dcae055397553257fb32057d5c2026f4d00a9114fbba60885f3784935c",
      "blockNumber": "0x176f2e0e",
      "gasUsed": "0x100d2",
      "effectiveGasPrice": "0x989680",
      "from": "0x2ccb42b46e63bda5eecc216bfdfc7a4a26a2e841",
      "to": "0x98519ccdb35c9ed521bbcd00435fe2ab2d1305f7",
      "contractAddress": null,
      "gasUsedForL1": "0x17c",
      "l1BlockNumber": "0x168e98a",
      "timeboosted": false
    }
  ],
  "libraries": [],
  "pending": [],
  "returns": {},
  "timestamp": 1761374456820,
  "chain": 42161,
  "commit": "5d21f7e"
}