{
  "transactions": [
    {
      "hash": "0x567fe1357bcbf46c39646ce56f198f1ace428fc4b37d27432ab3f70298c3c1b5",
      "transactionType": "CALL",
      "contractName": null,
      "contractAddress": "0x1e479c2650a29354b290e12d20af94c3a4c6b4a2",
      "function": "autoRefuel(uint256,address,((uint256,uint256,uint256,uint256,address,address,address,address,uint32,address,uint256,address,uint256,uint256),address,uint256,bytes32,bytes,uint256,bytes,address),bytes32,uint256)",
      "arguments": [
        "4",
        "0xA3BF43451CdEb6DEC588B8833838fC419CE4F54c",
        "((42161, 10, 1761332812, 3109732588, 0xA3BF43451CdEb6DEC588B8833838fC419CE4F54c, 0xc4660f40BA6Fe89b3BA7Ded44Cf1DB73D731c95e, 0xc4660f40BA6Fe89b3BA7Ded44Cf1DB73D731c95e, 0xCdEa28Ee7BD5bf7710B294d9391e1b6A318d809a, 1, 0xaf88d065e77c8cC2239327C5EDb3A432268e5831, 1500000, 0xEeeeeEeeeEeEeeEeEeEeeEEEeeeeEeeeeeeeEEeE, 0, 0), 0x0000000000000000000000000000000000000000, 0, 0x0000000000000000000000000000000000000000000000000000000000000000, 0x, 0, 0x, 0x0000000000000000000000000000000000000000)",
        "0x6a0d7a6d19f7495b3a9a32633b5eb52bb6df0c55290ce7d38d79687a43a79fe8",
        "10"
      ],
      "transaction": {
        "from": "0xc4660f40ba6fe89b3ba7ded44cf1db73d731c95e",
        "to": "0x1e479c2650a29354b290e12d20af94c3a4c6b4a2",
        "gas": "0x4e107",
        "value": "0x0",
        "input": "0xcb4cd3be0000000000000000000000000000000000000000000000000000000000000004000000000000000000000000a3bf43451cdeb6dec588b8833838fc419ce4f54c00000000000000000000000000000000000000000000000000000000000000a06a0d7a6d19f7495b3a9a32633b5eb52bb6df0c55290ce7d38d79687a43a79fe8000000000000000000000000000000000000000000000000000000000000000a000000000000000000000000000000000000000000000000000000000000a4b1000000000000000000000000000000000000000000000000000000000000000a0000000000000000000000000000000000000000000000000000000068fbce4c00000000000000000000000000000000000000000000000000000000b95ac0ec000000000000000000000000a3bf43451cdeb6dec588b8833838fc419ce4f54c000000000000000000000000c4660f40ba6fe89b3ba7ded44cf1db73d731c95e000000000000000000000000c4660f40ba6fe89b3ba7ded44cf1db73d731c95e000000000000000000000000cdea28ee7bd5bf7710b294d9391e1b6a318d809a0000000000000000000000000000000000000000000000000000000000000001000000000000000000000000af88d065e77c8cc2239327c5edb3a432268e5831000000000000000000000000000000000000000000000000000000000016e360000000000000000000000000eeeeeeeeeeeeeeeeeeeeeeeeeeeeeeeeeeeeeeee0000000000000000000000000000000000000000000000000000000000000000000000000000000000000000000000000000000000000000000000000000000000000000000000000000000000000000000000000000000000000000000000000000000000000000000000000000000000000000000000000000000000000000000000000000000000000000000000000000000000000000000000000000000000000000000000000000000000000000000000000000000000000000000002a0000000000000000000000000000000000000000000000000000000000000000000000000000000000000000000000000000000000000000000000000000002c0000000000000000000000000000000000000000000000000000000000000000000000000000000000000000000000000000000000000000000000000000000000000000000000000000000000000000000000000000000000000000000000000",
        "nonce": "0x1f",
        "chainId": "0xa4b1"
      },
      "additionalContracts": [],
      "isFixedGasLimit": false
    }
  ],
  "receipts": [
    {
      "status": "0x1",
      "cumulativeGasUsed": "0x545d4",
      "logs": [
        {
          "address": "0x1e479c2650a29354b290e12d20af94c3a4c6b4a2",
          "topics": [
            "0x0b2aac84f3ec956911fd78eae5311062972ff949f38412e8da39069d9f068cc6",
            "0x0000000000000000000000000000000000000000000000000000000000000004",
            "0x0000000000000000000000000000000000000000000000000000000000000000"
          ],
          "data": "0x000000000000000000000000000000000000000000000000000000000016e360",
          "blockHash": "0x610e7ff8c247a538bb6154a226d96e2ad0a13ab6d7b864811c060a22569cf083",
          "blockNumber": "0x176c99f7",
          "transactionHash": "0x567fe1357bcbf46c39646ce56f198f1ace428fc4b37d27432ab3f70298c3c1b5",
          "transactionIndex": "0x2",
          "logIndex": "0x0",
          "removed": false
        },
        {
          "address": "0xaf88d065e77c8cc2239327c5edb3a432268e5831",
          "topics": [
            "0x8c5be1e5ebec7d5bd14f71427d1e84f3dd0314c0f7b2291e5b200ac8c7c3b925",
            "0x0000000000000000000000001e479c2650a29354b290e12d20af94c3a4c6b4a2",
            "0x000000000000000000000000a3bf43451cdeb6dec588b8833838fc419ce4f54c"
          ],
          "data": "0x000000000000000000000000000000000000000000000000000000000016e360",
          "blockHash": "0x610e7ff8c247a538bb6154a226d96e2ad0a13ab6d7b864811c060a22569cf083",
          "blockNumber": "0x176c99f7",
          "transactionHash": "0x567fe1357bcbf46c39646ce56f198f1ace428fc4b37d27432ab3f70298c3c1b5",
          "transactionIndex": "0x2",
          "logIndex": "0x1",
          "removed": false
        },
        {
          "address": "0xaf88d065e77c8cc2239327c5edb3a432268e5831",
          "topics": [
            "0xddf252ad1be2c89b69c2b068fc378daa952ba7f163c4a11628f55a4df523b3ef",
            "0x0000000000000000000000001e479c2650a29354b290e12d20af94c3a4c6b4a2",
            "0x000000000000000000000000a3bf43451cdeb6dec588b8833838fc419ce4f54c"
          ],
          "data": "0x000000000000000000000000000000000000000000000000000000000016e360",
          "blockHash": "0x610e7ff8c247a538bb6154a226d96e2ad0a13ab6d7b864811c060a22569cf083",
          "blockNumber": "0x176c99f7",
          "transactionHash": "0x567fe1357bcbf46c39646ce56f198f1ace428fc4b37d27432ab3f70298c3c1b5",
          "transactionIndex": "0x2",
          "logIndex": "0x2",
          "removed": false
        },
        {
          "address": "0xa3bf43451cdeb6dec588b8833838fc419ce4f54c",
          "topics": [
            "0xaafaed86f175a2b5a9812043ba82df1a5d0ab905b78d0f4bea5ca66a05b12183",
            "0x6a0d7a6d19f7495b3a9a32633b5eb52bb6df0c55290ce7d38d79687a43a79fe8"
          ],
          "data": "0x0000000000000000000000001e479c2650a29354b290e12d20af94c3a4c6b4a2000000000000000000000000000000000000000000000000000000000000004000000000000000000000000000000000000000000000000000000000000003000000000000000000000000000000000000000000000000000000000000000020000000000000000000000000000000000000000000000000000000000000a4b1000000000000000000000000000000000000000000000000000000000000000a0000000000000000000000000000000000000000000000000000000068fbce4c00000000000000000000000000000000000000000000000000000000b95ac0ec000000000000000000000000a3bf43451cdeb6dec588b8833838fc419ce4f54c000000000000000000000000c4660f40ba6fe89b3ba7ded44cf1db73d731c95e000000000000000000000000c4660f40ba6fe89b3ba7ded44cf1db73d731c95e000000000000000000000000cdea28ee7bd5bf7710b294d9391e1b6a318d809a0000000000000000000000000000000000000000000000000000000000000001000000000000000000000000af88d065e77c8cc2239327c5edb3a432268e5831000000000000000000000000000000000000000000000000000000000016e360000000000000000000000000eeeeeeeeeeeeeeeeeeeeeeeeeeeeeeeeeeeeeeee0000000000000000000000000000000000000000000000000000000000000000000000000000000000000000000000000000000000000000000000000000000000000000000000000000000000000000000000000000000000000000000000000000000000000000000000000000000000000000000000000000000000000000000000000000000000000000000000000000000000000000000000000000000000000000000000000000000000000000000000000000000000000000000002a0000000000000000000000000000000000000000000000000000000000000000000000000000000000000000000000000000000000000000000000000000002c0000000000000000000000000000000000000000000000000000000000000000000000000000000000000000000000000000000000000000000000000000000000000000000000000000000000000000000000000000000000000000000000000",
          "blockHash": "0x610e7ff8c247a538bb6154a226d96e2ad0a13ab6d7b864811c060a22569cf083",
          "blockNumber": "0x176c99f7",
          "transactionHash": "0x567fe1357bcbf46c39646ce56f198f1ace428fc4b37d27432ab3f70298c3c1b5",
          "transactionIndex": "0x2",
          "logIndex": "0x3",
          "removed": false
        },
        {
          "address": "0x1e479c2650a29354b290e12d20af94c3a4c6b4a2",
          "topics": [
            "0xbc60a056d798009fb26baaac6f99849096234a8e4ff67e7432d0859ec95a2512",
            "0x0000000000000000000000000000000000000000000000000000000000000004",
            "0x000000000000000000000000a3bf43451cdeb6dec588b8833838fc419ce4f54c"
          ],
          "data": "0x000000000000000000000000000000000000000000000000000000000016e3606a0d7a6d19f7495b3a9a32633b5eb52bb6df0c55290ce7d38d79687a43a79fe8",
          "blockHash": "0x610e7ff8c247a538bb6154a226d96e2ad0a13ab6d7b864811c060a22569cf083",
          "blockNumber": "0x176c99f7",
          "transactionHash": "0x567fe1357bcbf46c39646ce56f198f1ace428fc4b37d27432ab3f70298c3c1b5",
          "transactionIndex": "0x2",
          "logIndex": "0x4",
          "removed": false
        },
        {
          "address": "0x1e479c2650a29354b290e12d20af94c3a4c6b4a2",
          "topics": [
            "0x2de87ab3b4b4e8bdf67777c0a9428d4da79f614feef0c009c1922ea7c319ecb4",
            "0x0000000000000000000000000000000000000000000000000000000000000004",
            "0x000000000000000000000000000000000000000000000000000000000000000a"
          ],
          "data": "0x000000000000000000000000000000000000000000000000000000000016e360",
          "blockHash": "0x610e7ff8c247a538bb6154a226d96e2ad0a13ab6d7b864811c060a22569cf083",
          "blockNumber": "0x176c99f7",
          "transactionHash": "0x567fe1357bcbf46c39646ce56f198f1ace428fc4b37d27432ab3f70298c3c1b5",
          "transactionIndex": "0x2",
          "logIndex": "0x5",
          "removed": false
        }
      ],
      "logsBloom": "0x00100000000000000000000000000000081002000000001000000000000000400000000000000000001080000000000000000001040000000020000000220000040000000800000000000008000000000000000000000000000000000000010008000000020000000000000000100800000000000000000000000010000000040000000000000000010000000000000000000000000000400000000000000000020000000000000000000000000000000000000000001000002000002000000000002002000000000000001000000000000000008000000000000000400020000014000000000004000000000000200604000000000001000000200000000000",
      "type": "0x2",
      "transactionHash": "0x567fe1357bcbf46c39646ce56f198f1ace428fc4b37d27432ab3f70298c3c1b5",
      "transactionIndex": "0x2",
      "blockHash": "0x610e7ff8c247a538bb6154a226d96e2ad0a13ab6d7b864811c060a22569cf083",
      "blockNumber": "0x176c99f7",
      "gasUsed": "0x35e6a",
      "effectiveGasPrice": "0x989680",
      "from": "0xc4660f40ba6fe89b3ba7ded44cf1db73d731c95e",
      "to": "0x1e479c2650a29354b290e12d20af94c3a4c6b4a2",
      "contractAddress": null,
      "gasUsedForL1": "0x11e",
      "l1BlockNumber": "0x168dbe4",
      "timeboosted": false
    }
  ],
  "libraries": [],
  "pending": [],
  "returns": {},
  "timestamp": 1761332227,
  "chain": 42161,
  "commit": "27e81f6"
}