{
  "transactions": [
    {
      "hash": "0x8fcd09d1b42ef59e0f9fc9a10527de1028f7a3c61a67881e08255bdace5b8fc1",
      "transactionType": "CALL",
      "contractName": null,
      "contractAddress": "0x1e479c2650a29354b290e12d20af94c3a4c6b4a2",
      "function": "autoRefuel(uint256,address,((uint256,uint256,uint256,uint256,address,address,address,address,uint32,address,uint256,address,uint256,uint256),address,uint256,bytes32,bytes,uint256,bytes,address),bytes32,uint256)",
      "arguments": [
        "2",
        "0xA3BF43451CdEb6DEC588B8833838fC419CE4F54c",
        "((42161, 10, 1761329285, 191534251, 0xA3BF43451CdEb6DEC588B8833838fC419CE4F54c, 0xc4660f40BA6Fe89b3BA7Ded44Cf1DB73D731c95e, 0xc4660f40BA6Fe89b3BA7Ded44Cf1DB73D731c95e, 0xCdEa28Ee7BD5bf7710B294d9391e1b6A318d809a, 0, 0xaf88d065e77c8cC2239327C5EDb3A432268e5831, 500000, 0xEeeeeEeeeEeEeeEeEeEeeEEEeeeeEeeeeeeeEEeE, 0, 0), 0x0000000000000000000000000000000000000000, 0, 0x0000000000000000000000000000000000000000000000000000000000000000, 0x, 0, 0x, 0x1e479C2650a29354B290E12d20af94c3a4c6B4a2)",
        "0x7e732841ca78f46e02e7a45d60c4044b2fa0fee84833f2580422131e64ff567d",
        "10"
      ],
      "transaction": {
        "from": "0xc4660f40ba6fe89b3ba7ded44cf1db73d731c95e",
        "to": "0x1e479c2650a29354b290e12d20af94c3a4c6b4a2",
        "gas": "0x4f46d",
        "value": "0x0",
        "input": "0xcb4cd3be0000000000000000000000000000000000000000000000000000000000000002000000000000000000000000a3bf43451cdeb6dec588b8833838fc419ce4f54c00000000000000000000000000000000000000000000000000000000000000a07e732841ca78f46e02e7a45d60c4044b2fa0fee84833f2580422131e64ff567d000000000000000000000000000000000000000000000000000000000000000a000000000000000000000000000000000000000000000000000000000000a4b1000000000000000000000000000000000000000000000000000000000000000a0000000000000000000000000000000000000000000000000000000068fbc085000000000000000000000000000000000000000000000000000000000b6a94ab000000000000000000000000a3bf43451cdeb6dec588b8833838fc419ce4f54c000000000000000000000000c4660f40ba6fe89b3ba7ded44cf1db73d731c95e000000000000000000000000c4660f40ba6fe89b3ba7ded44cf1db73d731c95e000000000000000000000000cdea28ee7bd5bf7710b294d9391e1b6a318d809a0000000000000000000000000000000000000000000000000000000000000000000000000000000000000000af88d065e77c8cc2239327c5edb3a432268e5831000000000000000000000000000000000000000000000000000000000007a120000000000000000000000000eeeeeeeeeeeeeeeeeeeeeeeeeeeeeeeeeeeeeeee0000000000000000000000000000000000000000000000000000000000000000000000000000000000000000000000000000000000000000000000000000000000000000000000000000000000000000000000000000000000000000000000000000000000000000000000000000000000000000000000000000000000000000000000000000000000000000000000000000000000000000000000000000000000000000000000000000000000000000000000000000000000000000000002a0000000000000000000000000000000000000000000000000000000000000000000000000000000000000000000000000000000000000000000000000000002c00000000000000000000000001e479c2650a29354b290e12d20af94c3a4c6b4a200000000000000000000000000000000000000000000000000000000000000000000000000000000000000000000000000000000000000000000000000000000",
        "nonce": "0x18",
        "chainId": "0xa4b1"
      },
      "additionalContracts": [],
      "isFixedGasLimit": false
    }
  ],
  "receipts": [
    {
      "status": "0x1",
      "cumulativeGasUsed": "0x4d11d",
      "logs": [
        {
          "address": "0x1e479c2650a29354b290e12d20af94c3a4c6b4a2",
          "topics": [
            "0x0b2aac84f3ec956911fd78eae5311062972ff949f38412e8da39069d9f068cc6",
            "0x0000000000000000000000000000000000000000000000000000000000000002",
            "0x0000000000000000000000000000000000000000000000000000000000000000"
          ],
          "data": "0x000000000000000000000000000000000000000000000000000000000007a120",
          "blockHash": "0x0027b4b506d10d7c512e140d8b5cb33dcd848b159d2201f646d5b5d37e224c41",
          "blockNumber": "0x176c500b",
          "transactionHash": "0x8fcd09d1b42ef59e0f9fc9a10527de1028f7a3c61a67881e08255bdace5b8fc1",
          "transactionIndex": "0x2",
          "logIndex": "0x0",
          "removed": false
        },
        {
          "address": "0xaf88d065e77c8cc2239327c5edb3a432268e5831",
          "topics": [
            "0x8c5be1e5ebec7d5bd14f71427d1e84f3dd0314c0f7b2291e5b200ac8c7c3b925",
            "0x0000000000000000000000001e479c2650a29354b290e12d20af94c3a4c6b4a2",
            "0x000000000000000000000000a3bf43451cdeb6dec588b8833838fc419ce4f54c"
          ],
          "data": "0x000000000000000000000000000000000000000000000000000000000007a120",
          "blockHash": "0x0027b4b506d10d7c512e140d8b5cb33dcd848b159d2201f646d5b5d37e224c41",
          "blockNumber": "0x176c500b",
          "transactionHash": "0x8fcd09d1b42ef59e0f9fc9a10527de1028f7a3c61a67881e08255bdace5b8fc1",
          "transactionIndex": "0x2",
          "logIndex": "0x1",
          "removed": false
        },
        {
          "address": "0xaf88d065e77c8cc2239327c5edb3a432268e5831",
          "topics": [
            "0xddf252ad1be2c89b69c2b068fc378daa952ba7f163c4a11628f55a4df523b3ef",
            "0x0000000000000000000000001e479c2650a29354b290e12d20af94c3a4c6b4a2",
            "0x000000000000000000000000a3bf43451cdeb6dec588b8833838fc419ce4f54c"
          ],
          "data": "0x000000000000000000000000000000000000000000000000000000000007a120",
          "blockHash": "0x0027b4b506d10d7c512e140d8b5cb33dcd848b159d2201f646d5b5d37e224c41",
          "blockNumber": "0x176c500b",
          "transactionHash": "0x8fcd09d1b42ef59e0f9fc9a10527de1028f7a3c61a67881e08255bdace5b8fc1",
          "transactionIndex": "0x2",
          "logIndex": "0x2",
          "removed": false
        },
        {
          "address": "0xa3bf43451cdeb6dec588b8833838fc419ce4f54c",
          "topics": [
            "0xaafaed86f175a2b5a9812043ba82df1a5d0ab905b78d0f4bea5ca66a05b12183",
            "0x7e732841ca78f46e02e7a45d60c4044b2fa0fee84833f2580422131e64ff567d"
          ],
          "data": "0x0000000000000000000000001e479c2650a29354b290e12d20af94c3a4c6b4a2000000000000000000000000000000000000000000000000000000000000004000000000000000000000000000000000000000000000000000000000000003000000000000000000000000000000000000000000000000000000000000000020000000000000000000000000000000000000000000000000000000000000a4b1000000000000000000000000000000000000000000000000000000000000000a0000000000000000000000000000000000000000000000000000000068fbc085000000000000000000000000000000000000000000000000000000000b6a94ab000000000000000000000000a3bf43451cdeb6dec588b8833838fc419ce4f54c000000000000000000000000c4660f40ba6fe89b3ba7ded44cf1db73d731c95e000000000000000000000000c4660f40ba6fe89b3ba7ded44cf1db73d731c95e000000000000000000000000cdea28ee7bd5bf7710b294d9391e1b6a318d809a0000000000000000000000000000000000000000000000000000000000000000000000000000000000000000af88d065e77c8cc2239327c5edb3a432268e5831000000000000000000000000000000000000000000000000000000000007a120000000000000000000000000eeeeeeeeeeeeeeeeeeeeeeeeeeeeeeeeeeeeeeee0000000000000000000000000000000000000000000000000000000000000000000000000000000000000000000000000000000000000000000000000000000000000000000000000000000000000000000000000000000000000000000000000000000000000000000000000000000000000000000000000000000000000000000000000000000000000000000000000000000000000000000000000000000000000000000000000000000000000000000000000000000000000000000002a0000000000000000000000000000000000000000000000000000000000000000000000000000000000000000000000000000000000000000000000000000002c00000000000000000000000001e479c2650a29354b290e12d20af94c3a4c6b4a200000000000000000000000000000000000000000000000000000000000000000000000000000000000000000000000000000000000000000000000000000000",
          "blockHash": "0x0027b4b506d10d7c512e140d8b5cb33dcd848b159d2201f646d5b5d37e224c41",
          "blockNumber": "0x176c500b",
          "transactionHash": "0x8fcd09d1b42ef59e0f9fc9a10527de1028f7a3c61a67881e08255bdace5b8fc1",
          "transactionIndex": "0x2",
          "logIndex": "0x3",
          "removed": false
        },
        {
          "address": "0x1e479c2650a29354b290e12d20af94c3a4c6b4a2",
          "topics": [
            "0xbc60a056d798009fb26baaac6f99849096234a8e4ff67e7432d0859ec95a2512",
            "0x0000000000000000000000000000000000000000000000000000000000000002",
            "0x000000000000000000000000a3bf43451cdeb6dec588b8833838fc419ce4f54c"
          ],
          "data": "0x000000000000000000000000000000000000000000000000000000000007a1207e732841ca78f46e02e7a45d60c4044b2fa0fee84833f2580422131e64ff567d",
          "blockHash": "0x0027b4b506d10d7c512e140d8b5cb33dcd848b159d2201f646d5b5d37e224c41",
          "blockNumber": "0x176c500b",
          "transactionHash": "0x8fcd09d1b42ef59e0f9fc9a10527de1028f7a3c61a67881e08255bdace5b8fc1",
          "transactionIndex": "0x2",
          "logIndex": "0x4",
          "removed": false
        },
        {
          "address": "0x1e479c2650a29354b290e12d20af94c3a4c6b4a2",
          "topics": [
            "0x2de87ab3b4b4e8bdf67777c0a9428d4da79f614feef0c009c1922ea7c319ecb4",
            "0x0000000000000000000000000000000000000000000000000000000000000002",
            "0x000000000000000000000000000000000000000000000000000000000000000a"
          ],
          "data": "0x000000000000000000000000000000000000000000000000000000000007a120",
          "blockHash": "0x0027b4b506d10d7c512e140d8b5cb33dcd848b159d2201f646d5b5d37e224c41",
          "blockNumber": "0x176c500b",
          "transactionHash": "0x8fcd09d1b42ef59e0f9fc9a10527de1028f7a3c61a67881e08255bdace5b8fc1",
          "transactionIndex": "0x2",
          "logIndex": "0x5",
          "removed": false
        }
      ],
      "logsBloom": "0x04000000000000000000000000000000081000000000001000000000000000400000000000000000001080000000800000000001040000000020000000220000040000000800000000000008000000000000000000000000000000000000010000000000020000000000000000000800000000000000000000000010000000040000000000000000010200000000000000000000000000400000000000000000020000000000000000000100000000000000000000001000000000002000000000002002000000000000001000000000000000000000000000000000400020000014000000000004000000000000200604000000008001000000200000080000",
      "type": "0x2",
      "transactionHash": "0x8fcd09d1b42ef59e0f9fc9a10527de1028f7a3c61a67881e08255bdace5b8fc1",
      "transactionIndex": "0x2",
      "blockHash": "0x0027b4b506d10d7c512e140d8b5cb33dcd848b159d2201f646d5b5d37e224c41",
      "blockNumber": "0x176c500b",
      "gasUsed": "0x37596",
      "effectiveGasPrice": "0x989680",
      "from": "0xc4660f40ba6fe89b3ba7ded44cf1db73d731c95e",
      "to": "0x1e479c2650a29354b290e12d20af94c3a4c6b4a2",
      "contractAddress": null,
      "gasUsedForL1": "0x4a6",
      "l1BlockNumber": "0x168da5b",
      "timeboosted": false
    }
  ],
  "libraries": [],
  "pending": [],
  "returns": {},
  "timestamp": 1761327499,
  "chain": 42161,
  "commit": "27e81f6"
}