{
  "transactions": [
    {
      "hash": "0xf3f19507b3f3c86f32f47ac4a7ae51525ca5ec70b4026c49529ec99c212a9016",
      "transactionType": "CALL",
      "contractName": null,
      "contractAddress": "0xdb140b58d6e3988f5c453e192295748c1438d8d4",
      "function": "autoRefuel(uint256,address,((uint256,uint256,uint256,uint256,address,address,address,address,uint32,address,uint256,address,uint256,uint256),address,uint256,bytes32,bytes,uint256,bytes,address),bytes32,uint256)",
      "arguments": [
        "2",
        "0xA3BF43451CdEb6DEC588B8833838fC419CE4F54c",
        "((42161, 10, 1761342586, 1989496176, 0xA3BF43451CdEb6DEC588B8833838fC419CE4F54c, 0xc4660f40BA6Fe89b3BA7Ded44Cf1DB73D731c95e, 0xc4660f40BA6Fe89b3BA7Ded44Cf1DB73D731c95e, 0xCdEa28Ee7BD5bf7710B294d9391e1b6A318d809a, 1, 0xaf88d065e77c8cC2239327C5EDb3A432268e5831, 3000000, 0xEeeeeEeeeEeEeeEeEeEeeEEEeeeeEeeeeeeeEEeE, 743949992662506, 0), 0x0000000000000000000000000000000000000000, 0, 0x0000000000000000000000000000000000000000000000000000000000000000, 0x, 0, 0x, 0x0000000000000000000000000000000000000000)",
        "0x52ab01eed3095e45c253eecf36294ba4f9799f28ab385009c63239e90bbddebd",
        "10"
      ],
      "transaction": {
        "from": "0xc4660f40ba6fe89b3ba7ded44cf1db73d731c95e",
        "to": "0xdb140b58d6e3988f5c453e192295748c1438d8d4",
        "gas": "0x4e836",
        "value": "0x0",
        "input": "0xcb4cd3be0000000000000000000000000000000000000000000000000000000000000002000000000000000000000000a3bf43451cdeb6dec588b8833838fc419ce4f54c00000000000000000000000000000000000000000000000000000000000000a052ab01eed3095e45c253eecf36294ba4f9799f28ab385009c63239e90bbddebd000000000000000000000000000000000000000000000000000000000000000a000000000000000000000000000000000000000000000000000000000000a4b1000000000000000000000000000000000000000000000000000000000000000a0000000000000000000000000000000000000000000000000000000068fbf47a0000000000000000000000000000000000000000000000000000000076954d70000000000000000000000000a3bf43451cdeb6dec588b8833838fc419ce4f54c000000000000000000000000c4660f40ba6fe89b3ba7ded44cf1db73d731c95e000000000000000000000000c4660f40ba6fe89b3ba7ded44cf1db73d731c95e000000000000000000000000cdea28ee7bd5bf7710b294d9391e1b6a318d809a0000000000000000000000000000000000000000000000000000000000000001000000000000000000000000af88d065e77c8cc2239327c5edb3a432268e583100000000000000000000000000000000000000000000000000000000002dc6c0000000000000000000000000eeeeeeeeeeeeeeeeeeeeeeeeeeeeeeeeeeeeeeee0000000000000000000000000000000000000000000000000002a49e5b0b15ea000000000000000000000000000000000000000000000000000000000000000000000000000000000000000000000000000000000000000000000000000000000000000000000000000000000000000000000000000000000000000000000000000000000000000000000000000000000000000000000000000000000000000000000000000000000000000000000000000000000000000000000000000002a0000000000000000000000000000000000000000000000000000000000000000000000000000000000000000000000000000000000000000000000000000002c0000000000000000000000000000000000000000000000000000000000000000000000000000000000000000000000000000000000000000000000000000000000000000000000000000000000000000000000000000000000000000000000000",
        "nonce": "0x2b",
        "chainId": "0xa4b1"
      },
      "additionalContracts": [],
      "isFixedGasLimit": false
    }
  ],
  "receipts": [
    {
      "status": "0x1",
      "cumulativeGasUsed": "0x3632b",
      "logs": [
        {
          "address": "0xdb140b58d6e3988f5c453e192295748c1438d8d4",
          "topics": [
            "0x0b2aac84f3ec956911fd78eae5311062972ff949f38412e8da39069d9f068cc6",
            "0x0000000000000000000000000000000000000000000000000000000000000002",
            "0x0000000000000000000000000000000000000000000000000000000000000000"
          ],
          "data": "0x00000000000000000000000000000000000000000000000000000000002dc6c0",
          "blockHash": "0x7e777a8cfbf48be3807257331afa0ca389e92449ea5e7c1d44f320c024274ad1",
          "blockNumber": "0x176d32be",
          "transactionHash": "0xf3f19507b3f3c86f32f47ac4a7ae51525ca5ec70b4026c49529ec99c212a9016",
          "transactionIndex": "0x1",
          "logIndex": "0x0",
          "removed": false
        },
        {
          "address": "0xaf88d065e77c8cc2239327c5edb3a432268e5831",
          "topics": [
            "0x8c5be1e5ebec7d5bd14f71427d1e84f3dd0314c0f7b2291e5b200ac8c7c3b925",
            "0x000000000000000000000000db140b58d6e3988f5c453e192295748c1438d8d4",
            "0x000000000000000000000000a3bf43451cdeb6dec588b8833838fc419ce4f54c"
          ],
          "data": "0x00000000000000000000000000000000000000000000000000000000002dc6c0",
          "blockHash": "0x7e777a8cfbf48be3807257331afa0ca389e92449ea5e7c1d44f320c024274ad1",
          "blockNumber": "0x176d32be",
          "transactionHash": "0xf3f19507b3f3c86f32f47ac4a7ae51525ca5ec70b4026c49529ec99c212a9016",
          "transactionIndex": "0x1",
          "logIndex": "0x1",
          "removed": false
        },
        {
          "address": "0xaf88d065e77c8cc2239327c5edb3a432268e5831",
          "topics": [
            "0xddf252ad1be2c89b69c2b068fc378daa952ba7f163c4a11628f55a4df523b3ef",
            "0x000000000000000000000000db140b58d6e3988f5c453e192295748c1438d8d4",
            "0x000000000000000000000000a3bf43451cdeb6dec588b8833838fc419ce4f54c"
          ],
          "data": "0x00000000000000000000000000000000000000000000000000000000002dc6c0",
          "blockHash": "0x7e777a8cfbf48be3807257331afa0ca389e92449ea5e7c1d44f320c024274ad1",
          "blockNumber": "0x176d32be",
          "transactionHash": "0xf3f19507b3f3c86f32f47ac4a7ae51525ca5ec70b4026c49529ec99c212a9016",
          "transactionIndex": "0x1",
          "logIndex": "0x2",
          "removed": false
        },
        {
          "address": "0xa3bf43451cdeb6dec588b8833838fc419ce4f54c",
          "topics": [
            "0xaafaed86f175a2b5a9812043ba82df1a5d0ab905b78d0f4bea5ca66a05b12183",
            "0x52ab01eed3095e45c253eecf36294ba4f9799f28ab385009c63239e90bbddebd"
          ],
          "data": "0x000000000000000000000000db140b58d6e3988f5c453e192295748c1438d8d4000000000000000000000000000000000000000000000000000000000000004000000000000000000000000000000000000000000000000000000000000003000000000000000000000000000000000000000000000000000000000000000020000000000000000000000000000000000000000000000000000000000000a4b1000000000000000000000000000000000000000000000000000000000000000a0000000000000000000000000000000000000000000000000000000068fbf47a0000000000000000000000000000000000000000000000000000000076954d70000000000000000000000000a3bf43451cdeb6dec588b8833838fc419ce4f54c000000000000000000000000c4660f40ba6fe89b3ba7ded44cf1db73d731c95e000000000000000000000000c4660f40ba6fe89b3ba7ded44cf1db73d731c95e000000000000000000000000cdea28ee7bd5bf7710b294d9391e1b6a318d809a0000000000000000000000000000000000000000000000000000000000000001000000000000000000000000af88d065e77c8cc2239327c5edb3a432268e583100000000000000000000000000000000000000000000000000000000002dc6c0000000000000000000000000eeeeeeeeeeeeeeeeeeeeeeeeeeeeeeeeeeeeeeee0000000000000000000000000000000000000000000000000002a49e5b0b15ea000000000000000000000000000000000000000000000000000000000000000000000000000000000000000000000000000000000000000000000000000000000000000000000000000000000000000000000000000000000000000000000000000000000000000000000000000000000000000000000000000000000000000000000000000000000000000000000000000000000000000000000000000002a0000000000000000000000000000000000000000000000000000000000000000000000000000000000000000000000000000000000000000000000000000002c0000000000000000000000000000000000000000000000000000000000000000000000000000000000000000000000000000000000000000000000000000000000000000000000000000000000000000000000000000000000000000000000000",
          "blockHash": "0x7e777a8cfbf48be3807257331afa0ca389e92449ea5e7c1d44f320c024274ad1",
          "blockNumber": "0x176d32be",
          "transactionHash": "0xf3f19507b3f3c86f32f47ac4a7ae51525ca5ec70b4026c49529ec99c212a9016",
          "transactionIndex": "0x1",
          "logIndex": "0x3",
          "removed": false
        },
        {
          "address": "0xdb140b58d6e3988f5c453e192295748c1438d8d4",
          "topics": [
            "0xbc60a056d798009fb26baaac6f99849096234a8e4ff67e7432d0859ec95a2512",
            "0x0000000000000000000000000000000000000000000000000000000000000002",
            "0x000000000000000000000000a3bf43451cdeb6dec588b8833838fc419ce4f54c"
          ],
          "data": "0x00000000000000000000000000000000000000000000000000000000002dc6c052ab01eed3095e45c253eecf36294ba4f9799f28ab385009c63239e90bbddebd",
          "blockHash": "0x7e777a8cfbf48be3807257331afa0ca389e92449ea5e7c1d44f320c024274ad1",
          "blockNumber": "0x176d32be",
          "transactionHash": "0xf3f19507b3f3c86f32f47ac4a7ae51525ca5ec70b4026c49529ec99c212a9016",
          "transactionIndex": "0x1",
          "logIndex": "0x4",
          "removed": false
        },
        {
          "address": "0xdb140b58d6e3988f5c453e192295748c1438d8d4",
          "topics": [
            "0x2de87ab3b4b4e8bdf67777c0a9428d4da79f614feef0c009c1922ea7c319ecb4",
            "0x0000000000000000000000000000000000000000000000000000000000000002",
            "0x000000000000000000000000000000000000000000000000000000000000000a"
          ],
          "data": "0x00000000000000000000000000000000000000000000000000000000002dc6c0",
          "blockHash": "0x7e777a8cfbf48be3807257331afa0ca389e92449ea5e7c1d44f320c024274ad1",
          "blockNumber": "0x176d32be",
          "transactionHash": "0xf3f19507b3f3c86f32f47ac4a7ae51525ca5ec70b4026c49529ec99c212a9016",
          "transactionIndex": "0x1",
          "logIndex": "0x5",
          "removed": false
        }
      ],
      "logsBloom": "0x04000000000000000000000000000000080000000000001000000000000000000000000000000000001080000000000000000001040000000020000000220000040000000800000000000008000000000000000100000000000000000000010000000000020000000000000000000800000000000000000000000010800000000000000000000010010000000000000000008020000000400000000000000000020000000000000008000100200000000000000000001000000000000000000000002002000000000000001004000000000000000040000000000000400020000014000000000004000000000000200204000000008001000000000000000000",
      "type": "0x2",
      "transactionHash": "0xf3f19507b3f3c86f32f47ac4a7ae51525ca5ec70b4026c49529ec99c212a9016",
      "transactionIndex": "0x1",
      "blockHash": "0x7e777a8cfbf48be3807257331afa0ca389e92449ea5e7c1d44f320c024274ad1",
      "blockNumber": "0x176d32be",
      "gasUsed": "0x3632b",
      "effectiveGasPrice": "0x989680",
      "from": "0xc4660f40ba6fe89b3ba7ded44cf1db73d731c95e",
      "to": "0xdb140b58d6e3988f5c453e192295748c1438d8d4",
      "contractAddress": null,
      "gasUsedForL1": "0x58c",
      "l1BlockNumber": "0x168df0e",
      "timeboosted": false
    }
  ],
  "libraries": [],
  "pending": [],
  "returns": {},
  "timestamp": 1761342000,
  "chain": 42161,
  "commit": "a4eb371"
}