{
  "transactions": [
    {
      "hash": "0x68831481e73fe4be4bc355a261bdc6054c3d1d3665cceb6e9ac288d3933380c7",
      "transactionType": "CALL",
      "contractName": null,
      "contractAddress": "0xdb140b58d6e3988f5c453e192295748c1438d8d4",
      "function": "autoRefuel(uint256,address,((uint256,uint256,uint256,uint256,address,address,address,address,uint32,address,uint256,address,uint256,uint256),address,uint256,bytes32,bytes,uint256,bytes,address),bytes32,uint256)",
      "arguments": [
        "1",
        "0xA3BF43451CdEb6DEC588B8833838fC419CE4F54c",
        "((42161, 10, 1761335803, 100138311, 0xA3BF43451CdEb6DEC588B8833838fC419CE4F54c, 0xc4660f40BA6Fe89b3BA7Ded44Cf1DB73D731c95e, 0xc4660f40BA6Fe89b3BA7Ded44Cf1DB73D731c95e, 0xCdEa28Ee7BD5bf7710B294d9391e1b6A318d809a, 1, 0xaf88d065e77c8cC2239327C5EDb3A432268e5831, 2000000, 0xEeeeeEeeeEeEeeEeEeEeeEEEeeeeEeeeeeeeEEeE, 612500000000000000, 0), 0x0000000000000000000000000000000000000000, 0, 0x0000000000000000000000000000000000000000000000000000000000000000, 0x, 0, 0x, 0x0000000000000000000000000000000000000000)",
        "0x96e606ca272cbfac0b98d4601f436b58a40c15d561eae3d8e796658b474b660f",
        "10"
      ],
      "transaction": {
        "from": "0xc4660f40ba6fe89b3ba7ded44cf1db73d731c95e",
        "to": "0xdb140b58d6e3988f5c453e192295748c1438d8d4",
        "gas": "0x4eb1f",
        "value": "0x0",
        "input": "0xcb4cd3be0000000000000000000000000000000000000000000000000000000000000001000000000000000000000000a3bf43451cdeb6dec588b8833838fc419ce4f54c00000000000000000000000000000000000000000000000000000000000000a096e606ca272cbfac0b98d4601f436b58a40c15d561eae3d8e796658b474b660f000000000000000000000000000000000000000000000000000000000000000a000000000000000000000000000000000000000000000000000000000000a4b1000000000000000000000000000000000000000000000000000000000000000a0000000000000000000000000000000000000000000000000000000068fbd9fb0000000000000000000000000000000000000000000000000000000005f7fd47000000000000000000000000a3bf43451cdeb6dec588b8833838fc419ce4f54c000000000000000000000000c4660f40ba6fe89b3ba7ded44cf1db73d731c95e000000000000000000000000c4660f40ba6fe89b3ba7ded44cf1db73d731c95e000000000000000000000000cdea28ee7bd5bf7710b294d9391e1b6a318d809a0000000000000000000000000000000000000000000000000000000000000001000000000000000000000000af88d065e77c8cc2239327c5edb3a432268e583100000000000000000000000000000000000000000000000000000000001e8480000000000000000000000000eeeeeeeeeeeeeeeeeeeeeeeeeeeeeeeeeeeeeeee000000000000000000000000000000000000000000000000088009813ced4000000000000000000000000000000000000000000000000000000000000000000000000000000000000000000000000000000000000000000000000000000000000000000000000000000000000000000000000000000000000000000000000000000000000000000000000000000000000000000000000000000000000000000000000000000000000000000000000000000000000000000000000000000002a0000000000000000000000000000000000000000000000000000000000000000000000000000000000000000000000000000000000000000000000000000002c0000000000000000000000000000000000000000000000000000000000000000000000000000000000000000000000000000000000000000000000000000000000000000000000000000000000000000000000000000000000000000000000000",
        "nonce": "0x28",
        "chainId": "0xa4b1"
      },
      "additionalContracts": [],
      "isFixedGasLimit": false
    }
  ],
  "receipts": [
    {
      "status": "0x1",
      "cumulativeGasUsed": "0x1c7b83",
      "logs": [
        {
          "address": "0xdb140b58d6e3988f5c453e192295748c1438d8d4",
          "topics": [
            "0x0b2aac84f3ec956911fd78eae5311062972ff949f38412e8da39069d9f068cc6",
            "0x0000000000000000000000000000000000000000000000000000000000000001",
            "0x0000000000000000000000000000000000000000000000000000000000000000"
          ],
          "data": "0x00000000000000000000000000000000000000000000000000000000001e8480",
          "blockHash": "0xb520d7bd7622b3a9f3ce86f9cd02577f41751087f2f97bcd9d43be40ca661539",
          "blockNumber": "0x176cc8b2",
          "transactionHash": "0x68831481e73fe4be4bc355a261bdc6054c3d1d3665cceb6e9ac288d3933380c7",
          "transactionIndex": "0x6",
          "logIndex": "0x22",
          "removed": false
        },
        {
          "address": "0xaf88d065e77c8cc2239327c5edb3a432268e5831",
          "topics": [
            "0x8c5be1e5ebec7d5bd14f71427d1e84f3dd0314c0f7b2291e5b200ac8c7c3b925",
            "0x000000000000000000000000db140b58d6e3988f5c453e192295748c1438d8d4",
            "0x000000000000000000000000a3bf43451cdeb6dec588b8833838fc419ce4f54c"
          ],
          "data": "0x00000000000000000000000000000000000000000000000000000000001e8480",
          "blockHash": "0xb520d7bd7622b3a9f3ce86f9cd02577f41751087f2f97bcd9d43be40ca661539",
          "blockNumber": "0x176cc8b2",
          "transactionHash": "0x68831481e73fe4be4bc355a261bdc6054c3d1d3665cceb6e9ac288d3933380c7",
          "transactionIndex": "0x6",
          "logIndex": "0x23",
          "removed": false
        },
        {
          "address": "0xaf88d065e77c8cc2239327c5edb3a432268e5831",
          "topics": [
            "0xddf252ad1be2c89b69c2b068fc378daa952ba7f163c4a11628f55a4df523b3ef",
            "0x000000000000000000000000db140b58d6e3988f5c453e192295748c1438d8d4",
            "0x000000000000000000000000a3bf43451cdeb6dec588b8833838fc419ce4f54c"
          ],
          "data": "0x00000000000000000000000000000000000000000000000000000000001e8480",
          "blockHash": "0xb520d7bd7622b3a9f3ce86f9cd02577f41751087f2f97bcd9d43be40ca661539",
          "blockNumber": "0x176cc8b2",
          "transactionHash": "0x68831481e73fe4be4bc355a261bdc6054c3d1d3665cceb6e9ac288d3933380c7",
          "transactionIndex": "0x6",
          "logIndex": "0x24",
          "removed": false
        },
        {
          "address": "0xa3bf43451cdeb6dec588b8833838fc419ce4f54c",
          "topics": [
            "0xaafaed86f175a2b5a9812043ba82df1a5d0ab905b78d0f4bea5ca66a05b12183",
            "0x96e606ca272cbfac0b98d4601f436b58a40c15d561eae3d8e796658b474b660f"
          ],
          "data": "0x000000000000000000000000db140b58d6e3988f5c453e192295748c1438d8d4000000000000000000000000000000000000000000000000000000000000004000000000000000000000000000000000000000000000000000000000000003000000000000000000000000000000000000000000000000000000000000000020000000000000000000000000000000000000000000000000000000000000a4b1000000000000000000000000000000000000000000000000000000000000000a0000000000000000000000000000000000000000000000000000000068fbd9fb0000000000000000000000000000000000000000000000000000000005f7fd47000000000000000000000000a3bf43451cdeb6dec588b8833838fc419ce4f54c000000000000000000000000c4660f40ba6fe89b3ba7ded44cf1db73d731c95e000000000000000000000000c4660f40ba6fe89b3ba7ded44cf1db73d731c95e000000000000000000000000cdea28ee7bd5bf7710b294d9391e1b6a318d809a0000000000000000000000000000000000000000000000000000000000000001000000000000000000000000af88d065e77c8cc2239327c5edb3a432268e583100000000000000000000000000000000000000000000000000000000001e8480000000000000000000000000eeeeeeeeeeeeeeeeeeeeeeeeeeeeeeeeeeeeeeee000000000000000000000000000000000000000000000000088009813ced4000000000000000000000000000000000000000000000000000000000000000000000000000000000000000000000000000000000000000000000000000000000000000000000000000000000000000000000000000000000000000000000000000000000000000000000000000000000000000000000000000000000000000000000000000000000000000000000000000000000000000000000000000000002a0000000000000000000000000000000000000000000000000000000000000000000000000000000000000000000000000000000000000000000000000000002c0000000000000000000000000000000000000000000000000000000000000000000000000000000000000000000000000000000000000000000000000000000000000000000000000000000000000000000000000000000000000000000000000",
          "blockHash": "0xb520d7bd7622b3a9f3ce86f9cd02577f41751087f2f97bcd9d43be40ca661539",
          "blockNumber": "0x176cc8b2",
          "transactionHash": "0x68831481e73fe4be4bc355a261bdc6054c3d1d3665cceb6e9ac288d3933380c7",
          "transactionIndex": "0x6",
          "logIndex": "0x25",
          "removed": false
        },
        {
          "address": "0xdb140b58d6e3988f5c453e192295748c1438d8d4",
          "topics": [
            "0xbc60a056d798009fb26baaac6f99849096234a8e4ff67e7432d0859ec95a2512",
            "0x0000000000000000000000000000000000000000000000000000000000000001",
            "0x000000000000000000000000a3bf43451cdeb6dec588b8833838fc419ce4f54c"
          ],
          "data": "0x00000000000000000000000000000000000000000000000000000000001e848096e606ca272cbfac0b98d4601f436b58a40c15d561eae3d8e796658b474b660f",
          "blockHash": "0xb520d7bd7622b3a9f3ce86f9cd02577f41751087f2f97bcd9d43be40ca661539",
          "blockNumber": "0x176cc8b2",
          "transactionHash": "0x68831481e73fe4be4bc355a261bdc6054c3d1d3665cceb6e9ac288d3933380c7",
          "transactionIndex": "0x6",
          "logIndex": "0x26",
          "removed": false
        },
        {
          "address": "0xdb140b58d6e3988f5c453e192295748c1438d8d4",
          "topics": [
            "0x2de87ab3b4b4e8bdf67777c0a9428d4da79f614feef0c009c1922ea7c319ecb4",
            "0x0000000000000000000000000000000000000000000000000000000000000001",
            "0x000000000000000000000000000000000000000000000000000000000000000a"
          ],
          "data": "0x00000000000000000000000000000000000000000000000000000000001e8480",
          "blockHash": "0xb520d7bd7622b3a9f3ce86f9cd02577f41751087f2f97bcd9d43be40ca661539",
          "blockNumber": "0x176cc8b2",
          "transactionHash": "0x68831481e73fe4be4bc355a261bdc6054c3d1d3665cceb6e9ac288d3933380c7",
          "transactionIndex": "0x6",
          "logIndex": "0x27",
          "removed": false
        }
      ],
      "logsBloom": "0x00000000000000000000000000000000080000000000001000000000000000000000000000000000001080000000000000000001040000040020000000260000040000000800000000000008000000000000000100040000000000000000010000000000020000000000000000000800000000000000000000000010000000000000000000000010010000000000000000008000000000400000000000000000020000000000000000000000200000000000000000001000000000200000000000002002000000000000001044000000000000000040000000000000400060000014000000000004000000000000200204000000000001000000000000000000",
      "type": "0x2",
      "transactionHash": "0x68831481e73fe4be4bc355a261bdc6054c3d1d3665cceb6e9ac288d3933380c7",
      "transactionIndex": "0x6",
      "blockHash": "0xb520d7bd7622b3a9f3ce86f9cd02577f41751087f2f97bcd9d43be40ca661539",
      "blockNumber": "0x176cc8b2",
      "gasUsed": "0x34dda",
      "effectiveGasPrice": "0x989680",
      "from": "0xc4660f40ba6fe89b3ba7ded44cf1db73d731c95e",
      "to": "0xdb140b58d6e3988f5c453e192295748c1438d8d4",
      "contractAddress": null,
      "gasUsedForL1": "0x2fb",
      "l1BlockNumber": "0x168dcdc",
      "timeboosted": false
    }
  ],
  "libraries": [],
  "pending": [],
  "returns": {},
  "timestamp": 1761335216,
  "chain": 42161,
  "commit": "27e81f6"
}